{
  "contractName": "Exchange",
  "abi": [
    {
      "inputs": [
        {
          "internalType": "contract Intex",
          "name": "_token",
          "type": "address"
        }
      ],
      "stateMutability": "nonpayable",
      "type": "constructor"
    },
    {
      "inputs": [],
      "name": "addDataIntelligencePrice",
      "outputs": [
        {
          "internalType": "uint256",
          "name": "",
          "type": "uint256"
        }
      ],
      "stateMutability": "view",
      "type": "function",
      "constant": true
    },
    {
      "inputs": [
        {
          "internalType": "bytes32",
          "name": "",
          "type": "bytes32"
        }
      ],
      "name": "checkByHash",
      "outputs": [
        {
          "internalType": "address",
          "name": "checker",
          "type": "address"
        },
        {
          "internalType": "uint256",
          "name": "timestamp",
          "type": "uint256"
        },
        {
          "internalType": "address",
          "name": "provider",
          "type": "address"
        },
        {
          "internalType": "bytes32",
          "name": "dataHash",
          "type": "bytes32"
        }
      ],
      "stateMutability": "view",
      "type": "function",
      "constant": true
    },
    {
      "inputs": [
        {
          "internalType": "address",
          "name": "",
          "type": "address"
        },
        {
          "internalType": "bytes32",
          "name": "",
          "type": "bytes32"
        }
      ],
      "name": "dataIntelligenceByHash",
      "outputs": [
        {
          "internalType": "uint256",
          "name": "timestamp",
          "type": "uint256"
        },
        {
          "internalType": "bytes",
          "name": "source",
          "type": "bytes"
        },
        {
          "internalType": "uint256",
          "name": "type_",
          "type": "uint256"
        },
        {
          "internalType": "bytes",
          "name": "data",
          "type": "bytes"
        }
      ],
      "stateMutability": "view",
      "type": "function",
      "constant": true
    },
    {
      "inputs": [
        {
          "internalType": "address",
          "name": "",
          "type": "address"
        },
        {
          "internalType": "uint256",
          "name": "",
          "type": "uint256"
        }
      ],
      "name": "dataIntelligenceHashes",
      "outputs": [
        {
          "internalType": "bytes32",
          "name": "",
          "type": "bytes32"
        }
      ],
      "stateMutability": "view",
      "type": "function",
      "constant": true
    },
    {
      "inputs": [],
      "name": "owner",
      "outputs": [
        {
          "internalType": "address",
          "name": "",
          "type": "address"
        }
      ],
      "stateMutability": "view",
      "type": "function",
      "constant": true
    },
    {
      "inputs": [
        {
          "internalType": "bytes32",
          "name": "",
          "type": "bytes32"
        }
      ],
      "name": "providerAddressByName",
      "outputs": [
        {
          "internalType": "address",
          "name": "",
          "type": "address"
        }
      ],
      "stateMutability": "view",
      "type": "function",
      "constant": true
    },
    {
      "inputs": [
        {
          "internalType": "uint256",
          "name": "",
          "type": "uint256"
        }
      ],
      "name": "providerAddresses",
      "outputs": [
        {
          "internalType": "address",
          "name": "",
          "type": "address"
        }
      ],
      "stateMutability": "view",
      "type": "function",
      "constant": true
    },
    {
      "inputs": [
        {
          "internalType": "address",
          "name": "",
          "type": "address"
        }
      ],
      "name": "providerByAddress",
      "outputs": [
        {
          "internalType": "address",
          "name": "addr",
          "type": "address"
        },
        {
          "internalType": "bytes32",
          "name": "name",
          "type": "bytes32"
        }
      ],
      "stateMutability": "view",
      "type": "function",
      "constant": true
    },
    {
      "inputs": [
        {
          "internalType": "bytes32",
          "name": "name",
          "type": "bytes32"
        }
      ],
      "name": "registerAsProvider",
      "outputs": [],
      "stateMutability": "nonpayable",
      "type": "function"
    },
    {
      "inputs": [],
      "name": "getAllProviders",
      "outputs": [
        {
          "components": [
            {
              "internalType": "address",
              "name": "addr",
              "type": "address"
            },
            {
              "internalType": "bytes32",
              "name": "name",
              "type": "bytes32"
            }
          ],
          "internalType": "struct Exchange.Provider[]",
          "name": "",
          "type": "tuple[]"
        }
      ],
      "stateMutability": "view",
      "type": "function",
      "constant": true
    },
    {
      "inputs": [
        {
          "internalType": "bytes",
          "name": "dataSource",
          "type": "bytes"
        },
        {
          "internalType": "uint256",
          "name": "dataType",
          "type": "uint256"
        },
        {
          "internalType": "bytes",
          "name": "dataIntelligence",
          "type": "bytes"
        }
      ],
      "name": "addDataIntelligence",
      "outputs": [],
      "stateMutability": "nonpayable",
      "type": "function"
    },
    {
      "inputs": [
        {
          "internalType": "address",
          "name": "provider",
          "type": "address"
        }
      ],
      "name": "getDataIntelligences",
      "outputs": [
        {
          "components": [
            {
              "internalType": "uint256",
              "name": "timestamp",
              "type": "uint256"
            },
            {
              "internalType": "bytes",
              "name": "source",
              "type": "bytes"
            },
            {
              "internalType": "uint256",
              "name": "type_",
              "type": "uint256"
            },
            {
              "internalType": "bytes",
              "name": "data",
              "type": "bytes"
            }
          ],
          "internalType": "struct Exchange.DataIntelligence[]",
          "name": "",
          "type": "tuple[]"
        }
      ],
      "stateMutability": "view",
      "type": "function",
      "constant": true
    },
    {
      "inputs": [
        {
          "internalType": "bytes32",
          "name": "checkHash",
          "type": "bytes32"
        },
        {
          "internalType": "address",
          "name": "provider",
          "type": "address"
        },
        {
          "internalType": "bytes32",
          "name": "dataHash",
          "type": "bytes32"
        }
      ],
      "name": "checkDataIntelligence",
      "outputs": [],
      "stateMutability": "nonpayable",
      "type": "function"
    },
    {
      "inputs": [
        {
          "internalType": "bytes32",
          "name": "checkHash",
          "type": "bytes32"
        },
        {
          "internalType": "uint256",
          "name": "providerReward",
          "type": "uint256"
        },
        {
          "internalType": "uint256",
          "name": "checkerReward",
          "type": "uint256"
        }
      ],
      "name": "reward",
      "outputs": [],
      "stateMutability": "nonpayable",
      "type": "function"
    }
  ],
  "bytecode": "0x60806040523480156200001157600080fd5b5060405162002861380380620028618339818101604052810190620000379190620000e6565b336000806101000a81548173ffffffffffffffffffffffffffffffffffffffff021916908373ffffffffffffffffffffffffffffffffffffffff16021790555080600160006101000a81548173ffffffffffffffffffffffffffffffffffffffff021916908373ffffffffffffffffffffffffffffffffffffffff160217905550683635c9adc5dea000006007819055505062000174565b600081519050620000e0816200015a565b92915050565b600060208284031215620000f957600080fd5b60006200010984828501620000cf565b91505092915050565b60006200011f826200013a565b9050919050565b6000620001338262000112565b9050919050565b600073ffffffffffffffffffffffffffffffffffffffff82169050919050565b620001658162000126565b81146200017157600080fd5b50565b6126dd80620001846000396000f3fe608060405234801561001057600080fd5b50600436106100ea5760003560e01c806368e3b9181161008c578063bb512a8211610066578063bb512a8214610274578063c234ba7614610290578063e6fe61ab146102ac578063f00002e3146102dd576100ea565b806368e3b9181461020a5780638da5cb5b1461023a5780639901e6f014610258576100ea565b80633d932f34116100c85780633d932f3414610159578063428bef631461018c5780635fd91354146101aa578063618dd9a8146101da576100ea565b80631bb4d049146100ef5780632e6738001461010b5780633bb4497c1461013b575b600080fd5b61010960048036038101906101049190611be6565b610310565b005b61012560048036038101906101209190611b6e565b610751565b604051610132919061220d565b60405180910390f35b610143610784565b604051610150919061230a565b60405180910390f35b610173600480360381019061016e9190611acd565b6108ff565b6040516101839493929190612462565b60405180910390f35b610194610a6c565b6040516101a19190612447565b60405180910390f35b6101c460048036038101906101bf9190611b09565b610a72565b6040516101d1919061232c565b60405180910390f35b6101f460048036038101906101ef9190611cbe565b610aa0565b604051610201919061220d565b60405180910390f35b610224600480360381019061021f9190611aa4565b610adc565b60405161023191906122e8565b60405180910390f35b610242610dbc565b60405161024f919061220d565b60405180910390f35b610272600480360381019061026d9190611b6e565b610de0565b005b61028e60048036038101906102899190611c35565b6110c9565b005b6102aa60048036038101906102a59190611b97565b6115ce565b005b6102c660048036038101906102c19190611aa4565b611799565b6040516102d492919061227a565b60405180910390f35b6102f760048036038101906102f29190611b6e565b6117dd565b60405161030794939291906122a3565b60405180910390f35b610323818361184d90919063ffffffff16565b600160009054906101000a900473ffffffffffffffffffffffffffffffffffffffff1673ffffffffffffffffffffffffffffffffffffffff166370a08231336040518263ffffffff1660e01b815260040161037e9190612228565b60206040518083038186803b15801561039657600080fd5b505afa1580156103aa573d6000803e3d6000fd5b505050506040513d601f19601f820116820180604052508101906103ce9190611ce7565b101561040f576040517f08c379a0000000000000000000000000000000000000000000000000000000008152600401610406906123e7565b60405180910390fd5b6104176118a2565b600860008581526020019081526020016000206040518060800160405290816000820160009054906101000a900473ffffffffffffffffffffffffffffffffffffffff1673ffffffffffffffffffffffffffffffffffffffff1673ffffffffffffffffffffffffffffffffffffffff168152602001600182015481526020016002820160009054906101000a900473ffffffffffffffffffffffffffffffffffffffff1673ffffffffffffffffffffffffffffffffffffffff1673ffffffffffffffffffffffffffffffffffffffff1681526020016003820154815250509050600073ffffffffffffffffffffffffffffffffffffffff16816000015173ffffffffffffffffffffffffffffffffffffffff16141561056b576040517f08c379a0000000000000000000000000000000000000000000000000000000008152600401610562906123c7565b60405180910390fd5b600073ffffffffffffffffffffffffffffffffffffffff16816040015173ffffffffffffffffffffffffffffffffffffffff1614156105df576040517f08c379a00000000000000000000000000000000000000000000000000000000081526004016105d690612347565b60405180910390fd5b600160009054906101000a900473ffffffffffffffffffffffffffffffffffffffff1673ffffffffffffffffffffffffffffffffffffffff166323b872dd338360000151856040518463ffffffff1660e01b815260040161064293929190612243565b602060405180830381600087803b15801561065c57600080fd5b505af1158015610670573d6000803e3d6000fd5b505050506040513d601f19601f820116820180604052508101906106949190611b45565b50600160009054906101000a900473ffffffffffffffffffffffffffffffffffffffff1673ffffffffffffffffffffffffffffffffffffffff166323b872dd338360400151866040518463ffffffff1660e01b81526004016106f893929190612243565b602060405180830381600087803b15801561071257600080fd5b505af1158015610726573d6000803e3d6000fd5b505050506040513d601f19601f8201168201806040525081019061074a9190611b45565b5050505050565b60046020528060005260406000206000915054906101000a900473ffffffffffffffffffffffffffffffffffffffff1681565b60606000600280549050905060608167ffffffffffffffff811180156107a957600080fd5b506040519080825280602002602001820160405280156107e357816020015b6107d06118f9565b8152602001906001900390816107c85790505b50905060005b828110156108f657600360006002838154811061080257fe5b9060005260206000200160009054906101000a900473ffffffffffffffffffffffffffffffffffffffff1673ffffffffffffffffffffffffffffffffffffffff1673ffffffffffffffffffffffffffffffffffffffff1681526020019081526020016000206040518060400160405290816000820160009054906101000a900473ffffffffffffffffffffffffffffffffffffffff1673ffffffffffffffffffffffffffffffffffffffff1673ffffffffffffffffffffffffffffffffffffffff1681526020016001820154815250508282815181106108de57fe5b602002602001018190525080806001019150506107e9565b50809250505090565b600660205281600052604060002060205280600052604060002060009150915050806000015490806001018054600181600116156101000203166002900480601f0160208091040260200160405190810160405280929190818152602001828054600181600116156101000203166002900480156109be5780601f10610993576101008083540402835291602001916109be565b820191906000526020600020905b8154815290600101906020018083116109a157829003601f168201915b505050505090806002015490806003018054600181600116156101000203166002900480601f016020809104026020016040519081016040528092919081815260200182805460018160011615610100020316600290048015610a625780601f10610a3757610100808354040283529160200191610a62565b820191906000526020600020905b815481529060010190602001808311610a4557829003601f168201915b5050505050905084565b60075481565b60056020528160005260406000208181548110610a8b57fe5b90600052602060002001600091509150505481565b60028181548110610aad57fe5b906000526020600020016000915054906101000a900473ffffffffffffffffffffffffffffffffffffffff1681565b60606000600560008473ffffffffffffffffffffffffffffffffffffffff1673ffffffffffffffffffffffffffffffffffffffff16815260200190815260200160002080549050905060608167ffffffffffffffff81118015610b3e57600080fd5b50604051908082528060200260200182016040528015610b7857816020015b610b6561192c565b815260200190600190039081610b5d5790505b50905060005b82811015610db157600660008673ffffffffffffffffffffffffffffffffffffffff1673ffffffffffffffffffffffffffffffffffffffff1681526020019081526020016000206000600560008873ffffffffffffffffffffffffffffffffffffffff1673ffffffffffffffffffffffffffffffffffffffff1681526020019081526020016000208381548110610c1157fe5b9060005260206000200154815260200190815260200160002060405180608001604052908160008201548152602001600182018054600181600116156101000203166002900480601f016020809104026020016040519081016040528092919081815260200182805460018160011615610100020316600290048015610cd85780601f10610cad57610100808354040283529160200191610cd8565b820191906000526020600020905b815481529060010190602001808311610cbb57829003601f168201915b5050505050815260200160028201548152602001600382018054600181600116156101000203166002900480601f016020809104026020016040519081016040528092919081815260200182805460018160011615610100020316600290048015610d845780601f10610d5957610100808354040283529160200191610d84565b820191906000526020600020905b815481529060010190602001808311610d6757829003601f168201915b505050505081525050828281518110610d9957fe5b60200260200101819052508080600101915050610b7e565b508092505050919050565b60008054906101000a900473ffffffffffffffffffffffffffffffffffffffff1681565b600073ffffffffffffffffffffffffffffffffffffffff16600360003373ffffffffffffffffffffffffffffffffffffffff1673ffffffffffffffffffffffffffffffffffffffff16815260200190815260200160002060000160009054906101000a900473ffffffffffffffffffffffffffffffffffffffff1673ffffffffffffffffffffffffffffffffffffffff1614610eb1576040517f08c379a0000000000000000000000000000000000000000000000000000000008152600401610ea890612367565b60405180910390fd5b600073ffffffffffffffffffffffffffffffffffffffff166004600083815260200190815260200160002060009054906101000a900473ffffffffffffffffffffffffffffffffffffffff1673ffffffffffffffffffffffffffffffffffffffff1614610f53576040517f08c379a0000000000000000000000000000000000000000000000000000000008152600401610f4a90612407565b60405180910390fd5b6002339080600181540180825580915050600190039060005260206000200160009091909190916101000a81548173ffffffffffffffffffffffffffffffffffffffff021916908373ffffffffffffffffffffffffffffffffffffffff16021790555060405180604001604052803373ffffffffffffffffffffffffffffffffffffffff16815260200182815250600360003373ffffffffffffffffffffffffffffffffffffffff1673ffffffffffffffffffffffffffffffffffffffff16815260200190815260200160002060008201518160000160006101000a81548173ffffffffffffffffffffffffffffffffffffffff021916908373ffffffffffffffffffffffffffffffffffffffff16021790555060208201518160010155905050336004600083815260200190815260200160002060006101000a81548173ffffffffffffffffffffffffffffffffffffffff021916908373ffffffffffffffffffffffffffffffffffffffff16021790555050565b6101008585905010611110576040517f08c379a000000000000000000000000000000000000000000000000000000000815260040161110790612427565b60405180910390fd5b600085856040516111229291906121f4565b604051809103902090506111346118f9565b600360003373ffffffffffffffffffffffffffffffffffffffff1673ffffffffffffffffffffffffffffffffffffffff1681526020019081526020016000206040518060400160405290816000820160009054906101000a900473ffffffffffffffffffffffffffffffffffffffff1673ffffffffffffffffffffffffffffffffffffffff1673ffffffffffffffffffffffffffffffffffffffff16815260200160018201548152505090503373ffffffffffffffffffffffffffffffffffffffff16816000015173ffffffffffffffffffffffffffffffffffffffff1614611252576040517f08c379a000000000000000000000000000000000000000000000000000000000815260040161124990612387565b60405180910390fd5b600754600160009054906101000a900473ffffffffffffffffffffffffffffffffffffffff1673ffffffffffffffffffffffffffffffffffffffff166370a08231336040518263ffffffff1660e01b81526004016112b09190612228565b60206040518083038186803b1580156112c857600080fd5b505afa1580156112dc573d6000803e3d6000fd5b505050506040513d601f19601f820116820180604052508101906113009190611ce7565b1015611341576040517f08c379a0000000000000000000000000000000000000000000000000000000008152600401611338906123e7565b60405180910390fd5b600560003373ffffffffffffffffffffffffffffffffffffffff1673ffffffffffffffffffffffffffffffffffffffff168152602001908152602001600020829080600181540180825580915050600190039060005260206000200160009091909190915055604051806080016040528042815260200188888080601f016020809104026020016040519081016040528093929190818152602001838380828437600081840152601f19601f82011690508083019250505050505050815260200186815260200185858080601f016020809104026020016040519081016040528093929190818152602001838380828437600081840152601f19601f82011690508083019250505050505050815250600660003373ffffffffffffffffffffffffffffffffffffffff1673ffffffffffffffffffffffffffffffffffffffff16815260200190815260200160002060008481526020019081526020016000206000820151816000015560208201518160010190805190602001906114c6929190611954565b506040820151816002015560608201518160030190805190602001906114ed929190611954565b50905050600160009054906101000a900473ffffffffffffffffffffffffffffffffffffffff1673ffffffffffffffffffffffffffffffffffffffff166323b872dd3360008054906101000a900473ffffffffffffffffffffffffffffffffffffffff166007546040518463ffffffff1660e01b815260040161157293929190612243565b602060405180830381600087803b15801561158c57600080fd5b505af11580156115a0573d6000803e3d6000fd5b505050506040513d601f19601f820116820180604052508101906115c49190611b45565b5050505050505050565b60405180608001604052803373ffffffffffffffffffffffffffffffffffffffff1681526020014281526020018373ffffffffffffffffffffffffffffffffffffffff168152602001828152506008600085815260200190815260200160002060008201518160000160006101000a81548173ffffffffffffffffffffffffffffffffffffffff021916908373ffffffffffffffffffffffffffffffffffffffff1602179055506020820151816001015560408201518160020160006101000a81548173ffffffffffffffffffffffffffffffffffffffff021916908373ffffffffffffffffffffffffffffffffffffffff16021790555060608201518160030155905050600068056bc75e2d631000009050600160009054906101000a900473ffffffffffffffffffffffffffffffffffffffff1673ffffffffffffffffffffffffffffffffffffffff166323b872dd3385846040518463ffffffff1660e01b815260040161174093929190612243565b602060405180830381600087803b15801561175a57600080fd5b505af115801561176e573d6000803e3d6000fd5b505050506040513d601f19601f820116820180604052508101906117929190611b45565b5050505050565b60036020528060005260406000206000915090508060000160009054906101000a900473ffffffffffffffffffffffffffffffffffffffff16908060010154905082565b60086020528060005260406000206000915090508060000160009054906101000a900473ffffffffffffffffffffffffffffffffffffffff16908060010154908060020160009054906101000a900473ffffffffffffffffffffffffffffffffffffffff16908060030154905084565b600080828401905083811015611898576040517f08c379a000000000000000000000000000000000000000000000000000000000815260040161188f906123a7565b60405180910390fd5b8091505092915050565b6040518060800160405280600073ffffffffffffffffffffffffffffffffffffffff16815260200160008152602001600073ffffffffffffffffffffffffffffffffffffffff168152602001600080191681525090565b6040518060400160405280600073ffffffffffffffffffffffffffffffffffffffff168152602001600080191681525090565b6040518060800160405280600081526020016060815260200160008152602001606081525090565b828054600181600116156101000203166002900490600052602060002090601f016020900481019282601f1061199557805160ff19168380011785556119c3565b828001600101855582156119c3579182015b828111156119c25782518255916020019190600101906119a7565b5b5090506119d091906119d4565b5090565b5b808211156119ed5760008160009055506001016119d5565b5090565b600081359050611a008161264b565b92915050565b600081519050611a1581612662565b92915050565b600081359050611a2a81612679565b92915050565b60008083601f840112611a4257600080fd5b8235905067ffffffffffffffff811115611a5b57600080fd5b602083019150836001820283011115611a7357600080fd5b9250929050565b600081359050611a8981612690565b92915050565b600081519050611a9e81612690565b92915050565b600060208284031215611ab657600080fd5b6000611ac4848285016119f1565b91505092915050565b60008060408385031215611ae057600080fd5b6000611aee858286016119f1565b9250506020611aff85828601611a1b565b9150509250929050565b60008060408385031215611b1c57600080fd5b6000611b2a858286016119f1565b9250506020611b3b85828601611a7a565b9150509250929050565b600060208284031215611b5757600080fd5b6000611b6584828501611a06565b91505092915050565b600060208284031215611b8057600080fd5b6000611b8e84828501611a1b565b91505092915050565b600080600060608486031215611bac57600080fd5b6000611bba86828701611a1b565b9350506020611bcb868287016119f1565b9250506040611bdc86828701611a1b565b9150509250925092565b600080600060608486031215611bfb57600080fd5b6000611c0986828701611a1b565b9350506020611c1a86828701611a7a565b9250506040611c2b86828701611a7a565b9150509250925092565b600080600080600060608688031215611c4d57600080fd5b600086013567ffffffffffffffff811115611c6757600080fd5b611c7388828901611a30565b95509550506020611c8688828901611a7a565b935050604086013567ffffffffffffffff811115611ca357600080fd5b611caf88828901611a30565b92509250509295509295909350565b600060208284031215611cd057600080fd5b6000611cde84828501611a7a565b91505092915050565b600060208284031215611cf957600080fd5b6000611d0784828501611a8f565b91505092915050565b6000611d1c838361213d565b905092915050565b6000611d3083836121a7565b60408301905092915050565b611d45816125c2565b82525050565b611d5481612570565b82525050565b611d6381612570565b82525050565b6000611d74826124d5565b611d7e8185612510565b935083602082028501611d90856124b5565b8060005b85811015611dcc5784840389528151611dad8582611d10565b9450611db8836124f6565b925060208a01995050600181019050611d94565b50829750879550505050505092915050565b6000611de9826124e0565b611df38185612521565b9350611dfe836124c5565b8060005b83811015611e2f578151611e168882611d24565b9750611e2183612503565b925050600181019050611e02565b5085935050505092915050565b611e458161258e565b82525050565b611e548161258e565b82525050565b6000611e668385612554565b9350611e738385846125f8565b82840190509392505050565b6000611e8a826124eb565b611e948185612532565b9350611ea4818560208601612607565b611ead8161263a565b840191505092915050565b6000611ec3826124eb565b611ecd8185612543565b9350611edd818560208601612607565b611ee68161263a565b840191505092915050565b6000611efe60148361255f565b91507f43616e6e6f742066696e642070726f76696465720000000000000000000000006000830152602082019050919050565b6000611f3e60238361255f565b91507f50726f7669646572206164647265737320616c7265616479207265676973746560008301527f72656400000000000000000000000000000000000000000000000000000000006020830152604082019050919050565b6000611fa460178361255f565b91507f53656e646572206d7573742062652070726f76696465720000000000000000006000830152602082019050919050565b6000611fe4601b8361255f565b91507f536166654d6174683a206164646974696f6e206f766572666c6f7700000000006000830152602082019050919050565b600061202460138361255f565b91507f43616e6e6f742066696e6420636865636b6572000000000000000000000000006000830152602082019050919050565b600061206460128361255f565b91507f556e73756666696369656e742066756e647300000000000000000000000000006000830152602082019050919050565b60006120a460208361255f565b91507f50726f7669646572206e616d6520616c726561647920726567697374657265646000830152602082019050919050565b60006120e460288361255f565b91507f4461746120736f75726365206c656e677468206d757374206265206c6573732060008301527f7468616e203235360000000000000000000000000000000000000000000000006020830152604082019050919050565b600060808301600083015161215560008601826121d6565b506020830151848203602086015261216d8282611e7f565b915050604083015161218260408601826121d6565b506060830151848203606086015261219a8282611e7f565b9150508091505092915050565b6040820160008201516121bd6000850182611d4b565b5060208201516121d06020850182611e3c565b50505050565b6121df816125b8565b82525050565b6121ee816125b8565b82525050565b6000612201828486611e5a565b91508190509392505050565b60006020820190506122226000830184611d5a565b92915050565b600060208201905061223d6000830184611d3c565b92915050565b60006060820190506122586000830186611d3c565b6122656020830185611d5a565b61227260408301846121e5565b949350505050565b600060408201905061228f6000830185611d5a565b61229c6020830184611e4b565b9392505050565b60006080820190506122b86000830187611d5a565b6122c560208301866121e5565b6122d26040830185611d5a565b6122df6060830184611e4b565b95945050505050565b600060208201905081810360008301526123028184611d69565b905092915050565b600060208201905081810360008301526123248184611dde565b905092915050565b60006020820190506123416000830184611e4b565b92915050565b6000602082019050818103600083015261236081611ef1565b9050919050565b6000602082019050818103600083015261238081611f31565b9050919050565b600060208201905081810360008301526123a081611f97565b9050919050565b600060208201905081810360008301526123c081611fd7565b9050919050565b600060208201905081810360008301526123e081612017565b9050919050565b6000602082019050818103600083015261240081612057565b9050919050565b6000602082019050818103600083015261242081612097565b9050919050565b60006020820190508181036000830152612440816120d7565b9050919050565b600060208201905061245c60008301846121e5565b92915050565b600060808201905061247760008301876121e5565b81810360208301526124898186611eb8565b905061249860408301856121e5565b81810360608301526124aa8184611eb8565b905095945050505050565b6000819050602082019050919050565b6000819050602082019050919050565b600081519050919050565b600081519050919050565b600081519050919050565b6000602082019050919050565b6000602082019050919050565b600082825260208201905092915050565b600082825260208201905092915050565b600082825260208201905092915050565b600082825260208201905092915050565b600081905092915050565b600082825260208201905092915050565b600061257b82612598565b9050919050565b60008115159050919050565b6000819050919050565b600073ffffffffffffffffffffffffffffffffffffffff82169050919050565b6000819050919050565b60006125cd826125d4565b9050919050565b60006125df826125e6565b9050919050565b60006125f182612598565b9050919050565b82818337600083830152505050565b60005b8381101561262557808201518184015260208101905061260a565b83811115612634576000848401525b50505050565b6000601f19601f8301169050919050565b61265481612570565b811461265f57600080fd5b50565b61266b81612582565b811461267657600080fd5b50565b6126828161258e565b811461268d57600080fd5b50565b612699816125b8565b81146126a457600080fd5b5056fea2646970667358221220d7a152ab23ffa176346301bd403bb93395f8fd07bafc38505a8ad2159d4b052864736f6c63430007010033",
  "immutableReferences": {},
  "source": "pragma solidity ^0.7.1;\npragma experimental ABIEncoderV2;\n\nimport \"./Intex.sol\";\nimport \"@openzeppelin/contracts/math/SafeMath.sol\";\n\n/// @dev Data Intelligence Exchange\ncontract Exchange {\n    using SafeMath for uint256;\n\n    /// @dev Owner of the contract\n    address public owner;\n\n    /// @dev Intex Token\n    Intex private token;\n\n    /// @dev Provider of data intelligence\n    struct Provider {\n        address addr;\n        bytes32 name;\n    }\n    address[] public providerAddresses;\n    mapping (address => Provider) public providerByAddress;\n    mapping (bytes32 => address) public providerAddressByName;\n\n    /// @dev Data Intelligence\n    struct DataIntelligence {\n        uint256 timestamp;\n        bytes source;\n        uint256 type_;\n        bytes data;\n    }\n    /// @dev Each provider has mapping to access Data Intelligence\n    mapping (address => bytes32[]) public dataIntelligenceHashes;\n    mapping (address => mapping (bytes32 => DataIntelligence)) public dataIntelligenceByHash;\n\n    /// @dev Price to add Data Intelligence\n    uint256 public addDataIntelligencePrice;\n\n    struct DataIntelligenceCheck {\n        address checker;\n        uint256 timestamp;\n        address provider;\n        bytes32 dataHash;\n    }\n    mapping (bytes32 => DataIntelligenceCheck) public checkByHash;\n\n    /// @dev Pass the Intex Token contract address\n    constructor(Intex _token)\n    {\n        owner = msg.sender;\n        token = _token;\n        addDataIntelligencePrice = uint256(1 * (10**3) * (10**18));\n    }\n\n    /// @dev Register sender as provider\n    function registerAsProvider(bytes32 name) external\n    {\n        require(providerByAddress[msg.sender].addr == address(0), \"Provider address already registered\");\n        require(providerAddressByName[name] == address(0), \"Provider name already registered\");\n\n        // Register provider\n        providerAddresses.push(msg.sender);\n        providerByAddress[msg.sender] = Provider(msg.sender, name);\n        providerAddressByName[name] = msg.sender;\n    }\n\n    /// @dev Get all providers\n    function getAllProviders() view external returns (Provider[] memory)\n    {\n        uint count = providerAddresses.length;\n        Provider[] memory _providers = new Provider[](count);\n        for (uint i=0; i<count; i++)\n        {\n            _providers[i] = providerByAddress[providerAddresses[i]];\n        }\n        return _providers;\n    }\n\n    /// @dev Providers can add (or update) Data Intelligence\n    /// TODO: Add a second method that takes hash as a parameter\n    function addDataIntelligence(bytes calldata dataSource, uint256 dataType, bytes calldata dataIntelligence) external\n    {\n        require(dataSource.length < 256, \"Data source length must be less than 256\");\n        bytes32 hash = keccak256(dataSource);\n\n        Provider memory provider = providerByAddress[msg.sender];\n        require(provider.addr == msg.sender, \"Sender must be provider\");\n\n        require(token.balanceOf(msg.sender) >= addDataIntelligencePrice, \"Unsufficient funds\");\n\n        // Store Data Intelligence\n        dataIntelligenceHashes[msg.sender].push(hash);\n        dataIntelligenceByHash[msg.sender][hash] = DataIntelligence(block.timestamp, dataSource, dataType, dataIntelligence);\n\n        // Payment\n        // Tokens do not burn, they are sent to owner!\n        token.transferFrom(msg.sender, owner, addDataIntelligencePrice);\n    }\n\n    /// @dev Get Data Intelligences of provider\n    function getDataIntelligences(address provider) view external returns (DataIntelligence[] memory)\n    {\n        uint count = dataIntelligenceHashes[provider].length;\n        DataIntelligence[] memory dataIntelligences = new DataIntelligence[](count);\n        for (uint i=0; i<count; i++)\n        {\n            dataIntelligences[i] = dataIntelligenceByHash[provider][dataIntelligenceHashes[provider][i]];\n        }\n        return dataIntelligences;\n    }\n\n    /// @dev Check Data Intelligence\n    function checkDataIntelligence(bytes32 checkHash, address provider, bytes32 dataHash) external\n    {\n        checkByHash[checkHash] = DataIntelligenceCheck(msg.sender, block.timestamp, provider, dataHash);\n\n        // Payment\n        uint256 oneHundred = uint256(1 * (10**2) * (10**18));\n        token.transferFrom(msg.sender, provider, oneHundred);\n    }\n\n    /// @dev Reward checker & provider for service\n    function reward(bytes32 checkHash, uint256 providerReward, uint256 checkerReward) public\n    {\n        require(token.balanceOf(msg.sender) >= providerReward.add(checkerReward), \"Unsufficient funds\");\n\n        DataIntelligenceCheck memory dataIntelligenceCheck = checkByHash[checkHash];\n        require(dataIntelligenceCheck.checker != address(0), \"Cannot find checker\");\n        require(dataIntelligenceCheck.provider != address(0), \"Cannot find provider\");\n\n        // Reward checker\n        token.transferFrom(msg.sender, dataIntelligenceCheck.checker, checkerReward);\n\n        // Reward provider\n        token.transferFrom(msg.sender, dataIntelligenceCheck.provider, providerReward);\n    }\n}\n",
  "sourcePath": "/home/irenee/work/dev/blockchain/adchain/contracts/Exchange.sol",
  "compiler": {
    "name": "solc",
    "version": "0.7.1+commit.f4a555be.Emscripten.clang"
  },
  "schemaVersion": "3.2.4",
  "updatedAt": "2020-11-24T21:08:44.041Z",
  "networkType": "ethereum",
  "devdoc": {
    "details": "Data Intelligence Exchange",
    "kind": "dev",
    "methods": {
      "addDataIntelligence(bytes,uint256,bytes)": {
        "details": "Providers can add (or update) Data Intelligence TODO: Add a second method that takes hash as a parameter"
      },
      "checkDataIntelligence(bytes32,address,bytes32)": {
        "details": "Check Data Intelligence"
      },
      "constructor": {
        "details": "Pass the Intex Token contract address"
      },
      "getAllProviders()": {
        "details": "Get all providers"
      },
      "getDataIntelligences(address)": {
        "details": "Get Data Intelligences of provider"
      },
      "registerAsProvider(bytes32)": {
        "details": "Register sender as provider"
      },
      "reward(bytes32,uint256,uint256)": {
        "details": "Reward checker & provider for service"
      }
    },
    "stateVariables": {
      "addDataIntelligencePrice": {
        "details": "Price to add Data Intelligence"
      },
      "dataIntelligenceHashes": {
        "details": "Each provider has mapping to access Data Intelligence"
      },
      "owner": {
        "details": "Owner of the contract"
      },
      "token": {
        "details": "Intex Token"
      }
    },
    "version": 1
  },
  "userdoc": {
    "kind": "user",
    "methods": {},
    "version": 1
  }
}