{
  "contractName": "Exchange",
  "abi": [
    {
      "inputs": [
        {
          "internalType": "contract Intex",
          "name": "_token",
          "type": "address"
        }
      ],
      "stateMutability": "nonpayable",
      "type": "constructor"
    },
    {
      "inputs": [
        {
          "internalType": "bytes32",
          "name": "",
          "type": "bytes32"
        }
      ],
      "name": "checkByHash",
      "outputs": [
        {
          "internalType": "address",
          "name": "checker",
          "type": "address"
        },
        {
          "internalType": "uint256",
          "name": "timestamp",
          "type": "uint256"
        },
        {
          "internalType": "address",
          "name": "provider",
          "type": "address"
        },
        {
          "internalType": "bytes32",
          "name": "dataHash",
          "type": "bytes32"
        }
      ],
      "stateMutability": "view",
      "type": "function",
      "constant": true
    },
    {
      "inputs": [
        {
          "internalType": "address",
          "name": "",
          "type": "address"
        },
        {
          "internalType": "bytes32",
          "name": "",
          "type": "bytes32"
        }
      ],
      "name": "dataByHash",
      "outputs": [
        {
          "internalType": "address",
          "name": "provider",
          "type": "address"
        },
        {
          "internalType": "uint256",
          "name": "timestamp",
          "type": "uint256"
        },
        {
          "internalType": "uint256",
          "name": "type_",
          "type": "uint256"
        },
        {
          "internalType": "uint256",
          "name": "format",
          "type": "uint256"
        },
        {
          "internalType": "bytes",
          "name": "data",
          "type": "bytes"
        }
      ],
      "stateMutability": "view",
      "type": "function",
      "constant": true
    },
    {
      "inputs": [],
      "name": "owner",
      "outputs": [
        {
          "internalType": "address",
          "name": "",
          "type": "address"
        }
      ],
      "stateMutability": "view",
      "type": "function",
      "constant": true
    },
    {
      "inputs": [
        {
          "internalType": "bytes32",
          "name": "",
          "type": "bytes32"
        }
      ],
      "name": "providerAddressByName",
      "outputs": [
        {
          "internalType": "address",
          "name": "",
          "type": "address"
        }
      ],
      "stateMutability": "view",
      "type": "function",
      "constant": true
    },
    {
      "inputs": [
        {
          "internalType": "uint256",
          "name": "",
          "type": "uint256"
        }
      ],
      "name": "providerAddresses",
      "outputs": [
        {
          "internalType": "address",
          "name": "",
          "type": "address"
        }
      ],
      "stateMutability": "view",
      "type": "function",
      "constant": true
    },
    {
      "inputs": [
        {
          "internalType": "address",
          "name": "",
          "type": "address"
        }
      ],
      "name": "providerByAddress",
      "outputs": [
        {
          "internalType": "address",
          "name": "addr",
          "type": "address"
        },
        {
          "internalType": "bytes32",
          "name": "name",
          "type": "bytes32"
        }
      ],
      "stateMutability": "view",
      "type": "function",
      "constant": true
    },
    {
      "inputs": [
        {
          "internalType": "bytes32",
          "name": "name",
          "type": "bytes32"
        }
      ],
      "name": "registerAsProvider",
      "outputs": [],
      "stateMutability": "nonpayable",
      "type": "function"
    },
    {
      "inputs": [],
      "name": "getAllProviders",
      "outputs": [
        {
          "components": [
            {
              "internalType": "address",
              "name": "addr",
              "type": "address"
            },
            {
              "internalType": "bytes32",
              "name": "name",
              "type": "bytes32"
            }
          ],
          "internalType": "struct Exchange.Provider[]",
          "name": "",
          "type": "tuple[]"
        }
      ],
      "stateMutability": "view",
      "type": "function",
      "constant": true
    },
    {
      "inputs": [
        {
          "internalType": "bytes32",
          "name": "_hash",
          "type": "bytes32"
        },
        {
          "internalType": "uint256",
          "name": "_type",
          "type": "uint256"
        },
        {
          "internalType": "uint256",
          "name": "_format",
          "type": "uint256"
        },
        {
          "internalType": "bytes",
          "name": "_data",
          "type": "bytes"
        }
      ],
      "name": "addDataIntelligence",
      "outputs": [],
      "stateMutability": "nonpayable",
      "type": "function"
    },
    {
      "inputs": [
        {
          "internalType": "bytes32",
          "name": "checkHash",
          "type": "bytes32"
        },
        {
          "internalType": "address",
          "name": "provider",
          "type": "address"
        },
        {
          "internalType": "bytes32",
          "name": "dataHash",
          "type": "bytes32"
        }
      ],
      "name": "checkDataIntelligence",
      "outputs": [],
      "stateMutability": "nonpayable",
      "type": "function"
    },
    {
      "inputs": [
        {
          "internalType": "bytes32",
          "name": "checkHash",
          "type": "bytes32"
        },
        {
          "internalType": "uint256",
          "name": "providerReward",
          "type": "uint256"
        },
        {
          "internalType": "uint256",
          "name": "checkerReward",
          "type": "uint256"
        }
      ],
      "name": "reward",
      "outputs": [],
      "stateMutability": "nonpayable",
      "type": "function"
    }
  ],
  "bytecode": "0x60806040523480156200001157600080fd5b5060405162002382380380620023828339818101604052810190620000379190620000d6565b336000806101000a81548173ffffffffffffffffffffffffffffffffffffffff021916908373ffffffffffffffffffffffffffffffffffffffff16021790555080600160006101000a81548173ffffffffffffffffffffffffffffffffffffffff021916908373ffffffffffffffffffffffffffffffffffffffff1602179055505062000164565b600081519050620000d0816200014a565b92915050565b600060208284031215620000e957600080fd5b6000620000f984828501620000bf565b91505092915050565b60006200010f826200012a565b9050919050565b6000620001238262000102565b9050919050565b600073ffffffffffffffffffffffffffffffffffffffff82169050919050565b620001558162000116565b81146200016157600080fd5b50565b61220e80620001746000396000f3fe608060405234801561001057600080fd5b50600436106100a95760003560e01c8063618dd9a811610071578063618dd9a8146101685780638da5cb5b146101985780639901e6f0146101b6578063c234ba76146101d2578063e6fe61ab146101ee578063f00002e31461021f576100a9565b80631bb4d049146100ae5780632e673800146100ca5780633bb4497c146100fa578063434840ba146101185780635e86162114610134575b600080fd5b6100c860048036038101906100c391906119d4565b610252565b005b6100e460048036038101906100df919061195c565b610817565b6040516100f19190611e13565b60405180910390f35b61010261084a565b60405161010f9190611f48565b60405180910390f35b610132600480360381019061012d9190611a23565b6109c5565b005b61014e600480360381019061014991906118f7565b610e17565b60405161015f959493929190611eee565b60405180910390f35b610182600480360381019061017d9190611aa3565b610f12565b60405161018f9190611e13565b60405180910390f35b6101a0610f4e565b6040516101ad9190611e13565b60405180910390f35b6101d060048036038101906101cb919061195c565b610f72565b005b6101ec60048036038101906101e79190611985565b61125b565b005b610208600480360381019061020391906118ce565b6115a6565b604051610216929190611e80565b60405180910390f35b6102396004803603810190610234919061195c565b6115ea565b6040516102499493929190611ea9565b60405180910390f35b610265818361165a90919063ffffffff16565b600160009054906101000a900473ffffffffffffffffffffffffffffffffffffffff1673ffffffffffffffffffffffffffffffffffffffff166370a08231336040518263ffffffff1660e01b81526004016102c09190611e2e565b60206040518083038186803b1580156102d857600080fd5b505afa1580156102ec573d6000803e3d6000fd5b505050506040513d601f19601f820116820180604052508101906103109190611acc565b1015610351576040517f08c379a00000000000000000000000000000000000000000000000000000000081526004016103489061200a565b60405180910390fd5b6103596116af565b600660008581526020019081526020016000206040518060800160405290816000820160009054906101000a900473ffffffffffffffffffffffffffffffffffffffff1673ffffffffffffffffffffffffffffffffffffffff1673ffffffffffffffffffffffffffffffffffffffff168152602001600182015481526020016002820160009054906101000a900473ffffffffffffffffffffffffffffffffffffffff1673ffffffffffffffffffffffffffffffffffffffff1673ffffffffffffffffffffffffffffffffffffffff1681526020016003820154815250509050600073ffffffffffffffffffffffffffffffffffffffff16816000015173ffffffffffffffffffffffffffffffffffffffff1614156104ad576040517f08c379a00000000000000000000000000000000000000000000000000000000081526004016104a490611fea565b60405180910390fd5b600160009054906101000a900473ffffffffffffffffffffffffffffffffffffffff1673ffffffffffffffffffffffffffffffffffffffff166323b872dd338360000151856040518463ffffffff1660e01b815260040161051093929190611e49565b602060405180830381600087803b15801561052a57600080fd5b505af115801561053e573d6000803e3d6000fd5b505050506040513d601f19601f820116820180604052508101906105629190611933565b5061056b611706565b60056000836040015173ffffffffffffffffffffffffffffffffffffffff1673ffffffffffffffffffffffffffffffffffffffff1681526020019081526020016000206000836060015181526020019081526020016000206040518060a00160405290816000820160009054906101000a900473ffffffffffffffffffffffffffffffffffffffff1673ffffffffffffffffffffffffffffffffffffffff1673ffffffffffffffffffffffffffffffffffffffff168152602001600182015481526020016002820154815260200160038201548152602001600482018054600181600116156101000203166002900480601f0160208091040260200160405190810160405280929190818152602001828054600181600116156101000203166002900480156106db5780601f106106b0576101008083540402835291602001916106db565b820191906000526020600020905b8154815290600101906020018083116106be57829003601f168201915b5050505050815250509050600073ffffffffffffffffffffffffffffffffffffffff16816000015173ffffffffffffffffffffffffffffffffffffffff16141561075a576040517f08c379a000000000000000000000000000000000000000000000000000000000815260040161075190611f6a565b60405180910390fd5b600160009054906101000a900473ffffffffffffffffffffffffffffffffffffffff1673ffffffffffffffffffffffffffffffffffffffff166323b872dd338360000151876040518463ffffffff1660e01b81526004016107bd93929190611e49565b602060405180830381600087803b1580156107d757600080fd5b505af11580156107eb573d6000803e3d6000fd5b505050506040513d601f19601f8201168201806040525081019061080f9190611933565b505050505050565b60046020528060005260406000206000915054906101000a900473ffffffffffffffffffffffffffffffffffffffff1681565b60606000600280549050905060608167ffffffffffffffff8111801561086f57600080fd5b506040519080825280602002602001820160405280156108a957816020015b61089661174b565b81526020019060019003908161088e5790505b50905060005b828110156109bc5760036000600283815481106108c857fe5b9060005260206000200160009054906101000a900473ffffffffffffffffffffffffffffffffffffffff1673ffffffffffffffffffffffffffffffffffffffff1673ffffffffffffffffffffffffffffffffffffffff1681526020019081526020016000206040518060400160405290816000820160009054906101000a900473ffffffffffffffffffffffffffffffffffffffff1673ffffffffffffffffffffffffffffffffffffffff1673ffffffffffffffffffffffffffffffffffffffff1681526020016001820154815250508282815181106109a457fe5b602002602001018190525080806001019150506108af565b50809250505090565b6000683635c9adc5dea0000090506109db61174b565b600360003373ffffffffffffffffffffffffffffffffffffffff1673ffffffffffffffffffffffffffffffffffffffff1681526020019081526020016000206040518060400160405290816000820160009054906101000a900473ffffffffffffffffffffffffffffffffffffffff1673ffffffffffffffffffffffffffffffffffffffff1673ffffffffffffffffffffffffffffffffffffffff16815260200160018201548152505090503373ffffffffffffffffffffffffffffffffffffffff16816000015173ffffffffffffffffffffffffffffffffffffffff1614610af9576040517f08c379a0000000000000000000000000000000000000000000000000000000008152600401610af090611faa565b60405180910390fd5b81600160009054906101000a900473ffffffffffffffffffffffffffffffffffffffff1673ffffffffffffffffffffffffffffffffffffffff166370a08231336040518263ffffffff1660e01b8152600401610b559190611e2e565b60206040518083038186803b158015610b6d57600080fd5b505afa158015610b81573d6000803e3d6000fd5b505050506040513d601f19601f82011682018060405250810190610ba59190611acc565b1015610be6576040517f08c379a0000000000000000000000000000000000000000000000000000000008152600401610bdd9061200a565b60405180910390fd5b6040518060a001604052803373ffffffffffffffffffffffffffffffffffffffff16815260200142815260200187815260200186815260200185858080601f016020809104026020016040519081016040528093929190818152602001838380828437600081840152601f19601f82011690508083019250505050505050815250600560003373ffffffffffffffffffffffffffffffffffffffff1673ffffffffffffffffffffffffffffffffffffffff168152602001908152602001600020600089815260200190815260200160002060008201518160000160006101000a81548173ffffffffffffffffffffffffffffffffffffffff021916908373ffffffffffffffffffffffffffffffffffffffff1602179055506020820151816001015560408201518160020155606082015181600301556080820151816004019080519060200190610d3892919061177e565b50905050600160009054906101000a900473ffffffffffffffffffffffffffffffffffffffff1673ffffffffffffffffffffffffffffffffffffffff166323b872dd3360008054906101000a900473ffffffffffffffffffffffffffffffffffffffff16856040518463ffffffff1660e01b8152600401610dbb93929190611e49565b602060405180830381600087803b158015610dd557600080fd5b505af1158015610de9573d6000803e3d6000fd5b505050506040513d601f19601f82011682018060405250810190610e0d9190611933565b5050505050505050565b6005602052816000526040600020602052806000526040600020600091509150508060000160009054906101000a900473ffffffffffffffffffffffffffffffffffffffff1690806001015490806002015490806003015490806004018054600181600116156101000203166002900480601f016020809104026020016040519081016040528092919081815260200182805460018160011615610100020316600290048015610f085780601f10610edd57610100808354040283529160200191610f08565b820191906000526020600020905b815481529060010190602001808311610eeb57829003601f168201915b5050505050905085565b60028181548110610f1f57fe5b906000526020600020016000915054906101000a900473ffffffffffffffffffffffffffffffffffffffff1681565b60008054906101000a900473ffffffffffffffffffffffffffffffffffffffff1681565b600073ffffffffffffffffffffffffffffffffffffffff16600360003373ffffffffffffffffffffffffffffffffffffffff1673ffffffffffffffffffffffffffffffffffffffff16815260200190815260200160002060000160009054906101000a900473ffffffffffffffffffffffffffffffffffffffff1673ffffffffffffffffffffffffffffffffffffffff1614611043576040517f08c379a000000000000000000000000000000000000000000000000000000000815260040161103a90611f8a565b60405180910390fd5b600073ffffffffffffffffffffffffffffffffffffffff166004600083815260200190815260200160002060009054906101000a900473ffffffffffffffffffffffffffffffffffffffff1673ffffffffffffffffffffffffffffffffffffffff16146110e5576040517f08c379a00000000000000000000000000000000000000000000000000000000081526004016110dc9061202a565b60405180910390fd5b6002339080600181540180825580915050600190039060005260206000200160009091909190916101000a81548173ffffffffffffffffffffffffffffffffffffffff021916908373ffffffffffffffffffffffffffffffffffffffff16021790555060405180604001604052803373ffffffffffffffffffffffffffffffffffffffff16815260200182815250600360003373ffffffffffffffffffffffffffffffffffffffff1673ffffffffffffffffffffffffffffffffffffffff16815260200190815260200160002060008201518160000160006101000a81548173ffffffffffffffffffffffffffffffffffffffff021916908373ffffffffffffffffffffffffffffffffffffffff16021790555060208201518160010155905050336004600083815260200190815260200160002060006101000a81548173ffffffffffffffffffffffffffffffffffffffff021916908373ffffffffffffffffffffffffffffffffffffffff16021790555050565b611263611706565b600560008473ffffffffffffffffffffffffffffffffffffffff1673ffffffffffffffffffffffffffffffffffffffff16815260200190815260200160002060008381526020019081526020016000206040518060a00160405290816000820160009054906101000a900473ffffffffffffffffffffffffffffffffffffffff1673ffffffffffffffffffffffffffffffffffffffff1673ffffffffffffffffffffffffffffffffffffffff168152602001600182015481526020016002820154815260200160038201548152602001600482018054600181600116156101000203166002900480601f0160208091040260200160405190810160405280929190818152602001828054600181600116156101000203166002900480156113cb5780601f106113a0576101008083540402835291602001916113cb565b820191906000526020600020905b8154815290600101906020018083116113ae57829003601f168201915b505050505081525050905060405180608001604052803373ffffffffffffffffffffffffffffffffffffffff1681526020014281526020018473ffffffffffffffffffffffffffffffffffffffff168152602001838152506006600086815260200190815260200160002060008201518160000160006101000a81548173ffffffffffffffffffffffffffffffffffffffff021916908373ffffffffffffffffffffffffffffffffffffffff1602179055506020820151816001015560408201518160020160006101000a81548173ffffffffffffffffffffffffffffffffffffffff021916908373ffffffffffffffffffffffffffffffffffffffff16021790555060608201518160030155905050600068056bc75e2d631000009050600160009054906101000a900473ffffffffffffffffffffffffffffffffffffffff1673ffffffffffffffffffffffffffffffffffffffff166323b872dd338460000151846040518463ffffffff1660e01b815260040161154c93929190611e49565b602060405180830381600087803b15801561156657600080fd5b505af115801561157a573d6000803e3d6000fd5b505050506040513d601f19601f8201168201806040525081019061159e9190611933565b505050505050565b60036020528060005260406000206000915090508060000160009054906101000a900473ffffffffffffffffffffffffffffffffffffffff16908060010154905082565b60066020528060005260406000206000915090508060000160009054906101000a900473ffffffffffffffffffffffffffffffffffffffff16908060010154908060020160009054906101000a900473ffffffffffffffffffffffffffffffffffffffff16908060030154905084565b6000808284019050838110156116a5576040517f08c379a000000000000000000000000000000000000000000000000000000000815260040161169c90611fca565b60405180910390fd5b8091505092915050565b6040518060800160405280600073ffffffffffffffffffffffffffffffffffffffff16815260200160008152602001600073ffffffffffffffffffffffffffffffffffffffff168152602001600080191681525090565b6040518060a00160405280600073ffffffffffffffffffffffffffffffffffffffff168152602001600081526020016000815260200160008152602001606081525090565b6040518060400160405280600073ffffffffffffffffffffffffffffffffffffffff168152602001600080191681525090565b828054600181600116156101000203166002900490600052602060002090601f016020900481019282601f106117bf57805160ff19168380011785556117ed565b828001600101855582156117ed579182015b828111156117ec5782518255916020019190600101906117d1565b5b5090506117fa91906117fe565b5090565b5b808211156118175760008160009055506001016117ff565b5090565b60008135905061182a8161217c565b92915050565b60008151905061183f81612193565b92915050565b600081359050611854816121aa565b92915050565b60008083601f84011261186c57600080fd5b8235905067ffffffffffffffff81111561188557600080fd5b60208301915083600182028301111561189d57600080fd5b9250929050565b6000813590506118b3816121c1565b92915050565b6000815190506118c8816121c1565b92915050565b6000602082840312156118e057600080fd5b60006118ee8482850161181b565b91505092915050565b6000806040838503121561190a57600080fd5b60006119188582860161181b565b925050602061192985828601611845565b9150509250929050565b60006020828403121561194557600080fd5b600061195384828501611830565b91505092915050565b60006020828403121561196e57600080fd5b600061197c84828501611845565b91505092915050565b60008060006060848603121561199a57600080fd5b60006119a886828701611845565b93505060206119b98682870161181b565b92505060406119ca86828701611845565b9150509250925092565b6000806000606084860312156119e957600080fd5b60006119f786828701611845565b9350506020611a08868287016118a4565b9250506040611a19868287016118a4565b9150509250925092565b600080600080600060808688031215611a3b57600080fd5b6000611a4988828901611845565b9550506020611a5a888289016118a4565b9450506040611a6b888289016118a4565b935050606086013567ffffffffffffffff811115611a8857600080fd5b611a948882890161185a565b92509250509295509295909350565b600060208284031215611ab557600080fd5b6000611ac3848285016118a4565b91505092915050565b600060208284031215611ade57600080fd5b6000611aec848285016118b9565b91505092915050565b6000611b018383611dd5565b60408301905092915050565b611b1681612102565b82525050565b611b25816120b0565b82525050565b611b34816120b0565b82525050565b6000611b458261205a565b611b4f818561207d565b9350611b5a8361204a565b8060005b83811015611b8b578151611b728882611af5565b9750611b7d83612070565b925050600181019050611b5e565b5085935050505092915050565b611ba1816120ce565b82525050565b611bb0816120ce565b82525050565b6000611bc182612065565b611bcb818561208e565b9350611bdb818560208601612138565b611be48161216b565b840191505092915050565b6000611bfc60148361209f565b91507f43616e6e6f742066696e642070726f76696465720000000000000000000000006000830152602082019050919050565b6000611c3c60238361209f565b91507f50726f7669646572206164647265737320616c7265616479207265676973746560008301527f72656400000000000000000000000000000000000000000000000000000000006020830152604082019050919050565b6000611ca260178361209f565b91507f53656e646572206d7573742062652070726f76696465720000000000000000006000830152602082019050919050565b6000611ce2601b8361209f565b91507f536166654d6174683a206164646974696f6e206f766572666c6f7700000000006000830152602082019050919050565b6000611d2260138361209f565b91507f43616e6e6f742066696e6420636865636b6572000000000000000000000000006000830152602082019050919050565b6000611d6260128361209f565b91507f556e73756666696369656e742066756e647300000000000000000000000000006000830152602082019050919050565b6000611da260208361209f565b91507f50726f7669646572206e616d6520616c726561647920726567697374657265646000830152602082019050919050565b604082016000820151611deb6000850182611b1c565b506020820151611dfe6020850182611b98565b50505050565b611e0d816120f8565b82525050565b6000602082019050611e286000830184611b2b565b92915050565b6000602082019050611e436000830184611b0d565b92915050565b6000606082019050611e5e6000830186611b0d565b611e6b6020830185611b2b565b611e786040830184611e04565b949350505050565b6000604082019050611e956000830185611b2b565b611ea26020830184611ba7565b9392505050565b6000608082019050611ebe6000830187611b2b565b611ecb6020830186611e04565b611ed86040830185611b2b565b611ee56060830184611ba7565b95945050505050565b600060a082019050611f036000830188611b2b565b611f106020830187611e04565b611f1d6040830186611e04565b611f2a6060830185611e04565b8181036080830152611f3c8184611bb6565b90509695505050505050565b60006020820190508181036000830152611f628184611b3a565b905092915050565b60006020820190508181036000830152611f8381611bef565b9050919050565b60006020820190508181036000830152611fa381611c2f565b9050919050565b60006020820190508181036000830152611fc381611c95565b9050919050565b60006020820190508181036000830152611fe381611cd5565b9050919050565b6000602082019050818103600083015261200381611d15565b9050919050565b6000602082019050818103600083015261202381611d55565b9050919050565b6000602082019050818103600083015261204381611d95565b9050919050565b6000819050602082019050919050565b600081519050919050565b600081519050919050565b6000602082019050919050565b600082825260208201905092915050565b600082825260208201905092915050565b600082825260208201905092915050565b60006120bb826120d8565b9050919050565b60008115159050919050565b6000819050919050565b600073ffffffffffffffffffffffffffffffffffffffff82169050919050565b6000819050919050565b600061210d82612114565b9050919050565b600061211f82612126565b9050919050565b6000612131826120d8565b9050919050565b60005b8381101561215657808201518184015260208101905061213b565b83811115612165576000848401525b50505050565b6000601f19601f8301169050919050565b612185816120b0565b811461219057600080fd5b50565b61219c816120c2565b81146121a757600080fd5b50565b6121b3816120ce565b81146121be57600080fd5b50565b6121ca816120f8565b81146121d557600080fd5b5056fea2646970667358221220bd1215d540c0ec85f519bc794b2f0bedf50a4f15b4f4fb736377e70c3877bd1e64736f6c63430007010033",
  "immutableReferences": {},
  "source": "pragma solidity ^0.7.1;\npragma experimental ABIEncoderV2;\n\nimport \"./Intex.sol\";\nimport \"@openzeppelin/contracts/math/SafeMath.sol\";\n\n/// @dev Data Intelligence Exchange\ncontract Exchange {\n    using SafeMath for uint256;\n\n    /// @dev Owner of the contract\n    address public owner;\n\n    /// @dev Intex Token\n    Intex private token;\n\n    /// @dev Provider of data intelligence\n    struct Provider {\n        address addr;\n        bytes32 name;\n    }\n    address[] public providerAddresses;\n    mapping (address => Provider) public providerByAddress;\n    mapping (bytes32 => address) public providerAddressByName;\n\n    /// @dev Data Intelligence\n    struct DataIntelligence {\n        address provider;\n        uint256 timestamp;\n        uint256 type_;\n        uint256 format;\n        bytes data;\n    }\n    /// @dev Data Intelligence is stored in a data by hash mapping that is unique to each provider.\n    mapping (address => mapping (bytes32 => DataIntelligence)) public dataByHash;\n\n    struct DataIntelligenceCheck {\n        address checker;\n        uint256 timestamp;\n        address provider;\n        bytes32 dataHash;\n    }\n    mapping (bytes32 => DataIntelligenceCheck) public checkByHash;\n\n    /// @dev Pass the Intex Token contract address\n    constructor(Intex _token)\n    {\n        owner = msg.sender;\n        token = _token;\n    }\n\n    /// @dev Register sender as provider\n    function registerAsProvider(bytes32 name) external\n    {\n        require(providerByAddress[msg.sender].addr == address(0), \"Provider address already registered\");\n        require(providerAddressByName[name] == address(0), \"Provider name already registered\");\n\n        // Register provider\n        providerAddresses.push(msg.sender);\n        providerByAddress[msg.sender] = Provider(msg.sender, name);\n        providerAddressByName[name] = msg.sender;\n    }\n\n    /// @dev Get all providers\n    function getAllProviders() view external returns (Provider[] memory)\n    {\n        uint count = providerAddresses.length;\n        Provider[] memory _providers = new Provider[](count);\n        for (uint i=0; i<count; i++)\n        {\n            _providers[i] = providerByAddress[providerAddresses[i]];\n        }\n        return _providers;\n    }\n\n    /// @dev Providers can add (or update) Data Intelligence\n    function addDataIntelligence(bytes32 _hash, uint256 _type, uint256 _format, bytes calldata _data) external\n    {\n        uint256 oneThousand = uint256(1 * (10**3) * (10**18));\n\n        Provider memory provider = providerByAddress[msg.sender];\n\n        require(provider.addr == msg.sender, \"Sender must be provider\");\n        require(token.balanceOf(msg.sender) >= oneThousand, \"Unsufficient funds\");\n\n        // Store Data Intelligence\n        dataByHash[msg.sender][_hash] = DataIntelligence(msg.sender, block.timestamp, _type, _format, _data);\n\n        // Payment\n        // Tokens do not burn, they are sent to owner!\n        token.transferFrom(msg.sender, owner, oneThousand);\n    }\n\n    /// @dev Check Data Intelligence\n    function checkDataIntelligence(bytes32 checkHash, address provider, bytes32 dataHash) external\n    {\n        DataIntelligence memory dataIntelligence = dataByHash[provider][dataHash];\n\n        checkByHash[checkHash] = DataIntelligenceCheck(msg.sender, block.timestamp, provider, dataHash);\n\n        // Payment\n        uint256 oneHundred = uint256(1 * (10**2) * (10**18));\n        token.transferFrom(msg.sender, dataIntelligence.provider, oneHundred);\n    }\n\n    /// @dev Reward checker & provider for service\n    function reward(bytes32 checkHash, uint256 providerReward, uint256 checkerReward) public\n    {\n        require(token.balanceOf(msg.sender) >= providerReward.add(checkerReward), \"Unsufficient funds\");\n\n        // Reward checker\n        DataIntelligenceCheck memory dataIntelligenceCheck = checkByHash[checkHash];\n        require(dataIntelligenceCheck.checker != address(0), \"Cannot find checker\");\n\n        token.transferFrom(msg.sender, dataIntelligenceCheck.checker, checkerReward);\n\n        // Reward provider\n        DataIntelligence memory dataIntelligence = dataByHash[dataIntelligenceCheck.provider][dataIntelligenceCheck.dataHash];\n        require(dataIntelligence.provider != address(0), \"Cannot find provider\");\n\n        token.transferFrom(msg.sender, dataIntelligence.provider, providerReward);\n    }\n}\n",
  "sourcePath": "/home/irenee/work/dev/blockchain/adchain/contracts/Exchange.sol",
  "compiler": {
    "name": "solc",
    "version": "0.7.1+commit.f4a555be.Emscripten.clang"
  },
  "schemaVersion": "3.2.4",
  "updatedAt": "2020-11-03T20:21:07.504Z",
  "networkType": "ethereum",
  "devdoc": {
    "details": "Data Intelligence Exchange",
    "kind": "dev",
    "methods": {
      "addDataIntelligence(bytes32,uint256,uint256,bytes)": {
        "details": "Providers can add (or update) Data Intelligence"
      },
      "checkDataIntelligence(bytes32,address,bytes32)": {
        "details": "Check Data Intelligence"
      },
      "constructor": {
        "details": "Pass the Intex Token contract address"
      },
      "getAllProviders()": {
        "details": "Get all providers"
      },
      "registerAsProvider(bytes32)": {
        "details": "Register sender as provider"
      },
      "reward(bytes32,uint256,uint256)": {
        "details": "Reward checker & provider for service"
      }
    },
    "stateVariables": {
      "dataByHash": {
        "details": "Data Intelligence is stored in a data by hash mapping that is unique to each provider."
      },
      "owner": {
        "details": "Owner of the contract"
      },
      "token": {
        "details": "Intex Token"
      }
    },
    "version": 1
  },
  "userdoc": {
    "kind": "user",
    "methods": {},
    "version": 1
  }
}