{
  "contractName": "Exchange",
  "abi": [
    {
      "inputs": [
        {
          "internalType": "contract Intex",
          "name": "_token",
          "type": "address"
        }
      ],
      "stateMutability": "nonpayable",
      "type": "constructor"
    },
    {
      "inputs": [
        {
          "internalType": "bytes32",
          "name": "",
          "type": "bytes32"
        }
      ],
      "name": "checkByHash",
      "outputs": [
        {
          "internalType": "address",
          "name": "checker",
          "type": "address"
        },
        {
          "internalType": "uint256",
          "name": "timestamp",
          "type": "uint256"
        },
        {
          "internalType": "address",
          "name": "provider",
          "type": "address"
        },
        {
          "internalType": "bytes32",
          "name": "dataHash",
          "type": "bytes32"
        }
      ],
      "stateMutability": "view",
      "type": "function",
      "constant": true
    },
    {
      "inputs": [
        {
          "internalType": "address",
          "name": "",
          "type": "address"
        },
        {
          "internalType": "bytes32",
          "name": "",
          "type": "bytes32"
        }
      ],
      "name": "dataIntelligenceByHash",
      "outputs": [
        {
          "internalType": "address",
          "name": "provider",
          "type": "address"
        },
        {
          "internalType": "uint256",
          "name": "timestamp",
          "type": "uint256"
        },
        {
          "internalType": "uint256",
          "name": "type_",
          "type": "uint256"
        },
        {
          "internalType": "uint256",
          "name": "format",
          "type": "uint256"
        },
        {
          "internalType": "bytes",
          "name": "data",
          "type": "bytes"
        }
      ],
      "stateMutability": "view",
      "type": "function",
      "constant": true
    },
    {
      "inputs": [
        {
          "internalType": "address",
          "name": "",
          "type": "address"
        },
        {
          "internalType": "uint256",
          "name": "",
          "type": "uint256"
        }
      ],
      "name": "dataIntelligenceHashes",
      "outputs": [
        {
          "internalType": "bytes32",
          "name": "",
          "type": "bytes32"
        }
      ],
      "stateMutability": "view",
      "type": "function",
      "constant": true
    },
    {
      "inputs": [],
      "name": "owner",
      "outputs": [
        {
          "internalType": "address",
          "name": "",
          "type": "address"
        }
      ],
      "stateMutability": "view",
      "type": "function",
      "constant": true
    },
    {
      "inputs": [
        {
          "internalType": "bytes32",
          "name": "",
          "type": "bytes32"
        }
      ],
      "name": "providerAddressByName",
      "outputs": [
        {
          "internalType": "address",
          "name": "",
          "type": "address"
        }
      ],
      "stateMutability": "view",
      "type": "function",
      "constant": true
    },
    {
      "inputs": [
        {
          "internalType": "uint256",
          "name": "",
          "type": "uint256"
        }
      ],
      "name": "providerAddresses",
      "outputs": [
        {
          "internalType": "address",
          "name": "",
          "type": "address"
        }
      ],
      "stateMutability": "view",
      "type": "function",
      "constant": true
    },
    {
      "inputs": [
        {
          "internalType": "address",
          "name": "",
          "type": "address"
        }
      ],
      "name": "providerByAddress",
      "outputs": [
        {
          "internalType": "address",
          "name": "addr",
          "type": "address"
        },
        {
          "internalType": "bytes32",
          "name": "name",
          "type": "bytes32"
        }
      ],
      "stateMutability": "view",
      "type": "function",
      "constant": true
    },
    {
      "inputs": [
        {
          "internalType": "bytes32",
          "name": "name",
          "type": "bytes32"
        }
      ],
      "name": "registerAsProvider",
      "outputs": [],
      "stateMutability": "nonpayable",
      "type": "function"
    },
    {
      "inputs": [],
      "name": "getAllProviders",
      "outputs": [
        {
          "components": [
            {
              "internalType": "address",
              "name": "addr",
              "type": "address"
            },
            {
              "internalType": "bytes32",
              "name": "name",
              "type": "bytes32"
            }
          ],
          "internalType": "struct Exchange.Provider[]",
          "name": "",
          "type": "tuple[]"
        }
      ],
      "stateMutability": "view",
      "type": "function",
      "constant": true
    },
    {
      "inputs": [
        {
          "internalType": "bytes32",
          "name": "_hash",
          "type": "bytes32"
        },
        {
          "internalType": "uint256",
          "name": "_type",
          "type": "uint256"
        },
        {
          "internalType": "uint256",
          "name": "_format",
          "type": "uint256"
        },
        {
          "internalType": "bytes",
          "name": "_data",
          "type": "bytes"
        }
      ],
      "name": "addDataIntelligence",
      "outputs": [],
      "stateMutability": "nonpayable",
      "type": "function"
    },
    {
      "inputs": [
        {
          "internalType": "bytes32",
          "name": "checkHash",
          "type": "bytes32"
        },
        {
          "internalType": "address",
          "name": "provider",
          "type": "address"
        },
        {
          "internalType": "bytes32",
          "name": "dataHash",
          "type": "bytes32"
        }
      ],
      "name": "checkDataIntelligence",
      "outputs": [],
      "stateMutability": "nonpayable",
      "type": "function"
    },
    {
      "inputs": [
        {
          "internalType": "bytes32",
          "name": "checkHash",
          "type": "bytes32"
        },
        {
          "internalType": "uint256",
          "name": "providerReward",
          "type": "uint256"
        },
        {
          "internalType": "uint256",
          "name": "checkerReward",
          "type": "uint256"
        }
      ],
      "name": "reward",
      "outputs": [],
      "stateMutability": "nonpayable",
      "type": "function"
    }
  ],
  "bytecode": "0x60806040523480156200001157600080fd5b50604051620024a8380380620024a88339818101604052810190620000379190620000d6565b336000806101000a81548173ffffffffffffffffffffffffffffffffffffffff021916908373ffffffffffffffffffffffffffffffffffffffff16021790555080600160006101000a81548173ffffffffffffffffffffffffffffffffffffffff021916908373ffffffffffffffffffffffffffffffffffffffff1602179055505062000164565b600081519050620000d0816200014a565b92915050565b600060208284031215620000e957600080fd5b6000620000f984828501620000bf565b91505092915050565b60006200010f826200012a565b9050919050565b6000620001238262000102565b9050919050565b600073ffffffffffffffffffffffffffffffffffffffff82169050919050565b620001558162000116565b81146200016157600080fd5b50565b61233480620001746000396000f3fe608060405234801561001057600080fd5b50600436106100b45760003560e01c8063618dd9a811610071578063618dd9a8146101a35780638da5cb5b146101d35780639901e6f0146101f1578063c234ba761461020d578063e6fe61ab14610229578063f00002e31461025a576100b4565b80631bb4d049146100b95780632e673800146100d55780633bb4497c146101055780633d932f3414610123578063434840ba146101575780635fd9135414610173575b600080fd5b6100d360048036038101906100ce9190611adf565b61028d565b005b6100ef60048036038101906100ea9190611a67565b610852565b6040516100fc9190611f1e565b60405180910390f35b61010d610885565b60405161011a9190612053565b60405180910390f35b61013d600480360381019061013891906119c6565b610a00565b60405161014e959493929190611ff9565b60405180910390f35b610171600480360381019061016c9190611b2e565b610afb565b005b61018d60048036038101906101889190611a02565b610fb3565b60405161019a9190612075565b60405180910390f35b6101bd60048036038101906101b89190611bae565b610fe1565b6040516101ca9190611f1e565b60405180910390f35b6101db61101d565b6040516101e89190611f1e565b60405180910390f35b61020b60048036038101906102069190611a67565b611041565b005b61022760048036038101906102229190611a90565b61132a565b005b610243600480360381019061023e919061199d565b611675565b604051610251929190611f8b565b60405180910390f35b610274600480360381019061026f9190611a67565b6116b9565b6040516102849493929190611fb4565b60405180910390f35b6102a0818361172990919063ffffffff16565b600160009054906101000a900473ffffffffffffffffffffffffffffffffffffffff1673ffffffffffffffffffffffffffffffffffffffff166370a08231336040518263ffffffff1660e01b81526004016102fb9190611f39565b60206040518083038186803b15801561031357600080fd5b505afa158015610327573d6000803e3d6000fd5b505050506040513d601f19601f8201168201806040525081019061034b9190611bd7565b101561038c576040517f08c379a000000000000000000000000000000000000000000000000000000000815260040161038390612130565b60405180910390fd5b61039461177e565b600760008581526020019081526020016000206040518060800160405290816000820160009054906101000a900473ffffffffffffffffffffffffffffffffffffffff1673ffffffffffffffffffffffffffffffffffffffff1673ffffffffffffffffffffffffffffffffffffffff168152602001600182015481526020016002820160009054906101000a900473ffffffffffffffffffffffffffffffffffffffff1673ffffffffffffffffffffffffffffffffffffffff1673ffffffffffffffffffffffffffffffffffffffff1681526020016003820154815250509050600073ffffffffffffffffffffffffffffffffffffffff16816000015173ffffffffffffffffffffffffffffffffffffffff1614156104e8576040517f08c379a00000000000000000000000000000000000000000000000000000000081526004016104df90612110565b60405180910390fd5b600160009054906101000a900473ffffffffffffffffffffffffffffffffffffffff1673ffffffffffffffffffffffffffffffffffffffff166323b872dd338360000151856040518463ffffffff1660e01b815260040161054b93929190611f54565b602060405180830381600087803b15801561056557600080fd5b505af1158015610579573d6000803e3d6000fd5b505050506040513d601f19601f8201168201806040525081019061059d9190611a3e565b506105a66117d5565b60066000836040015173ffffffffffffffffffffffffffffffffffffffff1673ffffffffffffffffffffffffffffffffffffffff1681526020019081526020016000206000836060015181526020019081526020016000206040518060a00160405290816000820160009054906101000a900473ffffffffffffffffffffffffffffffffffffffff1673ffffffffffffffffffffffffffffffffffffffff1673ffffffffffffffffffffffffffffffffffffffff168152602001600182015481526020016002820154815260200160038201548152602001600482018054600181600116156101000203166002900480601f0160208091040260200160405190810160405280929190818152602001828054600181600116156101000203166002900480156107165780601f106106eb57610100808354040283529160200191610716565b820191906000526020600020905b8154815290600101906020018083116106f957829003601f168201915b5050505050815250509050600073ffffffffffffffffffffffffffffffffffffffff16816000015173ffffffffffffffffffffffffffffffffffffffff161415610795576040517f08c379a000000000000000000000000000000000000000000000000000000000815260040161078c90612090565b60405180910390fd5b600160009054906101000a900473ffffffffffffffffffffffffffffffffffffffff1673ffffffffffffffffffffffffffffffffffffffff166323b872dd338360000151876040518463ffffffff1660e01b81526004016107f893929190611f54565b602060405180830381600087803b15801561081257600080fd5b505af1158015610826573d6000803e3d6000fd5b505050506040513d601f19601f8201168201806040525081019061084a9190611a3e565b505050505050565b60046020528060005260406000206000915054906101000a900473ffffffffffffffffffffffffffffffffffffffff1681565b60606000600280549050905060608167ffffffffffffffff811180156108aa57600080fd5b506040519080825280602002602001820160405280156108e457816020015b6108d161181a565b8152602001906001900390816108c95790505b50905060005b828110156109f757600360006002838154811061090357fe5b9060005260206000200160009054906101000a900473ffffffffffffffffffffffffffffffffffffffff1673ffffffffffffffffffffffffffffffffffffffff1673ffffffffffffffffffffffffffffffffffffffff1681526020019081526020016000206040518060400160405290816000820160009054906101000a900473ffffffffffffffffffffffffffffffffffffffff1673ffffffffffffffffffffffffffffffffffffffff1673ffffffffffffffffffffffffffffffffffffffff1681526020016001820154815250508282815181106109df57fe5b602002602001018190525080806001019150506108ea565b50809250505090565b6006602052816000526040600020602052806000526040600020600091509150508060000160009054906101000a900473ffffffffffffffffffffffffffffffffffffffff1690806001015490806002015490806003015490806004018054600181600116156101000203166002900480601f016020809104026020016040519081016040528092919081815260200182805460018160011615610100020316600290048015610af15780601f10610ac657610100808354040283529160200191610af1565b820191906000526020600020905b815481529060010190602001808311610ad457829003601f168201915b5050505050905085565b6000683635c9adc5dea000009050610b1161181a565b600360003373ffffffffffffffffffffffffffffffffffffffff1673ffffffffffffffffffffffffffffffffffffffff1681526020019081526020016000206040518060400160405290816000820160009054906101000a900473ffffffffffffffffffffffffffffffffffffffff1673ffffffffffffffffffffffffffffffffffffffff1673ffffffffffffffffffffffffffffffffffffffff16815260200160018201548152505090503373ffffffffffffffffffffffffffffffffffffffff16816000015173ffffffffffffffffffffffffffffffffffffffff1614610c2f576040517f08c379a0000000000000000000000000000000000000000000000000000000008152600401610c26906120d0565b60405180910390fd5b81600160009054906101000a900473ffffffffffffffffffffffffffffffffffffffff1673ffffffffffffffffffffffffffffffffffffffff166370a08231336040518263ffffffff1660e01b8152600401610c8b9190611f39565b60206040518083038186803b158015610ca357600080fd5b505afa158015610cb7573d6000803e3d6000fd5b505050506040513d601f19601f82011682018060405250810190610cdb9190611bd7565b1015610d1c576040517f08c379a0000000000000000000000000000000000000000000000000000000008152600401610d1390612130565b60405180910390fd5b600560003373ffffffffffffffffffffffffffffffffffffffff1673ffffffffffffffffffffffffffffffffffffffff1681526020019081526020016000208790806001815401808255809150506001900390600052602060002001600090919091909150556040518060a001604052803373ffffffffffffffffffffffffffffffffffffffff16815260200142815260200187815260200186815260200185858080601f016020809104026020016040519081016040528093929190818152602001838380828437600081840152601f19601f82011690508083019250505050505050815250600660003373ffffffffffffffffffffffffffffffffffffffff1673ffffffffffffffffffffffffffffffffffffffff168152602001908152602001600020600089815260200190815260200160002060008201518160000160006101000a81548173ffffffffffffffffffffffffffffffffffffffff021916908373ffffffffffffffffffffffffffffffffffffffff1602179055506020820151816001015560408201518160020155606082015181600301556080820151816004019080519060200190610ed492919061184d565b50905050600160009054906101000a900473ffffffffffffffffffffffffffffffffffffffff1673ffffffffffffffffffffffffffffffffffffffff166323b872dd3360008054906101000a900473ffffffffffffffffffffffffffffffffffffffff16856040518463ffffffff1660e01b8152600401610f5793929190611f54565b602060405180830381600087803b158015610f7157600080fd5b505af1158015610f85573d6000803e3d6000fd5b505050506040513d601f19601f82011682018060405250810190610fa99190611a3e565b5050505050505050565b60056020528160005260406000208181548110610fcc57fe5b90600052602060002001600091509150505481565b60028181548110610fee57fe5b906000526020600020016000915054906101000a900473ffffffffffffffffffffffffffffffffffffffff1681565b60008054906101000a900473ffffffffffffffffffffffffffffffffffffffff1681565b600073ffffffffffffffffffffffffffffffffffffffff16600360003373ffffffffffffffffffffffffffffffffffffffff1673ffffffffffffffffffffffffffffffffffffffff16815260200190815260200160002060000160009054906101000a900473ffffffffffffffffffffffffffffffffffffffff1673ffffffffffffffffffffffffffffffffffffffff1614611112576040517f08c379a0000000000000000000000000000000000000000000000000000000008152600401611109906120b0565b60405180910390fd5b600073ffffffffffffffffffffffffffffffffffffffff166004600083815260200190815260200160002060009054906101000a900473ffffffffffffffffffffffffffffffffffffffff1673ffffffffffffffffffffffffffffffffffffffff16146111b4576040517f08c379a00000000000000000000000000000000000000000000000000000000081526004016111ab90612150565b60405180910390fd5b6002339080600181540180825580915050600190039060005260206000200160009091909190916101000a81548173ffffffffffffffffffffffffffffffffffffffff021916908373ffffffffffffffffffffffffffffffffffffffff16021790555060405180604001604052803373ffffffffffffffffffffffffffffffffffffffff16815260200182815250600360003373ffffffffffffffffffffffffffffffffffffffff1673ffffffffffffffffffffffffffffffffffffffff16815260200190815260200160002060008201518160000160006101000a81548173ffffffffffffffffffffffffffffffffffffffff021916908373ffffffffffffffffffffffffffffffffffffffff16021790555060208201518160010155905050336004600083815260200190815260200160002060006101000a81548173ffffffffffffffffffffffffffffffffffffffff021916908373ffffffffffffffffffffffffffffffffffffffff16021790555050565b6113326117d5565b600660008473ffffffffffffffffffffffffffffffffffffffff1673ffffffffffffffffffffffffffffffffffffffff16815260200190815260200160002060008381526020019081526020016000206040518060a00160405290816000820160009054906101000a900473ffffffffffffffffffffffffffffffffffffffff1673ffffffffffffffffffffffffffffffffffffffff1673ffffffffffffffffffffffffffffffffffffffff168152602001600182015481526020016002820154815260200160038201548152602001600482018054600181600116156101000203166002900480601f01602080910402602001604051908101604052809291908181526020018280546001816001161561010002031660029004801561149a5780601f1061146f5761010080835404028352916020019161149a565b820191906000526020600020905b81548152906001019060200180831161147d57829003601f168201915b505050505081525050905060405180608001604052803373ffffffffffffffffffffffffffffffffffffffff1681526020014281526020018473ffffffffffffffffffffffffffffffffffffffff168152602001838152506007600086815260200190815260200160002060008201518160000160006101000a81548173ffffffffffffffffffffffffffffffffffffffff021916908373ffffffffffffffffffffffffffffffffffffffff1602179055506020820151816001015560408201518160020160006101000a81548173ffffffffffffffffffffffffffffffffffffffff021916908373ffffffffffffffffffffffffffffffffffffffff16021790555060608201518160030155905050600068056bc75e2d631000009050600160009054906101000a900473ffffffffffffffffffffffffffffffffffffffff1673ffffffffffffffffffffffffffffffffffffffff166323b872dd338460000151846040518463ffffffff1660e01b815260040161161b93929190611f54565b602060405180830381600087803b15801561163557600080fd5b505af1158015611649573d6000803e3d6000fd5b505050506040513d601f19601f8201168201806040525081019061166d9190611a3e565b505050505050565b60036020528060005260406000206000915090508060000160009054906101000a900473ffffffffffffffffffffffffffffffffffffffff16908060010154905082565b60076020528060005260406000206000915090508060000160009054906101000a900473ffffffffffffffffffffffffffffffffffffffff16908060010154908060020160009054906101000a900473ffffffffffffffffffffffffffffffffffffffff16908060030154905084565b600080828401905083811015611774576040517f08c379a000000000000000000000000000000000000000000000000000000000815260040161176b906120f0565b60405180910390fd5b8091505092915050565b6040518060800160405280600073ffffffffffffffffffffffffffffffffffffffff16815260200160008152602001600073ffffffffffffffffffffffffffffffffffffffff168152602001600080191681525090565b6040518060a00160405280600073ffffffffffffffffffffffffffffffffffffffff168152602001600081526020016000815260200160008152602001606081525090565b6040518060400160405280600073ffffffffffffffffffffffffffffffffffffffff168152602001600080191681525090565b828054600181600116156101000203166002900490600052602060002090601f016020900481019282601f1061188e57805160ff19168380011785556118bc565b828001600101855582156118bc579182015b828111156118bb5782518255916020019190600101906118a0565b5b5090506118c991906118cd565b5090565b5b808211156118e65760008160009055506001016118ce565b5090565b6000813590506118f9816122a2565b92915050565b60008151905061190e816122b9565b92915050565b600081359050611923816122d0565b92915050565b60008083601f84011261193b57600080fd5b8235905067ffffffffffffffff81111561195457600080fd5b60208301915083600182028301111561196c57600080fd5b9250929050565b600081359050611982816122e7565b92915050565b600081519050611997816122e7565b92915050565b6000602082840312156119af57600080fd5b60006119bd848285016118ea565b91505092915050565b600080604083850312156119d957600080fd5b60006119e7858286016118ea565b92505060206119f885828601611914565b9150509250929050565b60008060408385031215611a1557600080fd5b6000611a23858286016118ea565b9250506020611a3485828601611973565b9150509250929050565b600060208284031215611a5057600080fd5b6000611a5e848285016118ff565b91505092915050565b600060208284031215611a7957600080fd5b6000611a8784828501611914565b91505092915050565b600080600060608486031215611aa557600080fd5b6000611ab386828701611914565b9350506020611ac4868287016118ea565b9250506040611ad586828701611914565b9150509250925092565b600080600060608486031215611af457600080fd5b6000611b0286828701611914565b9350506020611b1386828701611973565b9250506040611b2486828701611973565b9150509250925092565b600080600080600060808688031215611b4657600080fd5b6000611b5488828901611914565b9550506020611b6588828901611973565b9450506040611b7688828901611973565b935050606086013567ffffffffffffffff811115611b9357600080fd5b611b9f88828901611929565b92509250509295509295909350565b600060208284031215611bc057600080fd5b6000611bce84828501611973565b91505092915050565b600060208284031215611be957600080fd5b6000611bf784828501611988565b91505092915050565b6000611c0c8383611ee0565b60408301905092915050565b611c2181612228565b82525050565b611c30816121d6565b82525050565b611c3f816121d6565b82525050565b6000611c5082612180565b611c5a81856121a3565b9350611c6583612170565b8060005b83811015611c96578151611c7d8882611c00565b9750611c8883612196565b925050600181019050611c69565b5085935050505092915050565b611cac816121f4565b82525050565b611cbb816121f4565b82525050565b6000611ccc8261218b565b611cd681856121b4565b9350611ce681856020860161225e565b611cef81612291565b840191505092915050565b6000611d076014836121c5565b91507f43616e6e6f742066696e642070726f76696465720000000000000000000000006000830152602082019050919050565b6000611d476023836121c5565b91507f50726f7669646572206164647265737320616c7265616479207265676973746560008301527f72656400000000000000000000000000000000000000000000000000000000006020830152604082019050919050565b6000611dad6017836121c5565b91507f53656e646572206d7573742062652070726f76696465720000000000000000006000830152602082019050919050565b6000611ded601b836121c5565b91507f536166654d6174683a206164646974696f6e206f766572666c6f7700000000006000830152602082019050919050565b6000611e2d6013836121c5565b91507f43616e6e6f742066696e6420636865636b6572000000000000000000000000006000830152602082019050919050565b6000611e6d6012836121c5565b91507f556e73756666696369656e742066756e647300000000000000000000000000006000830152602082019050919050565b6000611ead6020836121c5565b91507f50726f7669646572206e616d6520616c726561647920726567697374657265646000830152602082019050919050565b604082016000820151611ef66000850182611c27565b506020820151611f096020850182611ca3565b50505050565b611f188161221e565b82525050565b6000602082019050611f336000830184611c36565b92915050565b6000602082019050611f4e6000830184611c18565b92915050565b6000606082019050611f696000830186611c18565b611f766020830185611c36565b611f836040830184611f0f565b949350505050565b6000604082019050611fa06000830185611c36565b611fad6020830184611cb2565b9392505050565b6000608082019050611fc96000830187611c36565b611fd66020830186611f0f565b611fe36040830185611c36565b611ff06060830184611cb2565b95945050505050565b600060a08201905061200e6000830188611c36565b61201b6020830187611f0f565b6120286040830186611f0f565b6120356060830185611f0f565b81810360808301526120478184611cc1565b90509695505050505050565b6000602082019050818103600083015261206d8184611c45565b905092915050565b600060208201905061208a6000830184611cb2565b92915050565b600060208201905081810360008301526120a981611cfa565b9050919050565b600060208201905081810360008301526120c981611d3a565b9050919050565b600060208201905081810360008301526120e981611da0565b9050919050565b6000602082019050818103600083015261210981611de0565b9050919050565b6000602082019050818103600083015261212981611e20565b9050919050565b6000602082019050818103600083015261214981611e60565b9050919050565b6000602082019050818103600083015261216981611ea0565b9050919050565b6000819050602082019050919050565b600081519050919050565b600081519050919050565b6000602082019050919050565b600082825260208201905092915050565b600082825260208201905092915050565b600082825260208201905092915050565b60006121e1826121fe565b9050919050565b60008115159050919050565b6000819050919050565b600073ffffffffffffffffffffffffffffffffffffffff82169050919050565b6000819050919050565b60006122338261223a565b9050919050565b60006122458261224c565b9050919050565b6000612257826121fe565b9050919050565b60005b8381101561227c578082015181840152602081019050612261565b8381111561228b576000848401525b50505050565b6000601f19601f8301169050919050565b6122ab816121d6565b81146122b657600080fd5b50565b6122c2816121e8565b81146122cd57600080fd5b50565b6122d9816121f4565b81146122e457600080fd5b50565b6122f08161221e565b81146122fb57600080fd5b5056fea264697066735822122083b8d87c3085e722da2f681029b5558c6e1e130042652d788dbbfcbbd5b9b5e764736f6c63430007010033",
  "immutableReferences": {},
  "source": "pragma solidity ^0.7.1;\npragma experimental ABIEncoderV2;\n\nimport \"./Intex.sol\";\nimport \"@openzeppelin/contracts/math/SafeMath.sol\";\n\n/// @dev Data Intelligence Exchange\ncontract Exchange {\n    using SafeMath for uint256;\n\n    /// @dev Owner of the contract\n    address public owner;\n\n    /// @dev Intex Token\n    Intex private token;\n\n    /// @dev Provider of data intelligence\n    struct Provider {\n        address addr;\n        bytes32 name;\n    }\n    address[] public providerAddresses;\n    mapping (address => Provider) public providerByAddress;\n    mapping (bytes32 => address) public providerAddressByName;\n\n    /// @dev Data Intelligence\n    struct DataIntelligence {\n        address provider;\n        uint256 timestamp;\n        uint256 type_;\n        uint256 format;\n        bytes data;\n    }\n    /// @dev Each provider has mapping to access Data Intelligence\n    mapping (address => bytes32[]) public dataIntelligenceHashes;\n    mapping (address => mapping (bytes32 => DataIntelligence)) public dataIntelligenceByHash;\n\n    struct DataIntelligenceCheck {\n        address checker;\n        uint256 timestamp;\n        address provider;\n        bytes32 dataHash;\n    }\n    mapping (bytes32 => DataIntelligenceCheck) public checkByHash;\n\n    /// @dev Pass the Intex Token contract address\n    constructor(Intex _token)\n    {\n        owner = msg.sender;\n        token = _token;\n    }\n\n    /// @dev Register sender as provider\n    function registerAsProvider(bytes32 name) external\n    {\n        require(providerByAddress[msg.sender].addr == address(0), \"Provider address already registered\");\n        require(providerAddressByName[name] == address(0), \"Provider name already registered\");\n\n        // Register provider\n        providerAddresses.push(msg.sender);\n        providerByAddress[msg.sender] = Provider(msg.sender, name);\n        providerAddressByName[name] = msg.sender;\n    }\n\n    /// @dev Get all providers\n    function getAllProviders() view external returns (Provider[] memory)\n    {\n        uint count = providerAddresses.length;\n        Provider[] memory _providers = new Provider[](count);\n        for (uint i=0; i<count; i++)\n        {\n            _providers[i] = providerByAddress[providerAddresses[i]];\n        }\n        return _providers;\n    }\n\n    /// @dev Providers can add (or update) Data Intelligence\n    function addDataIntelligence(bytes32 _hash, uint256 _type, uint256 _format, bytes calldata _data) external\n    {\n        uint256 oneThousand = uint256(1 * (10**3) * (10**18));\n\n        Provider memory provider = providerByAddress[msg.sender];\n\n        require(provider.addr == msg.sender, \"Sender must be provider\");\n        require(token.balanceOf(msg.sender) >= oneThousand, \"Unsufficient funds\");\n\n        // Store Data Intelligence\n        dataIntelligenceHashes[msg.sender].push(_hash);\n        dataIntelligenceByHash[msg.sender][_hash] = DataIntelligence(msg.sender, block.timestamp, _type, _format, _data);\n\n        // Payment\n        // Tokens do not burn, they are sent to owner!\n        token.transferFrom(msg.sender, owner, oneThousand);\n    }\n\n    /// @dev Check Data Intelligence\n    function checkDataIntelligence(bytes32 checkHash, address provider, bytes32 dataHash) external\n    {\n        DataIntelligence memory dataIntelligence = dataIntelligenceByHash[provider][dataHash];\n\n        checkByHash[checkHash] = DataIntelligenceCheck(msg.sender, block.timestamp, provider, dataHash);\n\n        // Payment\n        uint256 oneHundred = uint256(1 * (10**2) * (10**18));\n        token.transferFrom(msg.sender, dataIntelligence.provider, oneHundred);\n    }\n\n    /// @dev Reward checker & provider for service\n    function reward(bytes32 checkHash, uint256 providerReward, uint256 checkerReward) public\n    {\n        require(token.balanceOf(msg.sender) >= providerReward.add(checkerReward), \"Unsufficient funds\");\n\n        // Reward checker\n        DataIntelligenceCheck memory dataIntelligenceCheck = checkByHash[checkHash];\n        require(dataIntelligenceCheck.checker != address(0), \"Cannot find checker\");\n\n        token.transferFrom(msg.sender, dataIntelligenceCheck.checker, checkerReward);\n\n        // Reward provider\n        DataIntelligence memory dataIntelligence = dataIntelligenceByHash[dataIntelligenceCheck.provider][dataIntelligenceCheck.dataHash];\n        require(dataIntelligence.provider != address(0), \"Cannot find provider\");\n\n        token.transferFrom(msg.sender, dataIntelligence.provider, providerReward);\n    }\n}\n",
  "sourcePath": "/home/irenee/work/dev/blockchain/adchain/contracts/Exchange.sol",
  "compiler": {
    "name": "solc",
    "version": "0.7.1+commit.f4a555be.Emscripten.clang"
  },
  "schemaVersion": "3.2.4",
  "updatedAt": "2020-11-18T21:12:30.706Z",
  "networkType": "ethereum",
  "devdoc": {
    "details": "Data Intelligence Exchange",
    "kind": "dev",
    "methods": {
      "addDataIntelligence(bytes32,uint256,uint256,bytes)": {
        "details": "Providers can add (or update) Data Intelligence"
      },
      "checkDataIntelligence(bytes32,address,bytes32)": {
        "details": "Check Data Intelligence"
      },
      "constructor": {
        "details": "Pass the Intex Token contract address"
      },
      "getAllProviders()": {
        "details": "Get all providers"
      },
      "registerAsProvider(bytes32)": {
        "details": "Register sender as provider"
      },
      "reward(bytes32,uint256,uint256)": {
        "details": "Reward checker & provider for service"
      }
    },
    "stateVariables": {
      "dataIntelligenceHashes": {
        "details": "Each provider has mapping to access Data Intelligence"
      },
      "owner": {
        "details": "Owner of the contract"
      },
      "token": {
        "details": "Intex Token"
      }
    },
    "version": 1
  },
  "userdoc": {
    "kind": "user",
    "methods": {},
    "version": 1
  }
}