{
  "contractName": "Exchange",
  "abi": [
    {
      "inputs": [
        {
          "internalType": "contract Intex",
          "name": "_token",
          "type": "address"
        }
      ],
      "stateMutability": "nonpayable",
      "type": "constructor"
    },
    {
      "inputs": [],
      "name": "addDataIntelligencePrice",
      "outputs": [
        {
          "internalType": "uint256",
          "name": "",
          "type": "uint256"
        }
      ],
      "stateMutability": "view",
      "type": "function",
      "constant": true
    },
    {
      "inputs": [
        {
          "internalType": "bytes32",
          "name": "",
          "type": "bytes32"
        }
      ],
      "name": "checkByHash",
      "outputs": [
        {
          "internalType": "address",
          "name": "checker",
          "type": "address"
        },
        {
          "internalType": "uint256",
          "name": "timestamp",
          "type": "uint256"
        },
        {
          "internalType": "address",
          "name": "provider",
          "type": "address"
        },
        {
          "internalType": "bytes32",
          "name": "dataHash",
          "type": "bytes32"
        }
      ],
      "stateMutability": "view",
      "type": "function",
      "constant": true
    },
    {
      "inputs": [],
      "name": "checkDataIntelligencePrice",
      "outputs": [
        {
          "internalType": "uint256",
          "name": "",
          "type": "uint256"
        }
      ],
      "stateMutability": "view",
      "type": "function",
      "constant": true
    },
    {
      "inputs": [
        {
          "internalType": "address",
          "name": "",
          "type": "address"
        },
        {
          "internalType": "bytes32",
          "name": "",
          "type": "bytes32"
        }
      ],
      "name": "dataIntelligenceByHash",
      "outputs": [
        {
          "internalType": "uint256",
          "name": "timestamp",
          "type": "uint256"
        },
        {
          "internalType": "bytes",
          "name": "source",
          "type": "bytes"
        },
        {
          "internalType": "uint256",
          "name": "type_",
          "type": "uint256"
        },
        {
          "internalType": "bytes",
          "name": "data",
          "type": "bytes"
        }
      ],
      "stateMutability": "view",
      "type": "function",
      "constant": true
    },
    {
      "inputs": [
        {
          "internalType": "address",
          "name": "",
          "type": "address"
        },
        {
          "internalType": "uint256",
          "name": "",
          "type": "uint256"
        }
      ],
      "name": "dataIntelligenceHashes",
      "outputs": [
        {
          "internalType": "bytes32",
          "name": "",
          "type": "bytes32"
        }
      ],
      "stateMutability": "view",
      "type": "function",
      "constant": true
    },
    {
      "inputs": [],
      "name": "owner",
      "outputs": [
        {
          "internalType": "address",
          "name": "",
          "type": "address"
        }
      ],
      "stateMutability": "view",
      "type": "function",
      "constant": true
    },
    {
      "inputs": [
        {
          "internalType": "bytes32",
          "name": "",
          "type": "bytes32"
        }
      ],
      "name": "providerAddressByName",
      "outputs": [
        {
          "internalType": "address",
          "name": "",
          "type": "address"
        }
      ],
      "stateMutability": "view",
      "type": "function",
      "constant": true
    },
    {
      "inputs": [
        {
          "internalType": "uint256",
          "name": "",
          "type": "uint256"
        }
      ],
      "name": "providerAddresses",
      "outputs": [
        {
          "internalType": "address",
          "name": "",
          "type": "address"
        }
      ],
      "stateMutability": "view",
      "type": "function",
      "constant": true
    },
    {
      "inputs": [
        {
          "internalType": "address",
          "name": "",
          "type": "address"
        }
      ],
      "name": "providerByAddress",
      "outputs": [
        {
          "internalType": "address",
          "name": "addr",
          "type": "address"
        },
        {
          "internalType": "bytes32",
          "name": "name",
          "type": "bytes32"
        }
      ],
      "stateMutability": "view",
      "type": "function",
      "constant": true
    },
    {
      "inputs": [
        {
          "internalType": "bytes32",
          "name": "name",
          "type": "bytes32"
        }
      ],
      "name": "registerAsProvider",
      "outputs": [],
      "stateMutability": "nonpayable",
      "type": "function"
    },
    {
      "inputs": [],
      "name": "getAllProviders",
      "outputs": [
        {
          "components": [
            {
              "internalType": "address",
              "name": "addr",
              "type": "address"
            },
            {
              "internalType": "bytes32",
              "name": "name",
              "type": "bytes32"
            }
          ],
          "internalType": "struct Exchange.Provider[]",
          "name": "",
          "type": "tuple[]"
        }
      ],
      "stateMutability": "view",
      "type": "function",
      "constant": true
    },
    {
      "inputs": [
        {
          "internalType": "bytes",
          "name": "dataSource",
          "type": "bytes"
        },
        {
          "internalType": "uint256",
          "name": "dataType",
          "type": "uint256"
        },
        {
          "internalType": "bytes",
          "name": "dataIntelligence",
          "type": "bytes"
        }
      ],
      "name": "addDataIntelligence",
      "outputs": [],
      "stateMutability": "nonpayable",
      "type": "function"
    },
    {
      "inputs": [
        {
          "internalType": "address",
          "name": "provider",
          "type": "address"
        }
      ],
      "name": "getDataIntelligences",
      "outputs": [
        {
          "components": [
            {
              "internalType": "uint256",
              "name": "timestamp",
              "type": "uint256"
            },
            {
              "internalType": "bytes",
              "name": "source",
              "type": "bytes"
            },
            {
              "internalType": "uint256",
              "name": "type_",
              "type": "uint256"
            },
            {
              "internalType": "bytes",
              "name": "data",
              "type": "bytes"
            }
          ],
          "internalType": "struct Exchange.DataIntelligence[]",
          "name": "",
          "type": "tuple[]"
        }
      ],
      "stateMutability": "view",
      "type": "function",
      "constant": true
    },
    {
      "inputs": [
        {
          "internalType": "bytes32",
          "name": "checkHash",
          "type": "bytes32"
        },
        {
          "internalType": "address",
          "name": "provider",
          "type": "address"
        },
        {
          "internalType": "bytes32",
          "name": "dataHash",
          "type": "bytes32"
        }
      ],
      "name": "checkDataIntelligence",
      "outputs": [],
      "stateMutability": "nonpayable",
      "type": "function"
    },
    {
      "inputs": [
        {
          "internalType": "bytes32",
          "name": "checkHash",
          "type": "bytes32"
        },
        {
          "internalType": "uint256",
          "name": "providerReward",
          "type": "uint256"
        },
        {
          "internalType": "uint256",
          "name": "checkerReward",
          "type": "uint256"
        }
      ],
      "name": "reward",
      "outputs": [],
      "stateMutability": "nonpayable",
      "type": "function"
    }
  ],
  "bytecode": "0x60806040523480156200001157600080fd5b5060405162002982380380620029828339818101604052810190620000379190620000f6565b336000806101000a81548173ffffffffffffffffffffffffffffffffffffffff021916908373ffffffffffffffffffffffffffffffffffffffff16021790555080600160006101000a81548173ffffffffffffffffffffffffffffffffffffffff021916908373ffffffffffffffffffffffffffffffffffffffff160217905550683635c9adc5dea0000060078190555068056bc75e2d631000006008819055505062000184565b600081519050620000f0816200016a565b92915050565b6000602082840312156200010957600080fd5b60006200011984828501620000df565b91505092915050565b60006200012f826200014a565b9050919050565b6000620001438262000122565b9050919050565b600073ffffffffffffffffffffffffffffffffffffffff82169050919050565b620001758162000136565b81146200018157600080fd5b50565b6127ee80620001946000396000f3fe608060405234801561001057600080fd5b50600436106100f55760003560e01c8063618dd9a811610097578063bb512a8211610066578063bb512a821461029d578063c234ba76146102b9578063e6fe61ab146102d5578063f00002e314610306576100f5565b8063618dd9a81461020357806368e3b918146102335780638da5cb5b146102635780639901e6f014610281576100f5565b80633d932f34116100d35780633d932f3414610164578063428bef63146101975780634f7e208e146101b55780635fd91354146101d3576100f5565b80631bb4d049146100fa5780632e673800146101165780633bb4497c14610146575b600080fd5b610114600480360381019061010f9190611cf7565b610339565b005b610130600480360381019061012b9190611c7f565b61077a565b60405161013d919061231e565b60405180910390f35b61014e6107ad565b60405161015b919061241b565b60405180910390f35b61017e60048036038101906101799190611bde565b610928565b60405161018e9493929190612573565b60405180910390f35b61019f610a95565b6040516101ac9190612558565b60405180910390f35b6101bd610a9b565b6040516101ca9190612558565b60405180910390f35b6101ed60048036038101906101e89190611c1a565b610aa1565b6040516101fa919061243d565b60405180910390f35b61021d60048036038101906102189190611dcf565b610acf565b60405161022a919061231e565b60405180910390f35b61024d60048036038101906102489190611bb5565b610b0b565b60405161025a91906123f9565b60405180910390f35b61026b610deb565b604051610278919061231e565b60405180910390f35b61029b60048036038101906102969190611c7f565b610e0f565b005b6102b760048036038101906102b29190611d46565b6110f8565b005b6102d360048036038101906102ce9190611ca8565b6115fd565b005b6102ef60048036038101906102ea9190611bb5565b6118aa565b6040516102fd92919061238b565b60405180910390f35b610320600480360381019061031b9190611c7f565b6118ee565b60405161033094939291906123b4565b60405180910390f35b61034c818361195e90919063ffffffff16565b600160009054906101000a900473ffffffffffffffffffffffffffffffffffffffff1673ffffffffffffffffffffffffffffffffffffffff166370a08231336040518263ffffffff1660e01b81526004016103a79190612339565b60206040518083038186803b1580156103bf57600080fd5b505afa1580156103d3573d6000803e3d6000fd5b505050506040513d601f19601f820116820180604052508101906103f79190611df8565b1015610438576040517f08c379a000000000000000000000000000000000000000000000000000000000815260040161042f906124f8565b60405180910390fd5b6104406119b3565b600960008581526020019081526020016000206040518060800160405290816000820160009054906101000a900473ffffffffffffffffffffffffffffffffffffffff1673ffffffffffffffffffffffffffffffffffffffff1673ffffffffffffffffffffffffffffffffffffffff168152602001600182015481526020016002820160009054906101000a900473ffffffffffffffffffffffffffffffffffffffff1673ffffffffffffffffffffffffffffffffffffffff1673ffffffffffffffffffffffffffffffffffffffff1681526020016003820154815250509050600073ffffffffffffffffffffffffffffffffffffffff16816000015173ffffffffffffffffffffffffffffffffffffffff161415610594576040517f08c379a000000000000000000000000000000000000000000000000000000000815260040161058b906124d8565b60405180910390fd5b600073ffffffffffffffffffffffffffffffffffffffff16816040015173ffffffffffffffffffffffffffffffffffffffff161415610608576040517f08c379a00000000000000000000000000000000000000000000000000000000081526004016105ff90612458565b60405180910390fd5b600160009054906101000a900473ffffffffffffffffffffffffffffffffffffffff1673ffffffffffffffffffffffffffffffffffffffff166323b872dd338360000151856040518463ffffffff1660e01b815260040161066b93929190612354565b602060405180830381600087803b15801561068557600080fd5b505af1158015610699573d6000803e3d6000fd5b505050506040513d601f19601f820116820180604052508101906106bd9190611c56565b50600160009054906101000a900473ffffffffffffffffffffffffffffffffffffffff1673ffffffffffffffffffffffffffffffffffffffff166323b872dd338360400151866040518463ffffffff1660e01b815260040161072193929190612354565b602060405180830381600087803b15801561073b57600080fd5b505af115801561074f573d6000803e3d6000fd5b505050506040513d601f19601f820116820180604052508101906107739190611c56565b5050505050565b60046020528060005260406000206000915054906101000a900473ffffffffffffffffffffffffffffffffffffffff1681565b60606000600280549050905060608167ffffffffffffffff811180156107d257600080fd5b5060405190808252806020026020018201604052801561080c57816020015b6107f9611a0a565b8152602001906001900390816107f15790505b50905060005b8281101561091f57600360006002838154811061082b57fe5b9060005260206000200160009054906101000a900473ffffffffffffffffffffffffffffffffffffffff1673ffffffffffffffffffffffffffffffffffffffff1673ffffffffffffffffffffffffffffffffffffffff1681526020019081526020016000206040518060400160405290816000820160009054906101000a900473ffffffffffffffffffffffffffffffffffffffff1673ffffffffffffffffffffffffffffffffffffffff1673ffffffffffffffffffffffffffffffffffffffff16815260200160018201548152505082828151811061090757fe5b60200260200101819052508080600101915050610812565b50809250505090565b600660205281600052604060002060205280600052604060002060009150915050806000015490806001018054600181600116156101000203166002900480601f0160208091040260200160405190810160405280929190818152602001828054600181600116156101000203166002900480156109e75780601f106109bc576101008083540402835291602001916109e7565b820191906000526020600020905b8154815290600101906020018083116109ca57829003601f168201915b505050505090806002015490806003018054600181600116156101000203166002900480601f016020809104026020016040519081016040528092919081815260200182805460018160011615610100020316600290048015610a8b5780601f10610a6057610100808354040283529160200191610a8b565b820191906000526020600020905b815481529060010190602001808311610a6e57829003601f168201915b5050505050905084565b60075481565b60085481565b60056020528160005260406000208181548110610aba57fe5b90600052602060002001600091509150505481565b60028181548110610adc57fe5b906000526020600020016000915054906101000a900473ffffffffffffffffffffffffffffffffffffffff1681565b60606000600560008473ffffffffffffffffffffffffffffffffffffffff1673ffffffffffffffffffffffffffffffffffffffff16815260200190815260200160002080549050905060608167ffffffffffffffff81118015610b6d57600080fd5b50604051908082528060200260200182016040528015610ba757816020015b610b94611a3d565b815260200190600190039081610b8c5790505b50905060005b82811015610de057600660008673ffffffffffffffffffffffffffffffffffffffff1673ffffffffffffffffffffffffffffffffffffffff1681526020019081526020016000206000600560008873ffffffffffffffffffffffffffffffffffffffff1673ffffffffffffffffffffffffffffffffffffffff1681526020019081526020016000208381548110610c4057fe5b9060005260206000200154815260200190815260200160002060405180608001604052908160008201548152602001600182018054600181600116156101000203166002900480601f016020809104026020016040519081016040528092919081815260200182805460018160011615610100020316600290048015610d075780601f10610cdc57610100808354040283529160200191610d07565b820191906000526020600020905b815481529060010190602001808311610cea57829003601f168201915b5050505050815260200160028201548152602001600382018054600181600116156101000203166002900480601f016020809104026020016040519081016040528092919081815260200182805460018160011615610100020316600290048015610db35780601f10610d8857610100808354040283529160200191610db3565b820191906000526020600020905b815481529060010190602001808311610d9657829003601f168201915b505050505081525050828281518110610dc857fe5b60200260200101819052508080600101915050610bad565b508092505050919050565b60008054906101000a900473ffffffffffffffffffffffffffffffffffffffff1681565b600073ffffffffffffffffffffffffffffffffffffffff16600360003373ffffffffffffffffffffffffffffffffffffffff1673ffffffffffffffffffffffffffffffffffffffff16815260200190815260200160002060000160009054906101000a900473ffffffffffffffffffffffffffffffffffffffff1673ffffffffffffffffffffffffffffffffffffffff1614610ee0576040517f08c379a0000000000000000000000000000000000000000000000000000000008152600401610ed790612478565b60405180910390fd5b600073ffffffffffffffffffffffffffffffffffffffff166004600083815260200190815260200160002060009054906101000a900473ffffffffffffffffffffffffffffffffffffffff1673ffffffffffffffffffffffffffffffffffffffff1614610f82576040517f08c379a0000000000000000000000000000000000000000000000000000000008152600401610f7990612518565b60405180910390fd5b6002339080600181540180825580915050600190039060005260206000200160009091909190916101000a81548173ffffffffffffffffffffffffffffffffffffffff021916908373ffffffffffffffffffffffffffffffffffffffff16021790555060405180604001604052803373ffffffffffffffffffffffffffffffffffffffff16815260200182815250600360003373ffffffffffffffffffffffffffffffffffffffff1673ffffffffffffffffffffffffffffffffffffffff16815260200190815260200160002060008201518160000160006101000a81548173ffffffffffffffffffffffffffffffffffffffff021916908373ffffffffffffffffffffffffffffffffffffffff16021790555060208201518160010155905050336004600083815260200190815260200160002060006101000a81548173ffffffffffffffffffffffffffffffffffffffff021916908373ffffffffffffffffffffffffffffffffffffffff16021790555050565b610100858590501061113f576040517f08c379a000000000000000000000000000000000000000000000000000000000815260040161113690612538565b60405180910390fd5b60008585604051611151929190612305565b60405180910390209050611163611a0a565b600360003373ffffffffffffffffffffffffffffffffffffffff1673ffffffffffffffffffffffffffffffffffffffff1681526020019081526020016000206040518060400160405290816000820160009054906101000a900473ffffffffffffffffffffffffffffffffffffffff1673ffffffffffffffffffffffffffffffffffffffff1673ffffffffffffffffffffffffffffffffffffffff16815260200160018201548152505090503373ffffffffffffffffffffffffffffffffffffffff16816000015173ffffffffffffffffffffffffffffffffffffffff1614611281576040517f08c379a000000000000000000000000000000000000000000000000000000000815260040161127890612498565b60405180910390fd5b600754600160009054906101000a900473ffffffffffffffffffffffffffffffffffffffff1673ffffffffffffffffffffffffffffffffffffffff166370a08231336040518263ffffffff1660e01b81526004016112df9190612339565b60206040518083038186803b1580156112f757600080fd5b505afa15801561130b573d6000803e3d6000fd5b505050506040513d601f19601f8201168201806040525081019061132f9190611df8565b1015611370576040517f08c379a0000000000000000000000000000000000000000000000000000000008152600401611367906124f8565b60405180910390fd5b600560003373ffffffffffffffffffffffffffffffffffffffff1673ffffffffffffffffffffffffffffffffffffffff168152602001908152602001600020829080600181540180825580915050600190039060005260206000200160009091909190915055604051806080016040528042815260200188888080601f016020809104026020016040519081016040528093929190818152602001838380828437600081840152601f19601f82011690508083019250505050505050815260200186815260200185858080601f016020809104026020016040519081016040528093929190818152602001838380828437600081840152601f19601f82011690508083019250505050505050815250600660003373ffffffffffffffffffffffffffffffffffffffff1673ffffffffffffffffffffffffffffffffffffffff16815260200190815260200160002060008481526020019081526020016000206000820151816000015560208201518160010190805190602001906114f5929190611a65565b5060408201518160020155606082015181600301908051906020019061151c929190611a65565b50905050600160009054906101000a900473ffffffffffffffffffffffffffffffffffffffff1673ffffffffffffffffffffffffffffffffffffffff166323b872dd3360008054906101000a900473ffffffffffffffffffffffffffffffffffffffff166007546040518463ffffffff1660e01b81526004016115a193929190612354565b602060405180830381600087803b1580156115bb57600080fd5b505af11580156115cf573d6000803e3d6000fd5b505050506040513d601f19601f820116820180604052508101906115f39190611c56565b5050505050505050565b600854600160009054906101000a900473ffffffffffffffffffffffffffffffffffffffff1673ffffffffffffffffffffffffffffffffffffffff166370a08231336040518263ffffffff1660e01b815260040161165b9190612339565b60206040518083038186803b15801561167357600080fd5b505afa158015611687573d6000803e3d6000fd5b505050506040513d601f19601f820116820180604052508101906116ab9190611df8565b10156116ec576040517f08c379a00000000000000000000000000000000000000000000000000000000081526004016116e3906124f8565b60405180910390fd5b60405180608001604052803373ffffffffffffffffffffffffffffffffffffffff1681526020014281526020018373ffffffffffffffffffffffffffffffffffffffff168152602001828152506009600085815260200190815260200160002060008201518160000160006101000a81548173ffffffffffffffffffffffffffffffffffffffff021916908373ffffffffffffffffffffffffffffffffffffffff1602179055506020820151816001015560408201518160020160006101000a81548173ffffffffffffffffffffffffffffffffffffffff021916908373ffffffffffffffffffffffffffffffffffffffff16021790555060608201518160030155905050600160009054906101000a900473ffffffffffffffffffffffffffffffffffffffff1673ffffffffffffffffffffffffffffffffffffffff166323b872dd33846008546040518463ffffffff1660e01b815260040161185293929190612354565b602060405180830381600087803b15801561186c57600080fd5b505af1158015611880573d6000803e3d6000fd5b505050506040513d601f19601f820116820180604052508101906118a49190611c56565b50505050565b60036020528060005260406000206000915090508060000160009054906101000a900473ffffffffffffffffffffffffffffffffffffffff16908060010154905082565b60096020528060005260406000206000915090508060000160009054906101000a900473ffffffffffffffffffffffffffffffffffffffff16908060010154908060020160009054906101000a900473ffffffffffffffffffffffffffffffffffffffff16908060030154905084565b6000808284019050838110156119a9576040517f08c379a00000000000000000000000000000000000000000000000000000000081526004016119a0906124b8565b60405180910390fd5b8091505092915050565b6040518060800160405280600073ffffffffffffffffffffffffffffffffffffffff16815260200160008152602001600073ffffffffffffffffffffffffffffffffffffffff168152602001600080191681525090565b6040518060400160405280600073ffffffffffffffffffffffffffffffffffffffff168152602001600080191681525090565b6040518060800160405280600081526020016060815260200160008152602001606081525090565b828054600181600116156101000203166002900490600052602060002090601f016020900481019282601f10611aa657805160ff1916838001178555611ad4565b82800160010185558215611ad4579182015b82811115611ad3578251825591602001919060010190611ab8565b5b509050611ae19190611ae5565b5090565b5b80821115611afe576000816000905550600101611ae6565b5090565b600081359050611b118161275c565b92915050565b600081519050611b2681612773565b92915050565b600081359050611b3b8161278a565b92915050565b60008083601f840112611b5357600080fd5b8235905067ffffffffffffffff811115611b6c57600080fd5b602083019150836001820283011115611b8457600080fd5b9250929050565b600081359050611b9a816127a1565b92915050565b600081519050611baf816127a1565b92915050565b600060208284031215611bc757600080fd5b6000611bd584828501611b02565b91505092915050565b60008060408385031215611bf157600080fd5b6000611bff85828601611b02565b9250506020611c1085828601611b2c565b9150509250929050565b60008060408385031215611c2d57600080fd5b6000611c3b85828601611b02565b9250506020611c4c85828601611b8b565b9150509250929050565b600060208284031215611c6857600080fd5b6000611c7684828501611b17565b91505092915050565b600060208284031215611c9157600080fd5b6000611c9f84828501611b2c565b91505092915050565b600080600060608486031215611cbd57600080fd5b6000611ccb86828701611b2c565b9350506020611cdc86828701611b02565b9250506040611ced86828701611b2c565b9150509250925092565b600080600060608486031215611d0c57600080fd5b6000611d1a86828701611b2c565b9350506020611d2b86828701611b8b565b9250506040611d3c86828701611b8b565b9150509250925092565b600080600080600060608688031215611d5e57600080fd5b600086013567ffffffffffffffff811115611d7857600080fd5b611d8488828901611b41565b95509550506020611d9788828901611b8b565b935050604086013567ffffffffffffffff811115611db457600080fd5b611dc088828901611b41565b92509250509295509295909350565b600060208284031215611de157600080fd5b6000611def84828501611b8b565b91505092915050565b600060208284031215611e0a57600080fd5b6000611e1884828501611ba0565b91505092915050565b6000611e2d838361224e565b905092915050565b6000611e4183836122b8565b60408301905092915050565b611e56816126d3565b82525050565b611e6581612681565b82525050565b611e7481612681565b82525050565b6000611e85826125e6565b611e8f8185612621565b935083602082028501611ea1856125c6565b8060005b85811015611edd5784840389528151611ebe8582611e21565b9450611ec983612607565b925060208a01995050600181019050611ea5565b50829750879550505050505092915050565b6000611efa826125f1565b611f048185612632565b9350611f0f836125d6565b8060005b83811015611f40578151611f278882611e35565b9750611f3283612614565b925050600181019050611f13565b5085935050505092915050565b611f568161269f565b82525050565b611f658161269f565b82525050565b6000611f778385612665565b9350611f84838584612709565b82840190509392505050565b6000611f9b826125fc565b611fa58185612643565b9350611fb5818560208601612718565b611fbe8161274b565b840191505092915050565b6000611fd4826125fc565b611fde8185612654565b9350611fee818560208601612718565b611ff78161274b565b840191505092915050565b600061200f601483612670565b91507f43616e6e6f742066696e642070726f76696465720000000000000000000000006000830152602082019050919050565b600061204f602383612670565b91507f50726f7669646572206164647265737320616c7265616479207265676973746560008301527f72656400000000000000000000000000000000000000000000000000000000006020830152604082019050919050565b60006120b5601783612670565b91507f53656e646572206d7573742062652070726f76696465720000000000000000006000830152602082019050919050565b60006120f5601b83612670565b91507f536166654d6174683a206164646974696f6e206f766572666c6f7700000000006000830152602082019050919050565b6000612135601383612670565b91507f43616e6e6f742066696e6420636865636b6572000000000000000000000000006000830152602082019050919050565b6000612175601283612670565b91507f556e73756666696369656e742066756e647300000000000000000000000000006000830152602082019050919050565b60006121b5602083612670565b91507f50726f7669646572206e616d6520616c726561647920726567697374657265646000830152602082019050919050565b60006121f5602883612670565b91507f4461746120736f75726365206c656e677468206d757374206265206c6573732060008301527f7468616e203235360000000000000000000000000000000000000000000000006020830152604082019050919050565b600060808301600083015161226660008601826122e7565b506020830151848203602086015261227e8282611f90565b915050604083015161229360408601826122e7565b50606083015184820360608601526122ab8282611f90565b9150508091505092915050565b6040820160008201516122ce6000850182611e5c565b5060208201516122e16020850182611f4d565b50505050565b6122f0816126c9565b82525050565b6122ff816126c9565b82525050565b6000612312828486611f6b565b91508190509392505050565b60006020820190506123336000830184611e6b565b92915050565b600060208201905061234e6000830184611e4d565b92915050565b60006060820190506123696000830186611e4d565b6123766020830185611e6b565b61238360408301846122f6565b949350505050565b60006040820190506123a06000830185611e6b565b6123ad6020830184611f5c565b9392505050565b60006080820190506123c96000830187611e6b565b6123d660208301866122f6565b6123e36040830185611e6b565b6123f06060830184611f5c565b95945050505050565b600060208201905081810360008301526124138184611e7a565b905092915050565b600060208201905081810360008301526124358184611eef565b905092915050565b60006020820190506124526000830184611f5c565b92915050565b6000602082019050818103600083015261247181612002565b9050919050565b6000602082019050818103600083015261249181612042565b9050919050565b600060208201905081810360008301526124b1816120a8565b9050919050565b600060208201905081810360008301526124d1816120e8565b9050919050565b600060208201905081810360008301526124f181612128565b9050919050565b6000602082019050818103600083015261251181612168565b9050919050565b60006020820190508181036000830152612531816121a8565b9050919050565b60006020820190508181036000830152612551816121e8565b9050919050565b600060208201905061256d60008301846122f6565b92915050565b600060808201905061258860008301876122f6565b818103602083015261259a8186611fc9565b90506125a960408301856122f6565b81810360608301526125bb8184611fc9565b905095945050505050565b6000819050602082019050919050565b6000819050602082019050919050565b600081519050919050565b600081519050919050565b600081519050919050565b6000602082019050919050565b6000602082019050919050565b600082825260208201905092915050565b600082825260208201905092915050565b600082825260208201905092915050565b600082825260208201905092915050565b600081905092915050565b600082825260208201905092915050565b600061268c826126a9565b9050919050565b60008115159050919050565b6000819050919050565b600073ffffffffffffffffffffffffffffffffffffffff82169050919050565b6000819050919050565b60006126de826126e5565b9050919050565b60006126f0826126f7565b9050919050565b6000612702826126a9565b9050919050565b82818337600083830152505050565b60005b8381101561273657808201518184015260208101905061271b565b83811115612745576000848401525b50505050565b6000601f19601f8301169050919050565b61276581612681565b811461277057600080fd5b50565b61277c81612693565b811461278757600080fd5b50565b6127938161269f565b811461279e57600080fd5b50565b6127aa816126c9565b81146127b557600080fd5b5056fea2646970667358221220cbbb9963ced44c1f73ce50ad06ca23c3bf44953dd292e07b1d51504996a89b5464736f6c63430007010033",
  "immutableReferences": {},
  "source": "pragma solidity ^0.7.1;\npragma experimental ABIEncoderV2;\n\nimport \"./Intex.sol\";\nimport \"@openzeppelin/contracts/math/SafeMath.sol\";\n\n/// @dev Data Intelligence Exchange\ncontract Exchange {\n    using SafeMath for uint256;\n\n    /// @dev Owner of the contract\n    address public owner;\n\n    /// @dev Intex Token\n    Intex private token;\n\n    /// @dev Provider of data intelligence\n    struct Provider {\n        address addr;\n        bytes32 name;\n    }\n    address[] public providerAddresses;\n    mapping (address => Provider) public providerByAddress;\n    mapping (bytes32 => address) public providerAddressByName;\n\n    /// @dev Data Intelligence\n    struct DataIntelligence {\n        uint256 timestamp;\n        bytes source;\n        uint256 type_;\n        bytes data;\n    }\n    /// @dev Each provider has mapping to access Data Intelligence\n    mapping (address => bytes32[]) public dataIntelligenceHashes;\n    mapping (address => mapping (bytes32 => DataIntelligence)) public dataIntelligenceByHash;\n\n    /// @dev Price to add Data Intelligence\n    uint256 public addDataIntelligencePrice;\n\n    /// @dev Price to check Data Intelligence\n    uint256 public checkDataIntelligencePrice;\n\n    struct DataIntelligenceCheck {\n        address checker;\n        uint256 timestamp;\n        address provider;\n        bytes32 dataHash;\n    }\n    mapping (bytes32 => DataIntelligenceCheck) public checkByHash;\n\n    /// @dev Pass the Intex Token contract address\n    constructor(Intex _token)\n    {\n        owner = msg.sender;\n        token = _token;\n        addDataIntelligencePrice = uint256(1 * (10**3) * (10**18));\n        checkDataIntelligencePrice = uint256(1 * (10**2) * (10**18));\n    }\n\n    /// @dev Register sender as provider\n    function registerAsProvider(bytes32 name) external\n    {\n        require(providerByAddress[msg.sender].addr == address(0), \"Provider address already registered\");\n        require(providerAddressByName[name] == address(0), \"Provider name already registered\");\n\n        // Register provider\n        providerAddresses.push(msg.sender);\n        providerByAddress[msg.sender] = Provider(msg.sender, name);\n        providerAddressByName[name] = msg.sender;\n    }\n\n    /// @dev Get all providers\n    function getAllProviders() view external returns (Provider[] memory)\n    {\n        uint count = providerAddresses.length;\n        Provider[] memory _providers = new Provider[](count);\n        for (uint i=0; i<count; i++)\n        {\n            _providers[i] = providerByAddress[providerAddresses[i]];\n        }\n        return _providers;\n    }\n\n    /// @dev Providers can add (or update) Data Intelligence\n    /// TODO: Add a second method that takes hash as a parameter\n    function addDataIntelligence(bytes calldata dataSource, uint256 dataType, bytes calldata dataIntelligence) external\n    {\n        require(dataSource.length < 256, \"Data source length must be less than 256\");\n        bytes32 hash = keccak256(dataSource);\n\n        Provider memory provider = providerByAddress[msg.sender];\n        require(provider.addr == msg.sender, \"Sender must be provider\");\n\n        require(token.balanceOf(msg.sender) >= addDataIntelligencePrice, \"Unsufficient funds\");\n\n        // Store Data Intelligence\n        dataIntelligenceHashes[msg.sender].push(hash);\n        dataIntelligenceByHash[msg.sender][hash] = DataIntelligence(block.timestamp, dataSource, dataType, dataIntelligence);\n\n        // Payment\n        // Tokens do not burn, they are sent to owner!\n        token.transferFrom(msg.sender, owner, addDataIntelligencePrice);\n    }\n\n    /// @dev Get Data Intelligences of provider\n    function getDataIntelligences(address provider) view external returns (DataIntelligence[] memory)\n    {\n        uint count = dataIntelligenceHashes[provider].length;\n        DataIntelligence[] memory dataIntelligences = new DataIntelligence[](count);\n        for (uint i=0; i<count; i++)\n        {\n            dataIntelligences[i] = dataIntelligenceByHash[provider][dataIntelligenceHashes[provider][i]];\n        }\n        return dataIntelligences;\n    }\n\n    /// @dev Check Data Intelligence\n    function checkDataIntelligence(bytes32 checkHash, address provider, bytes32 dataHash) external\n    {\n        require(token.balanceOf(msg.sender) >= checkDataIntelligencePrice, \"Unsufficient funds\");\n\n        checkByHash[checkHash] = DataIntelligenceCheck(msg.sender, block.timestamp, provider, dataHash);\n\n        // Payment\n        token.transferFrom(msg.sender, provider, checkDataIntelligencePrice);\n    }\n\n    /// @dev Reward checker & provider for service\n    function reward(bytes32 checkHash, uint256 providerReward, uint256 checkerReward) public\n    {\n        require(token.balanceOf(msg.sender) >= providerReward.add(checkerReward), \"Unsufficient funds\");\n\n        DataIntelligenceCheck memory dataIntelligenceCheck = checkByHash[checkHash];\n        require(dataIntelligenceCheck.checker != address(0), \"Cannot find checker\");\n        require(dataIntelligenceCheck.provider != address(0), \"Cannot find provider\");\n\n        // Reward checker\n        token.transferFrom(msg.sender, dataIntelligenceCheck.checker, checkerReward);\n\n        // Reward provider\n        token.transferFrom(msg.sender, dataIntelligenceCheck.provider, providerReward);\n    }\n}\n",
  "sourcePath": "/home/irenee/work/dev/blockchain/adchain/contracts/Exchange.sol",
  "compiler": {
    "name": "solc",
    "version": "0.7.1+commit.f4a555be.Emscripten.clang"
  },
  "schemaVersion": "3.2.4",
  "updatedAt": "2021-01-16T13:51:36.322Z",
  "networkType": "ethereum",
  "devdoc": {
    "details": "Data Intelligence Exchange",
    "kind": "dev",
    "methods": {
      "addDataIntelligence(bytes,uint256,bytes)": {
        "details": "Providers can add (or update) Data Intelligence TODO: Add a second method that takes hash as a parameter"
      },
      "checkDataIntelligence(bytes32,address,bytes32)": {
        "details": "Check Data Intelligence"
      },
      "constructor": {
        "details": "Pass the Intex Token contract address"
      },
      "getAllProviders()": {
        "details": "Get all providers"
      },
      "getDataIntelligences(address)": {
        "details": "Get Data Intelligences of provider"
      },
      "registerAsProvider(bytes32)": {
        "details": "Register sender as provider"
      },
      "reward(bytes32,uint256,uint256)": {
        "details": "Reward checker & provider for service"
      }
    },
    "stateVariables": {
      "addDataIntelligencePrice": {
        "details": "Price to add Data Intelligence"
      },
      "checkDataIntelligencePrice": {
        "details": "Price to check Data Intelligence"
      },
      "dataIntelligenceHashes": {
        "details": "Each provider has mapping to access Data Intelligence"
      },
      "owner": {
        "details": "Owner of the contract"
      },
      "token": {
        "details": "Intex Token"
      }
    },
    "version": 1
  },
  "userdoc": {
    "kind": "user",
    "methods": {},
    "version": 1
  }
}