{
  "contractName": "Exchange",
  "abi": [
    {
      "inputs": [
        {
          "internalType": "contract Intex",
          "name": "_token",
          "type": "address"
        }
      ],
      "stateMutability": "nonpayable",
      "type": "constructor"
    },
    {
      "inputs": [
        {
          "internalType": "bytes32",
          "name": "",
          "type": "bytes32"
        }
      ],
      "name": "checkByHash",
      "outputs": [
        {
          "internalType": "address",
          "name": "checker",
          "type": "address"
        },
        {
          "internalType": "uint256",
          "name": "timestamp",
          "type": "uint256"
        },
        {
          "internalType": "address",
          "name": "provider",
          "type": "address"
        },
        {
          "internalType": "bytes32",
          "name": "dataHash",
          "type": "bytes32"
        }
      ],
      "stateMutability": "view",
      "type": "function",
      "constant": true
    },
    {
      "inputs": [
        {
          "internalType": "address",
          "name": "",
          "type": "address"
        },
        {
          "internalType": "bytes32",
          "name": "",
          "type": "bytes32"
        }
      ],
      "name": "dataIntelligenceByHash",
      "outputs": [
        {
          "internalType": "address",
          "name": "provider",
          "type": "address"
        },
        {
          "internalType": "uint256",
          "name": "timestamp",
          "type": "uint256"
        },
        {
          "internalType": "uint256",
          "name": "type_",
          "type": "uint256"
        },
        {
          "internalType": "uint256",
          "name": "format",
          "type": "uint256"
        },
        {
          "internalType": "bytes",
          "name": "data",
          "type": "bytes"
        }
      ],
      "stateMutability": "view",
      "type": "function",
      "constant": true
    },
    {
      "inputs": [
        {
          "internalType": "address",
          "name": "",
          "type": "address"
        },
        {
          "internalType": "uint256",
          "name": "",
          "type": "uint256"
        }
      ],
      "name": "dataIntelligenceHashes",
      "outputs": [
        {
          "internalType": "bytes32",
          "name": "",
          "type": "bytes32"
        }
      ],
      "stateMutability": "view",
      "type": "function",
      "constant": true
    },
    {
      "inputs": [],
      "name": "owner",
      "outputs": [
        {
          "internalType": "address",
          "name": "",
          "type": "address"
        }
      ],
      "stateMutability": "view",
      "type": "function",
      "constant": true
    },
    {
      "inputs": [
        {
          "internalType": "bytes32",
          "name": "",
          "type": "bytes32"
        }
      ],
      "name": "providerAddressByName",
      "outputs": [
        {
          "internalType": "address",
          "name": "",
          "type": "address"
        }
      ],
      "stateMutability": "view",
      "type": "function",
      "constant": true
    },
    {
      "inputs": [
        {
          "internalType": "uint256",
          "name": "",
          "type": "uint256"
        }
      ],
      "name": "providerAddresses",
      "outputs": [
        {
          "internalType": "address",
          "name": "",
          "type": "address"
        }
      ],
      "stateMutability": "view",
      "type": "function",
      "constant": true
    },
    {
      "inputs": [
        {
          "internalType": "address",
          "name": "",
          "type": "address"
        }
      ],
      "name": "providerByAddress",
      "outputs": [
        {
          "internalType": "address",
          "name": "addr",
          "type": "address"
        },
        {
          "internalType": "bytes32",
          "name": "name",
          "type": "bytes32"
        }
      ],
      "stateMutability": "view",
      "type": "function",
      "constant": true
    },
    {
      "inputs": [
        {
          "internalType": "bytes32",
          "name": "name",
          "type": "bytes32"
        }
      ],
      "name": "registerAsProvider",
      "outputs": [],
      "stateMutability": "nonpayable",
      "type": "function"
    },
    {
      "inputs": [],
      "name": "getAllProviders",
      "outputs": [
        {
          "components": [
            {
              "internalType": "address",
              "name": "addr",
              "type": "address"
            },
            {
              "internalType": "bytes32",
              "name": "name",
              "type": "bytes32"
            }
          ],
          "internalType": "struct Exchange.Provider[]",
          "name": "",
          "type": "tuple[]"
        }
      ],
      "stateMutability": "view",
      "type": "function",
      "constant": true
    },
    {
      "inputs": [
        {
          "internalType": "bytes32",
          "name": "_hash",
          "type": "bytes32"
        },
        {
          "internalType": "uint256",
          "name": "_type",
          "type": "uint256"
        },
        {
          "internalType": "uint256",
          "name": "_format",
          "type": "uint256"
        },
        {
          "internalType": "bytes",
          "name": "_data",
          "type": "bytes"
        }
      ],
      "name": "addDataIntelligence",
      "outputs": [],
      "stateMutability": "nonpayable",
      "type": "function"
    },
    {
      "inputs": [
        {
          "internalType": "address",
          "name": "provider",
          "type": "address"
        }
      ],
      "name": "getDataIntelligences",
      "outputs": [
        {
          "components": [
            {
              "internalType": "address",
              "name": "provider",
              "type": "address"
            },
            {
              "internalType": "uint256",
              "name": "timestamp",
              "type": "uint256"
            },
            {
              "internalType": "uint256",
              "name": "type_",
              "type": "uint256"
            },
            {
              "internalType": "uint256",
              "name": "format",
              "type": "uint256"
            },
            {
              "internalType": "bytes",
              "name": "data",
              "type": "bytes"
            }
          ],
          "internalType": "struct Exchange.DataIntelligence[]",
          "name": "",
          "type": "tuple[]"
        }
      ],
      "stateMutability": "view",
      "type": "function",
      "constant": true
    },
    {
      "inputs": [
        {
          "internalType": "bytes32",
          "name": "checkHash",
          "type": "bytes32"
        },
        {
          "internalType": "address",
          "name": "provider",
          "type": "address"
        },
        {
          "internalType": "bytes32",
          "name": "dataHash",
          "type": "bytes32"
        }
      ],
      "name": "checkDataIntelligence",
      "outputs": [],
      "stateMutability": "nonpayable",
      "type": "function"
    },
    {
      "inputs": [
        {
          "internalType": "bytes32",
          "name": "checkHash",
          "type": "bytes32"
        },
        {
          "internalType": "uint256",
          "name": "providerReward",
          "type": "uint256"
        },
        {
          "internalType": "uint256",
          "name": "checkerReward",
          "type": "uint256"
        }
      ],
      "name": "reward",
      "outputs": [],
      "stateMutability": "nonpayable",
      "type": "function"
    }
  ],
  "bytecode": "0x60806040523480156200001157600080fd5b5060405162002944380380620029448339818101604052810190620000379190620000d6565b336000806101000a81548173ffffffffffffffffffffffffffffffffffffffff021916908373ffffffffffffffffffffffffffffffffffffffff16021790555080600160006101000a81548173ffffffffffffffffffffffffffffffffffffffff021916908373ffffffffffffffffffffffffffffffffffffffff1602179055505062000164565b600081519050620000d0816200014a565b92915050565b600060208284031215620000e957600080fd5b6000620000f984828501620000bf565b91505092915050565b60006200010f826200012a565b9050919050565b6000620001238262000102565b9050919050565b600073ffffffffffffffffffffffffffffffffffffffff82169050919050565b620001558162000116565b81146200016157600080fd5b50565b6127d080620001746000396000f3fe608060405234801561001057600080fd5b50600436106100cf5760003560e01c8063618dd9a81161008c5780639901e6f0116100665780639901e6f01461023c578063c234ba7614610258578063e6fe61ab14610274578063f00002e3146102a5576100cf565b8063618dd9a8146101be57806368e3b918146101ee5780638da5cb5b1461021e576100cf565b80631bb4d049146100d45780632e673800146100f05780633bb4497c146101205780633d932f341461013e578063434840ba146101725780635fd913541461018e575b600080fd5b6100ee60048036038101906100e99190611dc8565b6102d8565b005b61010a60048036038101906101059190611d50565b61089d565b604051610117919061234e565b60405180910390f35b6101286108d0565b60405161013591906124a5565b60405180910390f35b61015860048036038101906101539190611caf565b610a4b565b604051610169959493929190612429565b60405180910390f35b61018c60048036038101906101879190611e17565b610b46565b005b6101a860048036038101906101a39190611ceb565b610ffe565b6040516101b591906124c7565b60405180910390f35b6101d860048036038101906101d39190611e97565b61102c565b6040516101e5919061234e565b60405180910390f35b61020860048036038101906102039190611c86565b611068565b6040516102159190612483565b60405180910390f35b610226611306565b604051610233919061234e565b60405180910390f35b61025660048036038101906102519190611d50565b61132a565b005b610272600480360381019061026d9190611d79565b611613565b005b61028e60048036038101906102899190611c86565b61195e565b60405161029c9291906123bb565b60405180910390f35b6102bf60048036038101906102ba9190611d50565b6119a2565b6040516102cf94939291906123e4565b60405180910390f35b6102eb8183611a1290919063ffffffff16565b600160009054906101000a900473ffffffffffffffffffffffffffffffffffffffff1673ffffffffffffffffffffffffffffffffffffffff166370a08231336040518263ffffffff1660e01b81526004016103469190612369565b60206040518083038186803b15801561035e57600080fd5b505afa158015610372573d6000803e3d6000fd5b505050506040513d601f19601f820116820180604052508101906103969190611ec0565b10156103d7576040517f08c379a00000000000000000000000000000000000000000000000000000000081526004016103ce90612582565b60405180910390fd5b6103df611a67565b600760008581526020019081526020016000206040518060800160405290816000820160009054906101000a900473ffffffffffffffffffffffffffffffffffffffff1673ffffffffffffffffffffffffffffffffffffffff1673ffffffffffffffffffffffffffffffffffffffff168152602001600182015481526020016002820160009054906101000a900473ffffffffffffffffffffffffffffffffffffffff1673ffffffffffffffffffffffffffffffffffffffff1673ffffffffffffffffffffffffffffffffffffffff1681526020016003820154815250509050600073ffffffffffffffffffffffffffffffffffffffff16816000015173ffffffffffffffffffffffffffffffffffffffff161415610533576040517f08c379a000000000000000000000000000000000000000000000000000000000815260040161052a90612562565b60405180910390fd5b600160009054906101000a900473ffffffffffffffffffffffffffffffffffffffff1673ffffffffffffffffffffffffffffffffffffffff166323b872dd338360000151856040518463ffffffff1660e01b815260040161059693929190612384565b602060405180830381600087803b1580156105b057600080fd5b505af11580156105c4573d6000803e3d6000fd5b505050506040513d601f19601f820116820180604052508101906105e89190611d27565b506105f1611abe565b60066000836040015173ffffffffffffffffffffffffffffffffffffffff1673ffffffffffffffffffffffffffffffffffffffff1681526020019081526020016000206000836060015181526020019081526020016000206040518060a00160405290816000820160009054906101000a900473ffffffffffffffffffffffffffffffffffffffff1673ffffffffffffffffffffffffffffffffffffffff1673ffffffffffffffffffffffffffffffffffffffff168152602001600182015481526020016002820154815260200160038201548152602001600482018054600181600116156101000203166002900480601f0160208091040260200160405190810160405280929190818152602001828054600181600116156101000203166002900480156107615780601f1061073657610100808354040283529160200191610761565b820191906000526020600020905b81548152906001019060200180831161074457829003601f168201915b5050505050815250509050600073ffffffffffffffffffffffffffffffffffffffff16816000015173ffffffffffffffffffffffffffffffffffffffff1614156107e0576040517f08c379a00000000000000000000000000000000000000000000000000000000081526004016107d7906124e2565b60405180910390fd5b600160009054906101000a900473ffffffffffffffffffffffffffffffffffffffff1673ffffffffffffffffffffffffffffffffffffffff166323b872dd338360000151876040518463ffffffff1660e01b815260040161084393929190612384565b602060405180830381600087803b15801561085d57600080fd5b505af1158015610871573d6000803e3d6000fd5b505050506040513d601f19601f820116820180604052508101906108959190611d27565b505050505050565b60046020528060005260406000206000915054906101000a900473ffffffffffffffffffffffffffffffffffffffff1681565b60606000600280549050905060608167ffffffffffffffff811180156108f557600080fd5b5060405190808252806020026020018201604052801561092f57816020015b61091c611b03565b8152602001906001900390816109145790505b50905060005b82811015610a4257600360006002838154811061094e57fe5b9060005260206000200160009054906101000a900473ffffffffffffffffffffffffffffffffffffffff1673ffffffffffffffffffffffffffffffffffffffff1673ffffffffffffffffffffffffffffffffffffffff1681526020019081526020016000206040518060400160405290816000820160009054906101000a900473ffffffffffffffffffffffffffffffffffffffff1673ffffffffffffffffffffffffffffffffffffffff1673ffffffffffffffffffffffffffffffffffffffff168152602001600182015481525050828281518110610a2a57fe5b60200260200101819052508080600101915050610935565b50809250505090565b6006602052816000526040600020602052806000526040600020600091509150508060000160009054906101000a900473ffffffffffffffffffffffffffffffffffffffff1690806001015490806002015490806003015490806004018054600181600116156101000203166002900480601f016020809104026020016040519081016040528092919081815260200182805460018160011615610100020316600290048015610b3c5780601f10610b1157610100808354040283529160200191610b3c565b820191906000526020600020905b815481529060010190602001808311610b1f57829003601f168201915b5050505050905085565b6000683635c9adc5dea000009050610b5c611b03565b600360003373ffffffffffffffffffffffffffffffffffffffff1673ffffffffffffffffffffffffffffffffffffffff1681526020019081526020016000206040518060400160405290816000820160009054906101000a900473ffffffffffffffffffffffffffffffffffffffff1673ffffffffffffffffffffffffffffffffffffffff1673ffffffffffffffffffffffffffffffffffffffff16815260200160018201548152505090503373ffffffffffffffffffffffffffffffffffffffff16816000015173ffffffffffffffffffffffffffffffffffffffff1614610c7a576040517f08c379a0000000000000000000000000000000000000000000000000000000008152600401610c7190612522565b60405180910390fd5b81600160009054906101000a900473ffffffffffffffffffffffffffffffffffffffff1673ffffffffffffffffffffffffffffffffffffffff166370a08231336040518263ffffffff1660e01b8152600401610cd69190612369565b60206040518083038186803b158015610cee57600080fd5b505afa158015610d02573d6000803e3d6000fd5b505050506040513d601f19601f82011682018060405250810190610d269190611ec0565b1015610d67576040517f08c379a0000000000000000000000000000000000000000000000000000000008152600401610d5e90612582565b60405180910390fd5b600560003373ffffffffffffffffffffffffffffffffffffffff1673ffffffffffffffffffffffffffffffffffffffff1681526020019081526020016000208790806001815401808255809150506001900390600052602060002001600090919091909150556040518060a001604052803373ffffffffffffffffffffffffffffffffffffffff16815260200142815260200187815260200186815260200185858080601f016020809104026020016040519081016040528093929190818152602001838380828437600081840152601f19601f82011690508083019250505050505050815250600660003373ffffffffffffffffffffffffffffffffffffffff1673ffffffffffffffffffffffffffffffffffffffff168152602001908152602001600020600089815260200190815260200160002060008201518160000160006101000a81548173ffffffffffffffffffffffffffffffffffffffff021916908373ffffffffffffffffffffffffffffffffffffffff1602179055506020820151816001015560408201518160020155606082015181600301556080820151816004019080519060200190610f1f929190611b36565b50905050600160009054906101000a900473ffffffffffffffffffffffffffffffffffffffff1673ffffffffffffffffffffffffffffffffffffffff166323b872dd3360008054906101000a900473ffffffffffffffffffffffffffffffffffffffff16856040518463ffffffff1660e01b8152600401610fa293929190612384565b602060405180830381600087803b158015610fbc57600080fd5b505af1158015610fd0573d6000803e3d6000fd5b505050506040513d601f19601f82011682018060405250810190610ff49190611d27565b5050505050505050565b6005602052816000526040600020818154811061101757fe5b90600052602060002001600091509150505481565b6002818154811061103957fe5b906000526020600020016000915054906101000a900473ffffffffffffffffffffffffffffffffffffffff1681565b60606000600560008473ffffffffffffffffffffffffffffffffffffffff1673ffffffffffffffffffffffffffffffffffffffff16815260200190815260200160002080549050905060608167ffffffffffffffff811180156110ca57600080fd5b5060405190808252806020026020018201604052801561110457816020015b6110f1611abe565b8152602001906001900390816110e95790505b50905060005b828110156112fb57600660008673ffffffffffffffffffffffffffffffffffffffff1673ffffffffffffffffffffffffffffffffffffffff1681526020019081526020016000206000600560008873ffffffffffffffffffffffffffffffffffffffff1673ffffffffffffffffffffffffffffffffffffffff168152602001908152602001600020838154811061119d57fe5b906000526020600020015481526020019081526020016000206040518060a00160405290816000820160009054906101000a900473ffffffffffffffffffffffffffffffffffffffff1673ffffffffffffffffffffffffffffffffffffffff1673ffffffffffffffffffffffffffffffffffffffff168152602001600182015481526020016002820154815260200160038201548152602001600482018054600181600116156101000203166002900480601f0160208091040260200160405190810160405280929190818152602001828054600181600116156101000203166002900480156112ce5780601f106112a3576101008083540402835291602001916112ce565b820191906000526020600020905b8154815290600101906020018083116112b157829003601f168201915b5050505050815250508282815181106112e357fe5b6020026020010181905250808060010191505061110a565b508092505050919050565b60008054906101000a900473ffffffffffffffffffffffffffffffffffffffff1681565b600073ffffffffffffffffffffffffffffffffffffffff16600360003373ffffffffffffffffffffffffffffffffffffffff1673ffffffffffffffffffffffffffffffffffffffff16815260200190815260200160002060000160009054906101000a900473ffffffffffffffffffffffffffffffffffffffff1673ffffffffffffffffffffffffffffffffffffffff16146113fb576040517f08c379a00000000000000000000000000000000000000000000000000000000081526004016113f290612502565b60405180910390fd5b600073ffffffffffffffffffffffffffffffffffffffff166004600083815260200190815260200160002060009054906101000a900473ffffffffffffffffffffffffffffffffffffffff1673ffffffffffffffffffffffffffffffffffffffff161461149d576040517f08c379a0000000000000000000000000000000000000000000000000000000008152600401611494906125a2565b60405180910390fd5b6002339080600181540180825580915050600190039060005260206000200160009091909190916101000a81548173ffffffffffffffffffffffffffffffffffffffff021916908373ffffffffffffffffffffffffffffffffffffffff16021790555060405180604001604052803373ffffffffffffffffffffffffffffffffffffffff16815260200182815250600360003373ffffffffffffffffffffffffffffffffffffffff1673ffffffffffffffffffffffffffffffffffffffff16815260200190815260200160002060008201518160000160006101000a81548173ffffffffffffffffffffffffffffffffffffffff021916908373ffffffffffffffffffffffffffffffffffffffff16021790555060208201518160010155905050336004600083815260200190815260200160002060006101000a81548173ffffffffffffffffffffffffffffffffffffffff021916908373ffffffffffffffffffffffffffffffffffffffff16021790555050565b61161b611abe565b600660008473ffffffffffffffffffffffffffffffffffffffff1673ffffffffffffffffffffffffffffffffffffffff16815260200190815260200160002060008381526020019081526020016000206040518060a00160405290816000820160009054906101000a900473ffffffffffffffffffffffffffffffffffffffff1673ffffffffffffffffffffffffffffffffffffffff1673ffffffffffffffffffffffffffffffffffffffff168152602001600182015481526020016002820154815260200160038201548152602001600482018054600181600116156101000203166002900480601f0160208091040260200160405190810160405280929190818152602001828054600181600116156101000203166002900480156117835780601f1061175857610100808354040283529160200191611783565b820191906000526020600020905b81548152906001019060200180831161176657829003601f168201915b505050505081525050905060405180608001604052803373ffffffffffffffffffffffffffffffffffffffff1681526020014281526020018473ffffffffffffffffffffffffffffffffffffffff168152602001838152506007600086815260200190815260200160002060008201518160000160006101000a81548173ffffffffffffffffffffffffffffffffffffffff021916908373ffffffffffffffffffffffffffffffffffffffff1602179055506020820151816001015560408201518160020160006101000a81548173ffffffffffffffffffffffffffffffffffffffff021916908373ffffffffffffffffffffffffffffffffffffffff16021790555060608201518160030155905050600068056bc75e2d631000009050600160009054906101000a900473ffffffffffffffffffffffffffffffffffffffff1673ffffffffffffffffffffffffffffffffffffffff166323b872dd338460000151846040518463ffffffff1660e01b815260040161190493929190612384565b602060405180830381600087803b15801561191e57600080fd5b505af1158015611932573d6000803e3d6000fd5b505050506040513d601f19601f820116820180604052508101906119569190611d27565b505050505050565b60036020528060005260406000206000915090508060000160009054906101000a900473ffffffffffffffffffffffffffffffffffffffff16908060010154905082565b60076020528060005260406000206000915090508060000160009054906101000a900473ffffffffffffffffffffffffffffffffffffffff16908060010154908060020160009054906101000a900473ffffffffffffffffffffffffffffffffffffffff16908060030154905084565b600080828401905083811015611a5d576040517f08c379a0000000000000000000000000000000000000000000000000000000008152600401611a5490612542565b60405180910390fd5b8091505092915050565b6040518060800160405280600073ffffffffffffffffffffffffffffffffffffffff16815260200160008152602001600073ffffffffffffffffffffffffffffffffffffffff168152602001600080191681525090565b6040518060a00160405280600073ffffffffffffffffffffffffffffffffffffffff168152602001600081526020016000815260200160008152602001606081525090565b6040518060400160405280600073ffffffffffffffffffffffffffffffffffffffff168152602001600080191681525090565b828054600181600116156101000203166002900490600052602060002090601f016020900481019282601f10611b7757805160ff1916838001178555611ba5565b82800160010185558215611ba5579182015b82811115611ba4578251825591602001919060010190611b89565b5b509050611bb29190611bb6565b5090565b5b80821115611bcf576000816000905550600101611bb7565b5090565b600081359050611be28161273e565b92915050565b600081519050611bf781612755565b92915050565b600081359050611c0c8161276c565b92915050565b60008083601f840112611c2457600080fd5b8235905067ffffffffffffffff811115611c3d57600080fd5b602083019150836001820283011115611c5557600080fd5b9250929050565b600081359050611c6b81612783565b92915050565b600081519050611c8081612783565b92915050565b600060208284031215611c9857600080fd5b6000611ca684828501611bd3565b91505092915050565b60008060408385031215611cc257600080fd5b6000611cd085828601611bd3565b9250506020611ce185828601611bfd565b9150509250929050565b60008060408385031215611cfe57600080fd5b6000611d0c85828601611bd3565b9250506020611d1d85828601611c5c565b9150509250929050565b600060208284031215611d3957600080fd5b6000611d4784828501611be8565b91505092915050565b600060208284031215611d6257600080fd5b6000611d7084828501611bfd565b91505092915050565b600080600060608486031215611d8e57600080fd5b6000611d9c86828701611bfd565b9350506020611dad86828701611bd3565b9250506040611dbe86828701611bfd565b9150509250925092565b600080600060608486031215611ddd57600080fd5b6000611deb86828701611bfd565b9350506020611dfc86828701611c5c565b9250506040611e0d86828701611c5c565b9150509250925092565b600080600080600060808688031215611e2f57600080fd5b6000611e3d88828901611bfd565b9550506020611e4e88828901611c5c565b9450506040611e5f88828901611c5c565b935050606086013567ffffffffffffffff811115611e7c57600080fd5b611e8888828901611c12565b92509250509295509295909350565b600060208284031215611ea957600080fd5b6000611eb784828501611c5c565b91505092915050565b600060208284031215611ed257600080fd5b6000611ee084828501611c71565b91505092915050565b6000611ef5838361228b565b905092915050565b6000611f098383612301565b60408301905092915050565b611f1e816126c4565b82525050565b611f2d81612672565b82525050565b611f3c81612672565b82525050565b6000611f4d826125e2565b611f57818561261d565b935083602082028501611f69856125c2565b8060005b85811015611fa55784840389528151611f868582611ee9565b9450611f9183612603565b925060208a01995050600181019050611f6d565b50829750879550505050505092915050565b6000611fc2826125ed565b611fcc818561262e565b9350611fd7836125d2565b8060005b83811015612008578151611fef8882611efd565b9750611ffa83612610565b925050600181019050611fdb565b5085935050505092915050565b61201e81612690565b82525050565b61202d81612690565b82525050565b600061203e826125f8565b612048818561263f565b93506120588185602086016126fa565b6120618161272d565b840191505092915050565b6000612077826125f8565b6120818185612650565b93506120918185602086016126fa565b61209a8161272d565b840191505092915050565b60006120b2601483612661565b91507f43616e6e6f742066696e642070726f76696465720000000000000000000000006000830152602082019050919050565b60006120f2602383612661565b91507f50726f7669646572206164647265737320616c7265616479207265676973746560008301527f72656400000000000000000000000000000000000000000000000000000000006020830152604082019050919050565b6000612158601783612661565b91507f53656e646572206d7573742062652070726f76696465720000000000000000006000830152602082019050919050565b6000612198601b83612661565b91507f536166654d6174683a206164646974696f6e206f766572666c6f7700000000006000830152602082019050919050565b60006121d8601383612661565b91507f43616e6e6f742066696e6420636865636b6572000000000000000000000000006000830152602082019050919050565b6000612218601283612661565b91507f556e73756666696369656e742066756e647300000000000000000000000000006000830152602082019050919050565b6000612258602083612661565b91507f50726f7669646572206e616d6520616c726561647920726567697374657265646000830152602082019050919050565b600060a0830160008301516122a36000860182611f24565b5060208301516122b66020860182612330565b5060408301516122c96040860182612330565b5060608301516122dc6060860182612330565b50608083015184820360808601526122f48282612033565b9150508091505092915050565b6040820160008201516123176000850182611f24565b50602082015161232a6020850182612015565b50505050565b612339816126ba565b82525050565b612348816126ba565b82525050565b60006020820190506123636000830184611f33565b92915050565b600060208201905061237e6000830184611f15565b92915050565b60006060820190506123996000830186611f15565b6123a66020830185611f33565b6123b3604083018461233f565b949350505050565b60006040820190506123d06000830185611f33565b6123dd6020830184612024565b9392505050565b60006080820190506123f96000830187611f33565b612406602083018661233f565b6124136040830185611f33565b6124206060830184612024565b95945050505050565b600060a08201905061243e6000830188611f33565b61244b602083018761233f565b612458604083018661233f565b612465606083018561233f565b8181036080830152612477818461206c565b90509695505050505050565b6000602082019050818103600083015261249d8184611f42565b905092915050565b600060208201905081810360008301526124bf8184611fb7565b905092915050565b60006020820190506124dc6000830184612024565b92915050565b600060208201905081810360008301526124fb816120a5565b9050919050565b6000602082019050818103600083015261251b816120e5565b9050919050565b6000602082019050818103600083015261253b8161214b565b9050919050565b6000602082019050818103600083015261255b8161218b565b9050919050565b6000602082019050818103600083015261257b816121cb565b9050919050565b6000602082019050818103600083015261259b8161220b565b9050919050565b600060208201905081810360008301526125bb8161224b565b9050919050565b6000819050602082019050919050565b6000819050602082019050919050565b600081519050919050565b600081519050919050565b600081519050919050565b6000602082019050919050565b6000602082019050919050565b600082825260208201905092915050565b600082825260208201905092915050565b600082825260208201905092915050565b600082825260208201905092915050565b600082825260208201905092915050565b600061267d8261269a565b9050919050565b60008115159050919050565b6000819050919050565b600073ffffffffffffffffffffffffffffffffffffffff82169050919050565b6000819050919050565b60006126cf826126d6565b9050919050565b60006126e1826126e8565b9050919050565b60006126f38261269a565b9050919050565b60005b838110156127185780820151818401526020810190506126fd565b83811115612727576000848401525b50505050565b6000601f19601f8301169050919050565b61274781612672565b811461275257600080fd5b50565b61275e81612684565b811461276957600080fd5b50565b61277581612690565b811461278057600080fd5b50565b61278c816126ba565b811461279757600080fd5b5056fea2646970667358221220451538f48ea5f1c7999f0ff17a10c4c156bc6021e5ed48b19b76047012c44bc164736f6c63430007010033",
  "immutableReferences": {},
  "source": "pragma solidity ^0.7.1;\npragma experimental ABIEncoderV2;\n\nimport \"./Intex.sol\";\nimport \"@openzeppelin/contracts/math/SafeMath.sol\";\n\n/// @dev Data Intelligence Exchange\ncontract Exchange {\n    using SafeMath for uint256;\n\n    /// @dev Owner of the contract\n    address public owner;\n\n    /// @dev Intex Token\n    Intex private token;\n\n    /// @dev Provider of data intelligence\n    struct Provider {\n        address addr;\n        bytes32 name;\n    }\n    address[] public providerAddresses;\n    mapping (address => Provider) public providerByAddress;\n    mapping (bytes32 => address) public providerAddressByName;\n\n    /// @dev Data Intelligence\n    struct DataIntelligence {\n        address provider;\n        uint256 timestamp;\n        uint256 type_;\n        uint256 format;\n        bytes data;\n    }\n    /// @dev Each provider has mapping to access Data Intelligence\n    mapping (address => bytes32[]) public dataIntelligenceHashes;\n    mapping (address => mapping (bytes32 => DataIntelligence)) public dataIntelligenceByHash;\n\n    struct DataIntelligenceCheck {\n        address checker;\n        uint256 timestamp;\n        address provider;\n        bytes32 dataHash;\n    }\n    mapping (bytes32 => DataIntelligenceCheck) public checkByHash;\n\n    /// @dev Pass the Intex Token contract address\n    constructor(Intex _token)\n    {\n        owner = msg.sender;\n        token = _token;\n    }\n\n    /// @dev Register sender as provider\n    function registerAsProvider(bytes32 name) external\n    {\n        require(providerByAddress[msg.sender].addr == address(0), \"Provider address already registered\");\n        require(providerAddressByName[name] == address(0), \"Provider name already registered\");\n\n        // Register provider\n        providerAddresses.push(msg.sender);\n        providerByAddress[msg.sender] = Provider(msg.sender, name);\n        providerAddressByName[name] = msg.sender;\n    }\n\n    /// @dev Get all providers\n    function getAllProviders() view external returns (Provider[] memory)\n    {\n        uint count = providerAddresses.length;\n        Provider[] memory _providers = new Provider[](count);\n        for (uint i=0; i<count; i++)\n        {\n            _providers[i] = providerByAddress[providerAddresses[i]];\n        }\n        return _providers;\n    }\n\n    /// @dev Providers can add (or update) Data Intelligence\n    function addDataIntelligence(bytes32 _hash, uint256 _type, uint256 _format, bytes calldata _data) external\n    {\n        uint256 oneThousand = uint256(1 * (10**3) * (10**18));\n\n        Provider memory provider = providerByAddress[msg.sender];\n\n        require(provider.addr == msg.sender, \"Sender must be provider\");\n        require(token.balanceOf(msg.sender) >= oneThousand, \"Unsufficient funds\");\n\n        // Store Data Intelligence\n        dataIntelligenceHashes[msg.sender].push(_hash);\n        dataIntelligenceByHash[msg.sender][_hash] = DataIntelligence(msg.sender, block.timestamp, _type, _format, _data);\n\n        // Payment\n        // Tokens do not burn, they are sent to owner!\n        token.transferFrom(msg.sender, owner, oneThousand);\n    }\n\n    /// @dev Get Data Intelligences of provider\n    function getDataIntelligences(address provider) view external returns (DataIntelligence[] memory)\n    {\n        uint count = dataIntelligenceHashes[provider].length;\n        DataIntelligence[] memory dataIntelligences = new DataIntelligence[](count);\n        for (uint i=0; i<count; i++)\n        {\n            dataIntelligences[i] = dataIntelligenceByHash[provider][dataIntelligenceHashes[provider][i]];\n        }\n        return dataIntelligences;\n    }\n\n    /// @dev Check Data Intelligence\n    function checkDataIntelligence(bytes32 checkHash, address provider, bytes32 dataHash) external\n    {\n        DataIntelligence memory dataIntelligence = dataIntelligenceByHash[provider][dataHash];\n\n        checkByHash[checkHash] = DataIntelligenceCheck(msg.sender, block.timestamp, provider, dataHash);\n\n        // Payment\n        uint256 oneHundred = uint256(1 * (10**2) * (10**18));\n        token.transferFrom(msg.sender, dataIntelligence.provider, oneHundred);\n    }\n\n    /// @dev Reward checker & provider for service\n    function reward(bytes32 checkHash, uint256 providerReward, uint256 checkerReward) public\n    {\n        require(token.balanceOf(msg.sender) >= providerReward.add(checkerReward), \"Unsufficient funds\");\n\n        // Reward checker\n        DataIntelligenceCheck memory dataIntelligenceCheck = checkByHash[checkHash];\n        require(dataIntelligenceCheck.checker != address(0), \"Cannot find checker\");\n\n        token.transferFrom(msg.sender, dataIntelligenceCheck.checker, checkerReward);\n\n        // Reward provider\n        DataIntelligence memory dataIntelligence = dataIntelligenceByHash[dataIntelligenceCheck.provider][dataIntelligenceCheck.dataHash];\n        require(dataIntelligence.provider != address(0), \"Cannot find provider\");\n\n        token.transferFrom(msg.sender, dataIntelligence.provider, providerReward);\n    }\n}\n",
  "sourcePath": "/home/irenee/work/dev/blockchain/adchain/contracts/Exchange.sol",
  "compiler": {
    "name": "solc",
    "version": "0.7.1+commit.f4a555be.Emscripten.clang"
  },
  "schemaVersion": "3.2.4",
  "updatedAt": "2020-11-21T13:47:51.433Z",
  "networkType": "ethereum",
  "devdoc": {
    "details": "Data Intelligence Exchange",
    "kind": "dev",
    "methods": {
      "addDataIntelligence(bytes32,uint256,uint256,bytes)": {
        "details": "Providers can add (or update) Data Intelligence"
      },
      "checkDataIntelligence(bytes32,address,bytes32)": {
        "details": "Check Data Intelligence"
      },
      "constructor": {
        "details": "Pass the Intex Token contract address"
      },
      "getAllProviders()": {
        "details": "Get all providers"
      },
      "getDataIntelligences(address)": {
        "details": "Get Data Intelligences of provider"
      },
      "registerAsProvider(bytes32)": {
        "details": "Register sender as provider"
      },
      "reward(bytes32,uint256,uint256)": {
        "details": "Reward checker & provider for service"
      }
    },
    "stateVariables": {
      "dataIntelligenceHashes": {
        "details": "Each provider has mapping to access Data Intelligence"
      },
      "owner": {
        "details": "Owner of the contract"
      },
      "token": {
        "details": "Intex Token"
      }
    },
    "version": 1
  },
  "userdoc": {
    "kind": "user",
    "methods": {},
    "version": 1
  }
}