{
  "contractName": "Exchange",
  "abi": [
    {
      "inputs": [
        {
          "internalType": "contract Intex",
          "name": "_token",
          "type": "address"
        }
      ],
      "stateMutability": "nonpayable",
      "type": "constructor"
    },
    {
      "inputs": [
        {
          "internalType": "bytes32",
          "name": "",
          "type": "bytes32"
        }
      ],
      "name": "checkByHash",
      "outputs": [
        {
          "internalType": "address",
          "name": "checker",
          "type": "address"
        },
        {
          "internalType": "uint256",
          "name": "timestamp",
          "type": "uint256"
        },
        {
          "internalType": "address",
          "name": "provider",
          "type": "address"
        },
        {
          "internalType": "bytes32",
          "name": "dataHash",
          "type": "bytes32"
        }
      ],
      "stateMutability": "view",
      "type": "function",
      "constant": true
    },
    {
      "inputs": [
        {
          "internalType": "address",
          "name": "",
          "type": "address"
        },
        {
          "internalType": "bytes32",
          "name": "",
          "type": "bytes32"
        }
      ],
      "name": "dataIntelligenceByHash",
      "outputs": [
        {
          "internalType": "uint256",
          "name": "timestamp",
          "type": "uint256"
        },
        {
          "internalType": "bytes",
          "name": "source",
          "type": "bytes"
        },
        {
          "internalType": "uint256",
          "name": "type_",
          "type": "uint256"
        },
        {
          "internalType": "bytes",
          "name": "data",
          "type": "bytes"
        }
      ],
      "stateMutability": "view",
      "type": "function",
      "constant": true
    },
    {
      "inputs": [
        {
          "internalType": "address",
          "name": "",
          "type": "address"
        },
        {
          "internalType": "uint256",
          "name": "",
          "type": "uint256"
        }
      ],
      "name": "dataIntelligenceHashes",
      "outputs": [
        {
          "internalType": "bytes32",
          "name": "",
          "type": "bytes32"
        }
      ],
      "stateMutability": "view",
      "type": "function",
      "constant": true
    },
    {
      "inputs": [],
      "name": "owner",
      "outputs": [
        {
          "internalType": "address",
          "name": "",
          "type": "address"
        }
      ],
      "stateMutability": "view",
      "type": "function",
      "constant": true
    },
    {
      "inputs": [
        {
          "internalType": "bytes32",
          "name": "",
          "type": "bytes32"
        }
      ],
      "name": "providerAddressByName",
      "outputs": [
        {
          "internalType": "address",
          "name": "",
          "type": "address"
        }
      ],
      "stateMutability": "view",
      "type": "function",
      "constant": true
    },
    {
      "inputs": [
        {
          "internalType": "uint256",
          "name": "",
          "type": "uint256"
        }
      ],
      "name": "providerAddresses",
      "outputs": [
        {
          "internalType": "address",
          "name": "",
          "type": "address"
        }
      ],
      "stateMutability": "view",
      "type": "function",
      "constant": true
    },
    {
      "inputs": [
        {
          "internalType": "address",
          "name": "",
          "type": "address"
        }
      ],
      "name": "providerByAddress",
      "outputs": [
        {
          "internalType": "address",
          "name": "addr",
          "type": "address"
        },
        {
          "internalType": "bytes32",
          "name": "name",
          "type": "bytes32"
        }
      ],
      "stateMutability": "view",
      "type": "function",
      "constant": true
    },
    {
      "inputs": [
        {
          "internalType": "bytes32",
          "name": "name",
          "type": "bytes32"
        }
      ],
      "name": "registerAsProvider",
      "outputs": [],
      "stateMutability": "nonpayable",
      "type": "function"
    },
    {
      "inputs": [],
      "name": "getAllProviders",
      "outputs": [
        {
          "components": [
            {
              "internalType": "address",
              "name": "addr",
              "type": "address"
            },
            {
              "internalType": "bytes32",
              "name": "name",
              "type": "bytes32"
            }
          ],
          "internalType": "struct Exchange.Provider[]",
          "name": "",
          "type": "tuple[]"
        }
      ],
      "stateMutability": "view",
      "type": "function",
      "constant": true
    },
    {
      "inputs": [
        {
          "internalType": "bytes",
          "name": "dataSource",
          "type": "bytes"
        },
        {
          "internalType": "uint256",
          "name": "dataType",
          "type": "uint256"
        },
        {
          "internalType": "bytes",
          "name": "dataIntelligence",
          "type": "bytes"
        }
      ],
      "name": "addDataIntelligence",
      "outputs": [],
      "stateMutability": "nonpayable",
      "type": "function"
    },
    {
      "inputs": [
        {
          "internalType": "address",
          "name": "provider",
          "type": "address"
        }
      ],
      "name": "getDataIntelligences",
      "outputs": [
        {
          "components": [
            {
              "internalType": "uint256",
              "name": "timestamp",
              "type": "uint256"
            },
            {
              "internalType": "bytes",
              "name": "source",
              "type": "bytes"
            },
            {
              "internalType": "uint256",
              "name": "type_",
              "type": "uint256"
            },
            {
              "internalType": "bytes",
              "name": "data",
              "type": "bytes"
            }
          ],
          "internalType": "struct Exchange.DataIntelligence[]",
          "name": "",
          "type": "tuple[]"
        }
      ],
      "stateMutability": "view",
      "type": "function",
      "constant": true
    },
    {
      "inputs": [
        {
          "internalType": "bytes32",
          "name": "checkHash",
          "type": "bytes32"
        },
        {
          "internalType": "address",
          "name": "provider",
          "type": "address"
        },
        {
          "internalType": "bytes32",
          "name": "dataHash",
          "type": "bytes32"
        }
      ],
      "name": "checkDataIntelligence",
      "outputs": [],
      "stateMutability": "nonpayable",
      "type": "function"
    },
    {
      "inputs": [
        {
          "internalType": "bytes32",
          "name": "checkHash",
          "type": "bytes32"
        },
        {
          "internalType": "uint256",
          "name": "providerReward",
          "type": "uint256"
        },
        {
          "internalType": "uint256",
          "name": "checkerReward",
          "type": "uint256"
        }
      ],
      "name": "reward",
      "outputs": [],
      "stateMutability": "nonpayable",
      "type": "function"
    }
  ],
  "bytecode": "0x60806040523480156200001157600080fd5b5060405162002802380380620028028339818101604052810190620000379190620000d6565b336000806101000a81548173ffffffffffffffffffffffffffffffffffffffff021916908373ffffffffffffffffffffffffffffffffffffffff16021790555080600160006101000a81548173ffffffffffffffffffffffffffffffffffffffff021916908373ffffffffffffffffffffffffffffffffffffffff1602179055505062000164565b600081519050620000d0816200014a565b92915050565b600060208284031215620000e957600080fd5b6000620000f984828501620000bf565b91505092915050565b60006200010f826200012a565b9050919050565b6000620001238262000102565b9050919050565b600073ffffffffffffffffffffffffffffffffffffffff82169050919050565b620001558162000116565b81146200016157600080fd5b50565b61268e80620001746000396000f3fe608060405234801561001057600080fd5b50600436106100cf5760003560e01c806368e3b9181161008c578063bb512a8211610066578063bb512a821461023b578063c234ba7614610257578063e6fe61ab14610273578063f00002e3146102a4576100cf565b806368e3b918146101d15780638da5cb5b146102015780639901e6f01461021f576100cf565b80631bb4d049146100d45780632e673800146100f05780633bb4497c146101205780633d932f341461013e5780635fd9135414610171578063618dd9a8146101a1575b600080fd5b6100ee60048036038101906100e99190611bb2565b6102d7565b005b61010a60048036038101906101059190611b3a565b610718565b60405161011791906121d9565b60405180910390f35b61012861074b565b60405161013591906122d6565b60405180910390f35b61015860048036038101906101539190611a99565b6108c6565b6040516101689493929190612413565b60405180910390f35b61018b60048036038101906101869190611ad5565b610a33565b60405161019891906122f8565b60405180910390f35b6101bb60048036038101906101b69190611c8a565b610a61565b6040516101c891906121d9565b60405180910390f35b6101eb60048036038101906101e69190611a70565b610a9d565b6040516101f891906122b4565b60405180910390f35b610209610d7d565b60405161021691906121d9565b60405180910390f35b61023960048036038101906102349190611b3a565b610da1565b005b61025560048036038101906102509190611c01565b61108a565b005b610271600480360381019061026c9190611b63565b61159a565b005b61028d60048036038101906102889190611a70565b611765565b60405161029b929190612246565b60405180910390f35b6102be60048036038101906102b99190611b3a565b6117a9565b6040516102ce949392919061226f565b60405180910390f35b6102ea818361181990919063ffffffff16565b600160009054906101000a900473ffffffffffffffffffffffffffffffffffffffff1673ffffffffffffffffffffffffffffffffffffffff166370a08231336040518263ffffffff1660e01b815260040161034591906121f4565b60206040518083038186803b15801561035d57600080fd5b505afa158015610371573d6000803e3d6000fd5b505050506040513d601f19601f820116820180604052508101906103959190611cb3565b10156103d6576040517f08c379a00000000000000000000000000000000000000000000000000000000081526004016103cd906123b3565b60405180910390fd5b6103de61186e565b600760008581526020019081526020016000206040518060800160405290816000820160009054906101000a900473ffffffffffffffffffffffffffffffffffffffff1673ffffffffffffffffffffffffffffffffffffffff1673ffffffffffffffffffffffffffffffffffffffff168152602001600182015481526020016002820160009054906101000a900473ffffffffffffffffffffffffffffffffffffffff1673ffffffffffffffffffffffffffffffffffffffff1673ffffffffffffffffffffffffffffffffffffffff1681526020016003820154815250509050600073ffffffffffffffffffffffffffffffffffffffff16816000015173ffffffffffffffffffffffffffffffffffffffff161415610532576040517f08c379a000000000000000000000000000000000000000000000000000000000815260040161052990612393565b60405180910390fd5b600073ffffffffffffffffffffffffffffffffffffffff16816040015173ffffffffffffffffffffffffffffffffffffffff1614156105a6576040517f08c379a000000000000000000000000000000000000000000000000000000000815260040161059d90612313565b60405180910390fd5b600160009054906101000a900473ffffffffffffffffffffffffffffffffffffffff1673ffffffffffffffffffffffffffffffffffffffff166323b872dd338360000151856040518463ffffffff1660e01b81526004016106099392919061220f565b602060405180830381600087803b15801561062357600080fd5b505af1158015610637573d6000803e3d6000fd5b505050506040513d601f19601f8201168201806040525081019061065b9190611b11565b50600160009054906101000a900473ffffffffffffffffffffffffffffffffffffffff1673ffffffffffffffffffffffffffffffffffffffff166323b872dd338360400151866040518463ffffffff1660e01b81526004016106bf9392919061220f565b602060405180830381600087803b1580156106d957600080fd5b505af11580156106ed573d6000803e3d6000fd5b505050506040513d601f19601f820116820180604052508101906107119190611b11565b5050505050565b60046020528060005260406000206000915054906101000a900473ffffffffffffffffffffffffffffffffffffffff1681565b60606000600280549050905060608167ffffffffffffffff8111801561077057600080fd5b506040519080825280602002602001820160405280156107aa57816020015b6107976118c5565b81526020019060019003908161078f5790505b50905060005b828110156108bd5760036000600283815481106107c957fe5b9060005260206000200160009054906101000a900473ffffffffffffffffffffffffffffffffffffffff1673ffffffffffffffffffffffffffffffffffffffff1673ffffffffffffffffffffffffffffffffffffffff1681526020019081526020016000206040518060400160405290816000820160009054906101000a900473ffffffffffffffffffffffffffffffffffffffff1673ffffffffffffffffffffffffffffffffffffffff1673ffffffffffffffffffffffffffffffffffffffff1681526020016001820154815250508282815181106108a557fe5b602002602001018190525080806001019150506107b0565b50809250505090565b600660205281600052604060002060205280600052604060002060009150915050806000015490806001018054600181600116156101000203166002900480601f0160208091040260200160405190810160405280929190818152602001828054600181600116156101000203166002900480156109855780601f1061095a57610100808354040283529160200191610985565b820191906000526020600020905b81548152906001019060200180831161096857829003601f168201915b505050505090806002015490806003018054600181600116156101000203166002900480601f016020809104026020016040519081016040528092919081815260200182805460018160011615610100020316600290048015610a295780601f106109fe57610100808354040283529160200191610a29565b820191906000526020600020905b815481529060010190602001808311610a0c57829003601f168201915b5050505050905084565b60056020528160005260406000208181548110610a4c57fe5b90600052602060002001600091509150505481565b60028181548110610a6e57fe5b906000526020600020016000915054906101000a900473ffffffffffffffffffffffffffffffffffffffff1681565b60606000600560008473ffffffffffffffffffffffffffffffffffffffff1673ffffffffffffffffffffffffffffffffffffffff16815260200190815260200160002080549050905060608167ffffffffffffffff81118015610aff57600080fd5b50604051908082528060200260200182016040528015610b3957816020015b610b266118f8565b815260200190600190039081610b1e5790505b50905060005b82811015610d7257600660008673ffffffffffffffffffffffffffffffffffffffff1673ffffffffffffffffffffffffffffffffffffffff1681526020019081526020016000206000600560008873ffffffffffffffffffffffffffffffffffffffff1673ffffffffffffffffffffffffffffffffffffffff1681526020019081526020016000208381548110610bd257fe5b9060005260206000200154815260200190815260200160002060405180608001604052908160008201548152602001600182018054600181600116156101000203166002900480601f016020809104026020016040519081016040528092919081815260200182805460018160011615610100020316600290048015610c995780601f10610c6e57610100808354040283529160200191610c99565b820191906000526020600020905b815481529060010190602001808311610c7c57829003601f168201915b5050505050815260200160028201548152602001600382018054600181600116156101000203166002900480601f016020809104026020016040519081016040528092919081815260200182805460018160011615610100020316600290048015610d455780601f10610d1a57610100808354040283529160200191610d45565b820191906000526020600020905b815481529060010190602001808311610d2857829003601f168201915b505050505081525050828281518110610d5a57fe5b60200260200101819052508080600101915050610b3f565b508092505050919050565b60008054906101000a900473ffffffffffffffffffffffffffffffffffffffff1681565b600073ffffffffffffffffffffffffffffffffffffffff16600360003373ffffffffffffffffffffffffffffffffffffffff1673ffffffffffffffffffffffffffffffffffffffff16815260200190815260200160002060000160009054906101000a900473ffffffffffffffffffffffffffffffffffffffff1673ffffffffffffffffffffffffffffffffffffffff1614610e72576040517f08c379a0000000000000000000000000000000000000000000000000000000008152600401610e6990612333565b60405180910390fd5b600073ffffffffffffffffffffffffffffffffffffffff166004600083815260200190815260200160002060009054906101000a900473ffffffffffffffffffffffffffffffffffffffff1673ffffffffffffffffffffffffffffffffffffffff1614610f14576040517f08c379a0000000000000000000000000000000000000000000000000000000008152600401610f0b906123d3565b60405180910390fd5b6002339080600181540180825580915050600190039060005260206000200160009091909190916101000a81548173ffffffffffffffffffffffffffffffffffffffff021916908373ffffffffffffffffffffffffffffffffffffffff16021790555060405180604001604052803373ffffffffffffffffffffffffffffffffffffffff16815260200182815250600360003373ffffffffffffffffffffffffffffffffffffffff1673ffffffffffffffffffffffffffffffffffffffff16815260200190815260200160002060008201518160000160006101000a81548173ffffffffffffffffffffffffffffffffffffffff021916908373ffffffffffffffffffffffffffffffffffffffff16021790555060208201518160010155905050336004600083815260200190815260200160002060006101000a81548173ffffffffffffffffffffffffffffffffffffffff021916908373ffffffffffffffffffffffffffffffffffffffff16021790555050565b61010085859050106110d1576040517f08c379a00000000000000000000000000000000000000000000000000000000081526004016110c8906123f3565b60405180910390fd5b600085856040516110e39291906121c0565b604051809103902090506110f56118c5565b600360003373ffffffffffffffffffffffffffffffffffffffff1673ffffffffffffffffffffffffffffffffffffffff1681526020019081526020016000206040518060400160405290816000820160009054906101000a900473ffffffffffffffffffffffffffffffffffffffff1673ffffffffffffffffffffffffffffffffffffffff1673ffffffffffffffffffffffffffffffffffffffff16815260200160018201548152505090503373ffffffffffffffffffffffffffffffffffffffff16816000015173ffffffffffffffffffffffffffffffffffffffff1614611213576040517f08c379a000000000000000000000000000000000000000000000000000000000815260040161120a90612353565b60405180910390fd5b6000683635c9adc5dea00000905080600160009054906101000a900473ffffffffffffffffffffffffffffffffffffffff1673ffffffffffffffffffffffffffffffffffffffff166370a08231336040518263ffffffff1660e01b815260040161127d91906121f4565b60206040518083038186803b15801561129557600080fd5b505afa1580156112a9573d6000803e3d6000fd5b505050506040513d601f19601f820116820180604052508101906112cd9190611cb3565b101561130e576040517f08c379a0000000000000000000000000000000000000000000000000000000008152600401611305906123b3565b60405180910390fd5b600560003373ffffffffffffffffffffffffffffffffffffffff1673ffffffffffffffffffffffffffffffffffffffff168152602001908152602001600020839080600181540180825580915050600190039060005260206000200160009091909190915055604051806080016040528042815260200189898080601f016020809104026020016040519081016040528093929190818152602001838380828437600081840152601f19601f82011690508083019250505050505050815260200187815260200186868080601f016020809104026020016040519081016040528093929190818152602001838380828437600081840152601f19601f82011690508083019250505050505050815250600660003373ffffffffffffffffffffffffffffffffffffffff1673ffffffffffffffffffffffffffffffffffffffff1681526020019081526020016000206000858152602001908152602001600020600082015181600001556020820151816001019080519060200190611493929190611920565b506040820151816002015560608201518160030190805190602001906114ba929190611920565b50905050600160009054906101000a900473ffffffffffffffffffffffffffffffffffffffff1673ffffffffffffffffffffffffffffffffffffffff166323b872dd3360008054906101000a900473ffffffffffffffffffffffffffffffffffffffff16846040518463ffffffff1660e01b815260040161153d9392919061220f565b602060405180830381600087803b15801561155757600080fd5b505af115801561156b573d6000803e3d6000fd5b505050506040513d601f19601f8201168201806040525081019061158f9190611b11565b505050505050505050565b60405180608001604052803373ffffffffffffffffffffffffffffffffffffffff1681526020014281526020018373ffffffffffffffffffffffffffffffffffffffff168152602001828152506007600085815260200190815260200160002060008201518160000160006101000a81548173ffffffffffffffffffffffffffffffffffffffff021916908373ffffffffffffffffffffffffffffffffffffffff1602179055506020820151816001015560408201518160020160006101000a81548173ffffffffffffffffffffffffffffffffffffffff021916908373ffffffffffffffffffffffffffffffffffffffff16021790555060608201518160030155905050600068056bc75e2d631000009050600160009054906101000a900473ffffffffffffffffffffffffffffffffffffffff1673ffffffffffffffffffffffffffffffffffffffff166323b872dd3385846040518463ffffffff1660e01b815260040161170c9392919061220f565b602060405180830381600087803b15801561172657600080fd5b505af115801561173a573d6000803e3d6000fd5b505050506040513d601f19601f8201168201806040525081019061175e9190611b11565b5050505050565b60036020528060005260406000206000915090508060000160009054906101000a900473ffffffffffffffffffffffffffffffffffffffff16908060010154905082565b60076020528060005260406000206000915090508060000160009054906101000a900473ffffffffffffffffffffffffffffffffffffffff16908060010154908060020160009054906101000a900473ffffffffffffffffffffffffffffffffffffffff16908060030154905084565b600080828401905083811015611864576040517f08c379a000000000000000000000000000000000000000000000000000000000815260040161185b90612373565b60405180910390fd5b8091505092915050565b6040518060800160405280600073ffffffffffffffffffffffffffffffffffffffff16815260200160008152602001600073ffffffffffffffffffffffffffffffffffffffff168152602001600080191681525090565b6040518060400160405280600073ffffffffffffffffffffffffffffffffffffffff168152602001600080191681525090565b6040518060800160405280600081526020016060815260200160008152602001606081525090565b828054600181600116156101000203166002900490600052602060002090601f016020900481019282601f1061196157805160ff191683800117855561198f565b8280016001018555821561198f579182015b8281111561198e578251825591602001919060010190611973565b5b50905061199c91906119a0565b5090565b5b808211156119b95760008160009055506001016119a1565b5090565b6000813590506119cc816125fc565b92915050565b6000815190506119e181612613565b92915050565b6000813590506119f68161262a565b92915050565b60008083601f840112611a0e57600080fd5b8235905067ffffffffffffffff811115611a2757600080fd5b602083019150836001820283011115611a3f57600080fd5b9250929050565b600081359050611a5581612641565b92915050565b600081519050611a6a81612641565b92915050565b600060208284031215611a8257600080fd5b6000611a90848285016119bd565b91505092915050565b60008060408385031215611aac57600080fd5b6000611aba858286016119bd565b9250506020611acb858286016119e7565b9150509250929050565b60008060408385031215611ae857600080fd5b6000611af6858286016119bd565b9250506020611b0785828601611a46565b9150509250929050565b600060208284031215611b2357600080fd5b6000611b31848285016119d2565b91505092915050565b600060208284031215611b4c57600080fd5b6000611b5a848285016119e7565b91505092915050565b600080600060608486031215611b7857600080fd5b6000611b86868287016119e7565b9350506020611b97868287016119bd565b9250506040611ba8868287016119e7565b9150509250925092565b600080600060608486031215611bc757600080fd5b6000611bd5868287016119e7565b9350506020611be686828701611a46565b9250506040611bf786828701611a46565b9150509250925092565b600080600080600060608688031215611c1957600080fd5b600086013567ffffffffffffffff811115611c3357600080fd5b611c3f888289016119fc565b95509550506020611c5288828901611a46565b935050604086013567ffffffffffffffff811115611c6f57600080fd5b611c7b888289016119fc565b92509250509295509295909350565b600060208284031215611c9c57600080fd5b6000611caa84828501611a46565b91505092915050565b600060208284031215611cc557600080fd5b6000611cd384828501611a5b565b91505092915050565b6000611ce88383612109565b905092915050565b6000611cfc8383612173565b60408301905092915050565b611d1181612573565b82525050565b611d2081612521565b82525050565b611d2f81612521565b82525050565b6000611d4082612486565b611d4a81856124c1565b935083602082028501611d5c85612466565b8060005b85811015611d985784840389528151611d798582611cdc565b9450611d84836124a7565b925060208a01995050600181019050611d60565b50829750879550505050505092915050565b6000611db582612491565b611dbf81856124d2565b9350611dca83612476565b8060005b83811015611dfb578151611de28882611cf0565b9750611ded836124b4565b925050600181019050611dce565b5085935050505092915050565b611e118161253f565b82525050565b611e208161253f565b82525050565b6000611e328385612505565b9350611e3f8385846125a9565b82840190509392505050565b6000611e568261249c565b611e6081856124e3565b9350611e708185602086016125b8565b611e79816125eb565b840191505092915050565b6000611e8f8261249c565b611e9981856124f4565b9350611ea98185602086016125b8565b611eb2816125eb565b840191505092915050565b6000611eca601483612510565b91507f43616e6e6f742066696e642070726f76696465720000000000000000000000006000830152602082019050919050565b6000611f0a602383612510565b91507f50726f7669646572206164647265737320616c7265616479207265676973746560008301527f72656400000000000000000000000000000000000000000000000000000000006020830152604082019050919050565b6000611f70601783612510565b91507f53656e646572206d7573742062652070726f76696465720000000000000000006000830152602082019050919050565b6000611fb0601b83612510565b91507f536166654d6174683a206164646974696f6e206f766572666c6f7700000000006000830152602082019050919050565b6000611ff0601383612510565b91507f43616e6e6f742066696e6420636865636b6572000000000000000000000000006000830152602082019050919050565b6000612030601283612510565b91507f556e73756666696369656e742066756e647300000000000000000000000000006000830152602082019050919050565b6000612070602083612510565b91507f50726f7669646572206e616d6520616c726561647920726567697374657265646000830152602082019050919050565b60006120b0602883612510565b91507f4461746120736f75726365206c656e677468206d757374206265206c6573732060008301527f7468616e203235360000000000000000000000000000000000000000000000006020830152604082019050919050565b600060808301600083015161212160008601826121a2565b50602083015184820360208601526121398282611e4b565b915050604083015161214e60408601826121a2565b50606083015184820360608601526121668282611e4b565b9150508091505092915050565b6040820160008201516121896000850182611d17565b50602082015161219c6020850182611e08565b50505050565b6121ab81612569565b82525050565b6121ba81612569565b82525050565b60006121cd828486611e26565b91508190509392505050565b60006020820190506121ee6000830184611d26565b92915050565b60006020820190506122096000830184611d08565b92915050565b60006060820190506122246000830186611d08565b6122316020830185611d26565b61223e60408301846121b1565b949350505050565b600060408201905061225b6000830185611d26565b6122686020830184611e17565b9392505050565b60006080820190506122846000830187611d26565b61229160208301866121b1565b61229e6040830185611d26565b6122ab6060830184611e17565b95945050505050565b600060208201905081810360008301526122ce8184611d35565b905092915050565b600060208201905081810360008301526122f08184611daa565b905092915050565b600060208201905061230d6000830184611e17565b92915050565b6000602082019050818103600083015261232c81611ebd565b9050919050565b6000602082019050818103600083015261234c81611efd565b9050919050565b6000602082019050818103600083015261236c81611f63565b9050919050565b6000602082019050818103600083015261238c81611fa3565b9050919050565b600060208201905081810360008301526123ac81611fe3565b9050919050565b600060208201905081810360008301526123cc81612023565b9050919050565b600060208201905081810360008301526123ec81612063565b9050919050565b6000602082019050818103600083015261240c816120a3565b9050919050565b600060808201905061242860008301876121b1565b818103602083015261243a8186611e84565b905061244960408301856121b1565b818103606083015261245b8184611e84565b905095945050505050565b6000819050602082019050919050565b6000819050602082019050919050565b600081519050919050565b600081519050919050565b600081519050919050565b6000602082019050919050565b6000602082019050919050565b600082825260208201905092915050565b600082825260208201905092915050565b600082825260208201905092915050565b600082825260208201905092915050565b600081905092915050565b600082825260208201905092915050565b600061252c82612549565b9050919050565b60008115159050919050565b6000819050919050565b600073ffffffffffffffffffffffffffffffffffffffff82169050919050565b6000819050919050565b600061257e82612585565b9050919050565b600061259082612597565b9050919050565b60006125a282612549565b9050919050565b82818337600083830152505050565b60005b838110156125d65780820151818401526020810190506125bb565b838111156125e5576000848401525b50505050565b6000601f19601f8301169050919050565b61260581612521565b811461261057600080fd5b50565b61261c81612533565b811461262757600080fd5b50565b6126338161253f565b811461263e57600080fd5b50565b61264a81612569565b811461265557600080fd5b5056fea264697066735822122090cb13f280d3c4b8474d54cf5804b52e246235f4250b197db3342bffc04c88e064736f6c63430007010033",
  "immutableReferences": {},
  "source": "pragma solidity ^0.7.1;\npragma experimental ABIEncoderV2;\n\nimport \"./Intex.sol\";\nimport \"@openzeppelin/contracts/math/SafeMath.sol\";\n\n/// @dev Data Intelligence Exchange\ncontract Exchange {\n    using SafeMath for uint256;\n\n    /// @dev Owner of the contract\n    address public owner;\n\n    /// @dev Intex Token\n    Intex private token;\n\n    /// @dev Provider of data intelligence\n    struct Provider {\n        address addr;\n        bytes32 name;\n    }\n    address[] public providerAddresses;\n    mapping (address => Provider) public providerByAddress;\n    mapping (bytes32 => address) public providerAddressByName;\n\n    /// @dev Data Intelligence\n    struct DataIntelligence {\n        uint256 timestamp;\n        bytes source;\n        uint256 type_;\n        bytes data;\n    }\n    /// @dev Each provider has mapping to access Data Intelligence\n    mapping (address => bytes32[]) public dataIntelligenceHashes;\n    mapping (address => mapping (bytes32 => DataIntelligence)) public dataIntelligenceByHash;\n\n    struct DataIntelligenceCheck {\n        address checker;\n        uint256 timestamp;\n        address provider;\n        bytes32 dataHash;\n    }\n    mapping (bytes32 => DataIntelligenceCheck) public checkByHash;\n\n    /// @dev Pass the Intex Token contract address\n    constructor(Intex _token)\n    {\n        owner = msg.sender;\n        token = _token;\n    }\n\n    /// @dev Register sender as provider\n    function registerAsProvider(bytes32 name) external\n    {\n        require(providerByAddress[msg.sender].addr == address(0), \"Provider address already registered\");\n        require(providerAddressByName[name] == address(0), \"Provider name already registered\");\n\n        // Register provider\n        providerAddresses.push(msg.sender);\n        providerByAddress[msg.sender] = Provider(msg.sender, name);\n        providerAddressByName[name] = msg.sender;\n    }\n\n    /// @dev Get all providers\n    function getAllProviders() view external returns (Provider[] memory)\n    {\n        uint count = providerAddresses.length;\n        Provider[] memory _providers = new Provider[](count);\n        for (uint i=0; i<count; i++)\n        {\n            _providers[i] = providerByAddress[providerAddresses[i]];\n        }\n        return _providers;\n    }\n\n    /// @dev Providers can add (or update) Data Intelligence\n    /// TODO: Add a second method that takes hash as a parameter\n    function addDataIntelligence(bytes calldata dataSource, uint256 dataType, bytes calldata dataIntelligence) external\n    {\n        require(dataSource.length < 256, \"Data source length must be less than 256\");\n        bytes32 hash = keccak256(dataSource);\n\n        Provider memory provider = providerByAddress[msg.sender];\n        require(provider.addr == msg.sender, \"Sender must be provider\");\n\n        uint256 oneThousand = uint256(1 * (10**3) * (10**18));\n        require(token.balanceOf(msg.sender) >= oneThousand, \"Unsufficient funds\");\n\n        // Store Data Intelligence\n        dataIntelligenceHashes[msg.sender].push(hash);\n        dataIntelligenceByHash[msg.sender][hash] = DataIntelligence(block.timestamp, dataSource, dataType, dataIntelligence);\n\n        // Payment\n        // Tokens do not burn, they are sent to owner!\n        token.transferFrom(msg.sender, owner, oneThousand);\n    }\n\n    /// @dev Get Data Intelligences of provider\n    function getDataIntelligences(address provider) view external returns (DataIntelligence[] memory)\n    {\n        uint count = dataIntelligenceHashes[provider].length;\n        DataIntelligence[] memory dataIntelligences = new DataIntelligence[](count);\n        for (uint i=0; i<count; i++)\n        {\n            dataIntelligences[i] = dataIntelligenceByHash[provider][dataIntelligenceHashes[provider][i]];\n        }\n        return dataIntelligences;\n    }\n\n    /// @dev Check Data Intelligence\n    function checkDataIntelligence(bytes32 checkHash, address provider, bytes32 dataHash) external\n    {\n        checkByHash[checkHash] = DataIntelligenceCheck(msg.sender, block.timestamp, provider, dataHash);\n\n        // Payment\n        uint256 oneHundred = uint256(1 * (10**2) * (10**18));\n        token.transferFrom(msg.sender, provider, oneHundred);\n    }\n\n    /// @dev Reward checker & provider for service\n    function reward(bytes32 checkHash, uint256 providerReward, uint256 checkerReward) public\n    {\n        require(token.balanceOf(msg.sender) >= providerReward.add(checkerReward), \"Unsufficient funds\");\n\n        DataIntelligenceCheck memory dataIntelligenceCheck = checkByHash[checkHash];\n        require(dataIntelligenceCheck.checker != address(0), \"Cannot find checker\");\n        require(dataIntelligenceCheck.provider != address(0), \"Cannot find provider\");\n\n        // Reward checker\n        token.transferFrom(msg.sender, dataIntelligenceCheck.checker, checkerReward);\n\n        // Reward provider\n        token.transferFrom(msg.sender, dataIntelligenceCheck.provider, providerReward);\n    }\n}\n",
  "sourcePath": "/home/irenee/work/dev/blockchain/adchain/contracts/Exchange.sol",
  "compiler": {
    "name": "solc",
    "version": "0.7.1+commit.f4a555be.Emscripten.clang"
  },
  "schemaVersion": "3.2.4",
  "updatedAt": "2020-11-23T19:54:56.983Z",
  "networkType": "ethereum",
  "devdoc": {
    "details": "Data Intelligence Exchange",
    "kind": "dev",
    "methods": {
      "addDataIntelligence(bytes,uint256,bytes)": {
        "details": "Providers can add (or update) Data Intelligence TODO: Add a second method that takes hash as a parameter"
      },
      "checkDataIntelligence(bytes32,address,bytes32)": {
        "details": "Check Data Intelligence"
      },
      "constructor": {
        "details": "Pass the Intex Token contract address"
      },
      "getAllProviders()": {
        "details": "Get all providers"
      },
      "getDataIntelligences(address)": {
        "details": "Get Data Intelligences of provider"
      },
      "registerAsProvider(bytes32)": {
        "details": "Register sender as provider"
      },
      "reward(bytes32,uint256,uint256)": {
        "details": "Reward checker & provider for service"
      }
    },
    "stateVariables": {
      "dataIntelligenceHashes": {
        "details": "Each provider has mapping to access Data Intelligence"
      },
      "owner": {
        "details": "Owner of the contract"
      },
      "token": {
        "details": "Intex Token"
      }
    },
    "version": 1
  },
  "userdoc": {
    "kind": "user",
    "methods": {},
    "version": 1
  }
}