{
  "contractName": "Intex",
  "abi": [
    {
      "inputs": [
        {
          "internalType": "uint256",
          "name": "initialSupply",
          "type": "uint256"
        }
      ],
      "stateMutability": "nonpayable",
      "type": "constructor"
    },
    {
      "anonymous": false,
      "inputs": [
        {
          "indexed": true,
          "internalType": "address",
          "name": "owner",
          "type": "address"
        },
        {
          "indexed": true,
          "internalType": "address",
          "name": "spender",
          "type": "address"
        },
        {
          "indexed": false,
          "internalType": "uint256",
          "name": "value",
          "type": "uint256"
        }
      ],
      "name": "Approval",
      "type": "event"
    },
    {
      "anonymous": false,
      "inputs": [
        {
          "indexed": true,
          "internalType": "address",
          "name": "from",
          "type": "address"
        },
        {
          "indexed": true,
          "internalType": "address",
          "name": "to",
          "type": "address"
        },
        {
          "indexed": false,
          "internalType": "uint256",
          "name": "value",
          "type": "uint256"
        }
      ],
      "name": "Transfer",
      "type": "event"
    },
    {
      "inputs": [
        {
          "internalType": "address",
          "name": "owner",
          "type": "address"
        },
        {
          "internalType": "address",
          "name": "spender",
          "type": "address"
        }
      ],
      "name": "allowance",
      "outputs": [
        {
          "internalType": "uint256",
          "name": "",
          "type": "uint256"
        }
      ],
      "stateMutability": "view",
      "type": "function",
      "constant": true
    },
    {
      "inputs": [
        {
          "internalType": "address",
          "name": "spender",
          "type": "address"
        },
        {
          "internalType": "uint256",
          "name": "amount",
          "type": "uint256"
        }
      ],
      "name": "approve",
      "outputs": [
        {
          "internalType": "bool",
          "name": "",
          "type": "bool"
        }
      ],
      "stateMutability": "nonpayable",
      "type": "function"
    },
    {
      "inputs": [
        {
          "internalType": "address",
          "name": "account",
          "type": "address"
        }
      ],
      "name": "balanceOf",
      "outputs": [
        {
          "internalType": "uint256",
          "name": "",
          "type": "uint256"
        }
      ],
      "stateMutability": "view",
      "type": "function",
      "constant": true
    },
    {
      "inputs": [],
      "name": "decimals",
      "outputs": [
        {
          "internalType": "uint8",
          "name": "",
          "type": "uint8"
        }
      ],
      "stateMutability": "view",
      "type": "function",
      "constant": true
    },
    {
      "inputs": [
        {
          "internalType": "address",
          "name": "spender",
          "type": "address"
        },
        {
          "internalType": "uint256",
          "name": "subtractedValue",
          "type": "uint256"
        }
      ],
      "name": "decreaseAllowance",
      "outputs": [
        {
          "internalType": "bool",
          "name": "",
          "type": "bool"
        }
      ],
      "stateMutability": "nonpayable",
      "type": "function"
    },
    {
      "inputs": [],
      "name": "ethExchangeRate",
      "outputs": [
        {
          "internalType": "uint256",
          "name": "",
          "type": "uint256"
        }
      ],
      "stateMutability": "view",
      "type": "function",
      "constant": true
    },
    {
      "inputs": [
        {
          "internalType": "address",
          "name": "spender",
          "type": "address"
        },
        {
          "internalType": "uint256",
          "name": "addedValue",
          "type": "uint256"
        }
      ],
      "name": "increaseAllowance",
      "outputs": [
        {
          "internalType": "bool",
          "name": "",
          "type": "bool"
        }
      ],
      "stateMutability": "nonpayable",
      "type": "function"
    },
    {
      "inputs": [],
      "name": "name",
      "outputs": [
        {
          "internalType": "string",
          "name": "",
          "type": "string"
        }
      ],
      "stateMutability": "view",
      "type": "function",
      "constant": true
    },
    {
      "inputs": [],
      "name": "owner",
      "outputs": [
        {
          "internalType": "address",
          "name": "",
          "type": "address"
        }
      ],
      "stateMutability": "view",
      "type": "function",
      "constant": true
    },
    {
      "inputs": [],
      "name": "symbol",
      "outputs": [
        {
          "internalType": "string",
          "name": "",
          "type": "string"
        }
      ],
      "stateMutability": "view",
      "type": "function",
      "constant": true
    },
    {
      "inputs": [],
      "name": "totalSupply",
      "outputs": [
        {
          "internalType": "uint256",
          "name": "",
          "type": "uint256"
        }
      ],
      "stateMutability": "view",
      "type": "function",
      "constant": true
    },
    {
      "inputs": [
        {
          "internalType": "address",
          "name": "recipient",
          "type": "address"
        },
        {
          "internalType": "uint256",
          "name": "amount",
          "type": "uint256"
        }
      ],
      "name": "transfer",
      "outputs": [
        {
          "internalType": "bool",
          "name": "",
          "type": "bool"
        }
      ],
      "stateMutability": "nonpayable",
      "type": "function"
    },
    {
      "inputs": [
        {
          "internalType": "address",
          "name": "sender",
          "type": "address"
        },
        {
          "internalType": "address",
          "name": "recipient",
          "type": "address"
        },
        {
          "internalType": "uint256",
          "name": "amount",
          "type": "uint256"
        }
      ],
      "name": "transferFrom",
      "outputs": [
        {
          "internalType": "bool",
          "name": "",
          "type": "bool"
        }
      ],
      "stateMutability": "nonpayable",
      "type": "function"
    },
    {
      "inputs": [],
      "name": "getTokens",
      "outputs": [],
      "stateMutability": "payable",
      "type": "function",
      "payable": true
    },
    {
      "inputs": [
        {
          "internalType": "address payable",
          "name": "beneficiary",
          "type": "address"
        },
        {
          "internalType": "uint256",
          "name": "amount",
          "type": "uint256"
        }
      ],
      "name": "withdraw",
      "outputs": [],
      "stateMutability": "nonpayable",
      "type": "function"
    }
  ],
  "bytecode": "0x60806040523480156200001157600080fd5b5060405162001db638038062001db6833981810160405281019062000037919062000420565b6040518060400160405280601481526020017f496e74656c6c6967656e636545786368616e67650000000000000000000000008152506040518060400160405280600481526020017f494e5458000000000000000000000000000000000000000000000000000000008152508160039080519060200190620000bb92919062000363565b508060049080519060200190620000d492919062000363565b506012600560006101000a81548160ff021916908360ff160217905550505033600560016101000a81548173ffffffffffffffffffffffffffffffffffffffff021916908373ffffffffffffffffffffffffffffffffffffffff1602179055506200014633826200015760201b60201c565b620f42406006819055505062000577565b600073ffffffffffffffffffffffffffffffffffffffff168273ffffffffffffffffffffffffffffffffffffffff161415620001ca576040517f08c379a0000000000000000000000000000000000000000000000000000000008152600401620001c19062000503565b60405180910390fd5b620001de600083836200030660201b60201c565b620001fa816002546200030b60201b6200098d1790919060201c565b60028190555062000258816000808573ffffffffffffffffffffffffffffffffffffffff1673ffffffffffffffffffffffffffffffffffffffff168152602001908152602001600020546200030b60201b6200098d1790919060201c565b6000808473ffffffffffffffffffffffffffffffffffffffff1673ffffffffffffffffffffffffffffffffffffffff168152602001908152602001600020819055508173ffffffffffffffffffffffffffffffffffffffff16600073ffffffffffffffffffffffffffffffffffffffff167fddf252ad1be2c89b69c2b068fc378daa952ba7f163c4a11628f55a4df523b3ef83604051620002fa919062000525565b60405180910390a35050565b505050565b60008082840190508381101562000359576040517f08c379a00000000000000000000000000000000000000000000000000000000081526004016200035090620004e1565b60405180910390fd5b8091505092915050565b828054600181600116156101000203166002900490600052602060002090601f016020900481019282601f10620003a657805160ff1916838001178555620003d7565b82800160010185558215620003d7579182015b82811115620003d6578251825591602001919060010190620003b9565b5b509050620003e69190620003ea565b5090565b5b8082111562000405576000816000905550600101620003eb565b5090565b6000815190506200041a816200055d565b92915050565b6000602082840312156200043357600080fd5b6000620004438482850162000409565b91505092915050565b60006200045b601b8362000542565b91507f536166654d6174683a206164646974696f6e206f766572666c6f7700000000006000830152602082019050919050565b60006200049d601f8362000542565b91507f45524332303a206d696e7420746f20746865207a65726f2061646472657373006000830152602082019050919050565b620004db8162000553565b82525050565b60006020820190508181036000830152620004fc816200044c565b9050919050565b600060208201905081810360008301526200051e816200048e565b9050919050565b60006020820190506200053c6000830184620004d0565b92915050565b600082825260208201905092915050565b6000819050919050565b620005688162000553565b81146200057457600080fd5b50565b61182f80620005876000396000f3fe6080604052600436106100e85760003560e01c806370a082311161008a578063a9059cbb11610059578063a9059cbb14610320578063aa6ca8081461035d578063dd62ed3e14610367578063f3fef3a3146103a4576100e8565b806370a08231146102505780638da5cb5b1461028d57806395d89b41146102b8578063a457c2d7146102e3576100e8565b806318160ddd116100c657806318160ddd1461018057806323b872dd146101ab578063313ce567146101e85780633950935114610213576100e8565b806306fdde03146100ed578063095ea7b3146101185780630b961e4814610155575b600080fd5b3480156100f957600080fd5b506101026103cd565b60405161010f9190611542565b60405180910390f35b34801561012457600080fd5b5061013f600480360381019061013a91906111dd565b61046f565b60405161014c9190611527565b60405180910390f35b34801561016157600080fd5b5061016a61048d565b6040516101779190611644565b60405180910390f35b34801561018c57600080fd5b50610195610493565b6040516101a29190611644565b60405180910390f35b3480156101b757600080fd5b506101d260048036038101906101cd919061118e565b61049d565b6040516101df9190611527565b60405180910390f35b3480156101f457600080fd5b506101fd610576565b60405161020a919061165f565b60405180910390f35b34801561021f57600080fd5b5061023a600480360381019061023591906111dd565b61058d565b6040516102479190611527565b60405180910390f35b34801561025c57600080fd5b50610277600480360381019061027291906110ed565b610640565b6040516102849190611644565b60405180910390f35b34801561029957600080fd5b506102a2610688565b6040516102af919061150c565b60405180910390f35b3480156102c457600080fd5b506102cd6106ae565b6040516102da9190611542565b60405180910390f35b3480156102ef57600080fd5b5061030a600480360381019061030591906111dd565b610750565b6040516103179190611527565b60405180910390f35b34801561032c57600080fd5b50610347600480360381019061034291906111dd565b61081d565b6040516103549190611527565b60405180910390f35b61036561083b565b005b34801561037357600080fd5b5061038e60048036038101906103899190611152565b610861565b60405161039b9190611644565b60405180910390f35b3480156103b057600080fd5b506103cb60048036038101906103c69190611116565b6108e8565b005b606060038054600181600116156101000203166002900480601f0160208091040260200160405190810160405280929190818152602001828054600181600116156101000203166002900480156104655780601f1061043a57610100808354040283529160200191610465565b820191906000526020600020905b81548152906001019060200180831161044857829003601f168201915b5050505050905090565b600061048361047c6109e2565b84846109ea565b6001905092915050565b60065481565b6000600254905090565b60006104aa848484610bb5565b61056b846104b66109e2565b610566856040518060600160405280602881526020016117ad60289139600160008b73ffffffffffffffffffffffffffffffffffffffff1673ffffffffffffffffffffffffffffffffffffffff168152602001908152602001600020600061051c6109e2565b73ffffffffffffffffffffffffffffffffffffffff1673ffffffffffffffffffffffffffffffffffffffff16815260200190815260200160002054610e4a9092919063ffffffff16565b6109ea565b600190509392505050565b6000600560009054906101000a900460ff16905090565b600061063661059a6109e2565b8461063185600160006105ab6109e2565b73ffffffffffffffffffffffffffffffffffffffff1673ffffffffffffffffffffffffffffffffffffffff16815260200190815260200160002060008973ffffffffffffffffffffffffffffffffffffffff1673ffffffffffffffffffffffffffffffffffffffff1681526020019081526020016000205461098d90919063ffffffff16565b6109ea565b6001905092915050565b60008060008373ffffffffffffffffffffffffffffffffffffffff1673ffffffffffffffffffffffffffffffffffffffff168152602001908152602001600020549050919050565b600560019054906101000a900473ffffffffffffffffffffffffffffffffffffffff1681565b606060048054600181600116156101000203166002900480601f0160208091040260200160405190810160405280929190818152602001828054600181600116156101000203166002900480156107465780601f1061071b57610100808354040283529160200191610746565b820191906000526020600020905b81548152906001019060200180831161072957829003601f168201915b5050505050905090565b600061081361075d6109e2565b8461080e856040518060600160405280602581526020016117d560259139600160006107876109e2565b73ffffffffffffffffffffffffffffffffffffffff1673ffffffffffffffffffffffffffffffffffffffff16815260200190815260200160002060008a73ffffffffffffffffffffffffffffffffffffffff1673ffffffffffffffffffffffffffffffffffffffff16815260200190815260200160002054610e4a9092919063ffffffff16565b6109ea565b6001905092915050565b600061083161082a6109e2565b8484610bb5565b6001905092915050565b600061085260065434610ea590919063ffffffff16565b905061085e3382610f15565b50565b6000600160008473ffffffffffffffffffffffffffffffffffffffff1673ffffffffffffffffffffffffffffffffffffffff16815260200190815260200160002060008373ffffffffffffffffffffffffffffffffffffffff1673ffffffffffffffffffffffffffffffffffffffff16815260200190815260200160002054905092915050565b600560019054906101000a900473ffffffffffffffffffffffffffffffffffffffff1673ffffffffffffffffffffffffffffffffffffffff163373ffffffffffffffffffffffffffffffffffffffff161461094257600080fd5b8173ffffffffffffffffffffffffffffffffffffffff166108fc829081150290604051600060405180830381858888f19350505050158015610988573d6000803e3d6000fd5b505050565b6000808284019050838110156109d8576040517f08c379a00000000000000000000000000000000000000000000000000000000081526004016109cf906115a4565b60405180910390fd5b8091505092915050565b600033905090565b600073ffffffffffffffffffffffffffffffffffffffff168373ffffffffffffffffffffffffffffffffffffffff161415610a5a576040517f08c379a0000000000000000000000000000000000000000000000000000000008152600401610a5190611604565b60405180910390fd5b600073ffffffffffffffffffffffffffffffffffffffff168273ffffffffffffffffffffffffffffffffffffffff161415610aca576040517f08c379a0000000000000000000000000000000000000000000000000000000008152600401610ac190611584565b60405180910390fd5b80600160008573ffffffffffffffffffffffffffffffffffffffff1673ffffffffffffffffffffffffffffffffffffffff16815260200190815260200160002060008473ffffffffffffffffffffffffffffffffffffffff1673ffffffffffffffffffffffffffffffffffffffff168152602001908152602001600020819055508173ffffffffffffffffffffffffffffffffffffffff168373ffffffffffffffffffffffffffffffffffffffff167f8c5be1e5ebec7d5bd14f71427d1e84f3dd0314c0f7b2291e5b200ac8c7c3b92583604051610ba89190611644565b60405180910390a3505050565b600073ffffffffffffffffffffffffffffffffffffffff168373ffffffffffffffffffffffffffffffffffffffff161415610c25576040517f08c379a0000000000000000000000000000000000000000000000000000000008152600401610c1c906115e4565b60405180910390fd5b600073ffffffffffffffffffffffffffffffffffffffff168273ffffffffffffffffffffffffffffffffffffffff161415610c95576040517f08c379a0000000000000000000000000000000000000000000000000000000008152600401610c8c90611564565b60405180910390fd5b610ca08383836110a9565b610d0b81604051806060016040528060268152602001611787602691396000808773ffffffffffffffffffffffffffffffffffffffff1673ffffffffffffffffffffffffffffffffffffffff16815260200190815260200160002054610e4a9092919063ffffffff16565b6000808573ffffffffffffffffffffffffffffffffffffffff1673ffffffffffffffffffffffffffffffffffffffff16815260200190815260200160002081905550610d9e816000808573ffffffffffffffffffffffffffffffffffffffff1673ffffffffffffffffffffffffffffffffffffffff1681526020019081526020016000205461098d90919063ffffffff16565b6000808473ffffffffffffffffffffffffffffffffffffffff1673ffffffffffffffffffffffffffffffffffffffff168152602001908152602001600020819055508173ffffffffffffffffffffffffffffffffffffffff168373ffffffffffffffffffffffffffffffffffffffff167fddf252ad1be2c89b69c2b068fc378daa952ba7f163c4a11628f55a4df523b3ef83604051610e3d9190611644565b60405180910390a3505050565b6000838311158290610e92576040517f08c379a0000000000000000000000000000000000000000000000000000000008152600401610e899190611542565b60405180910390fd5b5060008385039050809150509392505050565b600080831415610eb85760009050610f0f565b6000828402905082848281610ec957fe5b0414610f0a576040517f08c379a0000000000000000000000000000000000000000000000000000000008152600401610f01906115c4565b60405180910390fd5b809150505b92915050565b600073ffffffffffffffffffffffffffffffffffffffff168273ffffffffffffffffffffffffffffffffffffffff161415610f85576040517f08c379a0000000000000000000000000000000000000000000000000000000008152600401610f7c90611624565b60405180910390fd5b610f91600083836110a9565b610fa68160025461098d90919063ffffffff16565b600281905550610ffd816000808573ffffffffffffffffffffffffffffffffffffffff1673ffffffffffffffffffffffffffffffffffffffff1681526020019081526020016000205461098d90919063ffffffff16565b6000808473ffffffffffffffffffffffffffffffffffffffff1673ffffffffffffffffffffffffffffffffffffffff168152602001908152602001600020819055508173ffffffffffffffffffffffffffffffffffffffff16600073ffffffffffffffffffffffffffffffffffffffff167fddf252ad1be2c89b69c2b068fc378daa952ba7f163c4a11628f55a4df523b3ef8360405161109d9190611644565b60405180910390a35050565b505050565b6000813590506110bd81611741565b92915050565b6000813590506110d281611758565b92915050565b6000813590506110e78161176f565b92915050565b6000602082840312156110ff57600080fd5b600061110d848285016110ae565b91505092915050565b6000806040838503121561112957600080fd5b6000611137858286016110c3565b9250506020611148858286016110d8565b9150509250929050565b6000806040838503121561116557600080fd5b6000611173858286016110ae565b9250506020611184858286016110ae565b9150509250929050565b6000806000606084860312156111a357600080fd5b60006111b1868287016110ae565b93505060206111c2868287016110ae565b92505060406111d3868287016110d8565b9150509250925092565b600080604083850312156111f057600080fd5b60006111fe858286016110ae565b925050602061120f858286016110d8565b9150509250929050565b61122281611696565b82525050565b611231816116ba565b82525050565b60006112428261167a565b61124c8185611685565b935061125c8185602086016116fd565b61126581611730565b840191505092915050565b600061127d602383611685565b91507f45524332303a207472616e7366657220746f20746865207a65726f206164647260008301527f65737300000000000000000000000000000000000000000000000000000000006020830152604082019050919050565b60006112e3602283611685565b91507f45524332303a20617070726f766520746f20746865207a65726f20616464726560008301527f73730000000000000000000000000000000000000000000000000000000000006020830152604082019050919050565b6000611349601b83611685565b91507f536166654d6174683a206164646974696f6e206f766572666c6f7700000000006000830152602082019050919050565b6000611389602183611685565b91507f536166654d6174683a206d756c7469706c69636174696f6e206f766572666c6f60008301527f77000000000000000000000000000000000000000000000000000000000000006020830152604082019050919050565b60006113ef602583611685565b91507f45524332303a207472616e736665722066726f6d20746865207a65726f20616460008301527f64726573730000000000000000000000000000000000000000000000000000006020830152604082019050919050565b6000611455602483611685565b91507f45524332303a20617070726f76652066726f6d20746865207a65726f2061646460008301527f72657373000000000000000000000000000000000000000000000000000000006020830152604082019050919050565b60006114bb601f83611685565b91507f45524332303a206d696e7420746f20746865207a65726f2061646472657373006000830152602082019050919050565b6114f7816116e6565b82525050565b611506816116f0565b82525050565b60006020820190506115216000830184611219565b92915050565b600060208201905061153c6000830184611228565b92915050565b6000602082019050818103600083015261155c8184611237565b905092915050565b6000602082019050818103600083015261157d81611270565b9050919050565b6000602082019050818103600083015261159d816112d6565b9050919050565b600060208201905081810360008301526115bd8161133c565b9050919050565b600060208201905081810360008301526115dd8161137c565b9050919050565b600060208201905081810360008301526115fd816113e2565b9050919050565b6000602082019050818103600083015261161d81611448565b9050919050565b6000602082019050818103600083015261163d816114ae565b9050919050565b600060208201905061165960008301846114ee565b92915050565b600060208201905061167460008301846114fd565b92915050565b600081519050919050565b600082825260208201905092915050565b60006116a1826116c6565b9050919050565b60006116b3826116c6565b9050919050565b60008115159050919050565b600073ffffffffffffffffffffffffffffffffffffffff82169050919050565b6000819050919050565b600060ff82169050919050565b60005b8381101561171b578082015181840152602081019050611700565b8381111561172a576000848401525b50505050565b6000601f19601f8301169050919050565b61174a81611696565b811461175557600080fd5b50565b611761816116a8565b811461176c57600080fd5b50565b611778816116e6565b811461178357600080fd5b5056fe45524332303a207472616e7366657220616d6f756e7420657863656564732062616c616e636545524332303a207472616e7366657220616d6f756e74206578636565647320616c6c6f77616e636545524332303a2064656372656173656420616c6c6f77616e63652062656c6f77207a65726fa2646970667358221220be64928957557fa5f1ba4a20c55d1e69ac2120913661774698df17e1a01bd91264736f6c63430007010033",
  "immutableReferences": {},
  "source": "pragma solidity ^0.7.1;\npragma experimental ABIEncoderV2;\n\nimport \"@openzeppelin/contracts/token/ERC20/ERC20.sol\";\nimport \"@openzeppelin/contracts/math/SafeMath.sol\";\n\ncontract Intex is ERC20 {\n    using SafeMath for uint256;\n\n    address public owner;\n\n    /// @dev Eth exchange rate\n    uint256 public ethExchangeRate;\n\n    constructor(uint256 initialSupply) ERC20(\"IntelligenceExchange\", \"INTX\")\n    {\n        owner = msg.sender;\n        _mint(msg.sender, initialSupply); // By default, ERC20 uses a value of 18 for decimals. Unit is 1 * 10**18.\n        ethExchangeRate = uint256(10**6); // 1 ETH -> 1M INTX tokens\n    }\n\n    // Get INTX tokens in exchange of ETH\n    function getTokens() public payable\n    {\n        uint256 tokens = msg.value.mul(ethExchangeRate);\n        _mint(msg.sender, tokens);\n    }\n\n    // Owner can widraw ETH and transfer to beneficiary\n    function withdraw(address payable beneficiary, uint256 amount) public\n    {\n        require(msg.sender == owner);\n        beneficiary.transfer(amount);\n    }\n}\n",
  "sourcePath": "/home/irenee/work/dev/blockchain/adchain/contracts/Intex.sol",
  "compiler": {
    "name": "solc",
    "version": "0.7.1+commit.f4a555be.Emscripten.clang"
  },
  "schemaVersion": "3.2.4",
  "updatedAt": "2021-01-16T13:51:36.314Z",
  "networkType": "ethereum",
  "devdoc": {
    "kind": "dev",
    "methods": {
      "allowance(address,address)": {
        "details": "See {IERC20-allowance}."
      },
      "approve(address,uint256)": {
        "details": "See {IERC20-approve}. Requirements: - `spender` cannot be the zero address."
      },
      "balanceOf(address)": {
        "details": "See {IERC20-balanceOf}."
      },
      "decimals()": {
        "details": "Returns the number of decimals used to get its user representation. For example, if `decimals` equals `2`, a balance of `505` tokens should be displayed to a user as `5,05` (`505 / 10 ** 2`). Tokens usually opt for a value of 18, imitating the relationship between Ether and Wei. This is the value {ERC20} uses, unless {_setupDecimals} is called. NOTE: This information is only used for _display_ purposes: it in no way affects any of the arithmetic of the contract, including {IERC20-balanceOf} and {IERC20-transfer}."
      },
      "decreaseAllowance(address,uint256)": {
        "details": "Atomically decreases the allowance granted to `spender` by the caller. This is an alternative to {approve} that can be used as a mitigation for problems described in {IERC20-approve}. Emits an {Approval} event indicating the updated allowance. Requirements: - `spender` cannot be the zero address. - `spender` must have allowance for the caller of at least `subtractedValue`."
      },
      "increaseAllowance(address,uint256)": {
        "details": "Atomically increases the allowance granted to `spender` by the caller. This is an alternative to {approve} that can be used as a mitigation for problems described in {IERC20-approve}. Emits an {Approval} event indicating the updated allowance. Requirements: - `spender` cannot be the zero address."
      },
      "name()": {
        "details": "Returns the name of the token."
      },
      "symbol()": {
        "details": "Returns the symbol of the token, usually a shorter version of the name."
      },
      "totalSupply()": {
        "details": "See {IERC20-totalSupply}."
      },
      "transfer(address,uint256)": {
        "details": "See {IERC20-transfer}. Requirements: - `recipient` cannot be the zero address. - the caller must have a balance of at least `amount`."
      },
      "transferFrom(address,address,uint256)": {
        "details": "See {IERC20-transferFrom}. Emits an {Approval} event indicating the updated allowance. This is not required by the EIP. See the note at the beginning of {ERC20}. Requirements: - `sender` and `recipient` cannot be the zero address. - `sender` must have a balance of at least `amount`. - the caller must have allowance for ``sender``'s tokens of at least `amount`."
      }
    },
    "stateVariables": {
      "ethExchangeRate": {
        "details": "Eth exchange rate"
      }
    },
    "version": 1
  },
  "userdoc": {
    "kind": "user",
    "methods": {},
    "version": 1
  }
}