{
  "contractName": "Intex",
  "abi": [
    {
      "inputs": [
        {
          "internalType": "uint256",
          "name": "initialSupply",
          "type": "uint256"
        }
      ],
      "stateMutability": "nonpayable",
      "type": "constructor"
    },
    {
      "anonymous": false,
      "inputs": [
        {
          "indexed": true,
          "internalType": "address",
          "name": "owner",
          "type": "address"
        },
        {
          "indexed": true,
          "internalType": "address",
          "name": "spender",
          "type": "address"
        },
        {
          "indexed": false,
          "internalType": "uint256",
          "name": "value",
          "type": "uint256"
        }
      ],
      "name": "Approval",
      "type": "event"
    },
    {
      "anonymous": false,
      "inputs": [
        {
          "indexed": true,
          "internalType": "address",
          "name": "from",
          "type": "address"
        },
        {
          "indexed": true,
          "internalType": "address",
          "name": "to",
          "type": "address"
        },
        {
          "indexed": false,
          "internalType": "uint256",
          "name": "value",
          "type": "uint256"
        }
      ],
      "name": "Transfer",
      "type": "event"
    },
    {
      "inputs": [
        {
          "internalType": "address",
          "name": "owner",
          "type": "address"
        },
        {
          "internalType": "address",
          "name": "spender",
          "type": "address"
        }
      ],
      "name": "allowance",
      "outputs": [
        {
          "internalType": "uint256",
          "name": "",
          "type": "uint256"
        }
      ],
      "stateMutability": "view",
      "type": "function",
      "constant": true
    },
    {
      "inputs": [
        {
          "internalType": "address",
          "name": "spender",
          "type": "address"
        },
        {
          "internalType": "uint256",
          "name": "amount",
          "type": "uint256"
        }
      ],
      "name": "approve",
      "outputs": [
        {
          "internalType": "bool",
          "name": "",
          "type": "bool"
        }
      ],
      "stateMutability": "nonpayable",
      "type": "function"
    },
    {
      "inputs": [
        {
          "internalType": "address",
          "name": "account",
          "type": "address"
        }
      ],
      "name": "balanceOf",
      "outputs": [
        {
          "internalType": "uint256",
          "name": "",
          "type": "uint256"
        }
      ],
      "stateMutability": "view",
      "type": "function",
      "constant": true
    },
    {
      "inputs": [],
      "name": "decimals",
      "outputs": [
        {
          "internalType": "uint8",
          "name": "",
          "type": "uint8"
        }
      ],
      "stateMutability": "view",
      "type": "function",
      "constant": true
    },
    {
      "inputs": [
        {
          "internalType": "address",
          "name": "spender",
          "type": "address"
        },
        {
          "internalType": "uint256",
          "name": "subtractedValue",
          "type": "uint256"
        }
      ],
      "name": "decreaseAllowance",
      "outputs": [
        {
          "internalType": "bool",
          "name": "",
          "type": "bool"
        }
      ],
      "stateMutability": "nonpayable",
      "type": "function"
    },
    {
      "inputs": [
        {
          "internalType": "address",
          "name": "spender",
          "type": "address"
        },
        {
          "internalType": "uint256",
          "name": "addedValue",
          "type": "uint256"
        }
      ],
      "name": "increaseAllowance",
      "outputs": [
        {
          "internalType": "bool",
          "name": "",
          "type": "bool"
        }
      ],
      "stateMutability": "nonpayable",
      "type": "function"
    },
    {
      "inputs": [],
      "name": "name",
      "outputs": [
        {
          "internalType": "string",
          "name": "",
          "type": "string"
        }
      ],
      "stateMutability": "view",
      "type": "function",
      "constant": true
    },
    {
      "inputs": [],
      "name": "owner",
      "outputs": [
        {
          "internalType": "address",
          "name": "",
          "type": "address"
        }
      ],
      "stateMutability": "view",
      "type": "function",
      "constant": true
    },
    {
      "inputs": [],
      "name": "symbol",
      "outputs": [
        {
          "internalType": "string",
          "name": "",
          "type": "string"
        }
      ],
      "stateMutability": "view",
      "type": "function",
      "constant": true
    },
    {
      "inputs": [],
      "name": "totalSupply",
      "outputs": [
        {
          "internalType": "uint256",
          "name": "",
          "type": "uint256"
        }
      ],
      "stateMutability": "view",
      "type": "function",
      "constant": true
    },
    {
      "inputs": [
        {
          "internalType": "address",
          "name": "recipient",
          "type": "address"
        },
        {
          "internalType": "uint256",
          "name": "amount",
          "type": "uint256"
        }
      ],
      "name": "transfer",
      "outputs": [
        {
          "internalType": "bool",
          "name": "",
          "type": "bool"
        }
      ],
      "stateMutability": "nonpayable",
      "type": "function"
    },
    {
      "inputs": [
        {
          "internalType": "address",
          "name": "sender",
          "type": "address"
        },
        {
          "internalType": "address",
          "name": "recipient",
          "type": "address"
        },
        {
          "internalType": "uint256",
          "name": "amount",
          "type": "uint256"
        }
      ],
      "name": "transferFrom",
      "outputs": [
        {
          "internalType": "bool",
          "name": "",
          "type": "bool"
        }
      ],
      "stateMutability": "nonpayable",
      "type": "function"
    },
    {
      "inputs": [],
      "name": "getTokens",
      "outputs": [],
      "stateMutability": "payable",
      "type": "function",
      "payable": true
    },
    {
      "inputs": [
        {
          "internalType": "address payable",
          "name": "beneficiary",
          "type": "address"
        },
        {
          "internalType": "uint256",
          "name": "amount",
          "type": "uint256"
        }
      ],
      "name": "withdraw",
      "outputs": [],
      "stateMutability": "nonpayable",
      "type": "function"
    }
  ],
  "bytecode": "0x60806040523480156200001157600080fd5b5060405162001d7738038062001d77833981810160405281019062000037919062000416565b6040518060400160405280601481526020017f496e74656c6c6967656e636545786368616e67650000000000000000000000008152506040518060400160405280600481526020017f494e5458000000000000000000000000000000000000000000000000000000008152508160039080519060200190620000bb92919062000359565b508060049080519060200190620000d492919062000359565b506012600560006101000a81548160ff021916908360ff160217905550505033600560016101000a81548173ffffffffffffffffffffffffffffffffffffffff021916908373ffffffffffffffffffffffffffffffffffffffff1602179055506200014633826200014d60201b60201c565b506200056d565b600073ffffffffffffffffffffffffffffffffffffffff168273ffffffffffffffffffffffffffffffffffffffff161415620001c0576040517f08c379a0000000000000000000000000000000000000000000000000000000008152600401620001b790620004f9565b60405180910390fd5b620001d460008383620002fc60201b60201c565b620001f0816002546200030160201b620009581790919060201c565b6002819055506200024e816000808573ffffffffffffffffffffffffffffffffffffffff1673ffffffffffffffffffffffffffffffffffffffff168152602001908152602001600020546200030160201b620009581790919060201c565b6000808473ffffffffffffffffffffffffffffffffffffffff1673ffffffffffffffffffffffffffffffffffffffff168152602001908152602001600020819055508173ffffffffffffffffffffffffffffffffffffffff16600073ffffffffffffffffffffffffffffffffffffffff167fddf252ad1be2c89b69c2b068fc378daa952ba7f163c4a11628f55a4df523b3ef83604051620002f091906200051b565b60405180910390a35050565b505050565b6000808284019050838110156200034f576040517f08c379a00000000000000000000000000000000000000000000000000000000081526004016200034690620004d7565b60405180910390fd5b8091505092915050565b828054600181600116156101000203166002900490600052602060002090601f016020900481019282601f106200039c57805160ff1916838001178555620003cd565b82800160010185558215620003cd579182015b82811115620003cc578251825591602001919060010190620003af565b5b509050620003dc9190620003e0565b5090565b5b80821115620003fb576000816000905550600101620003e1565b5090565b600081519050620004108162000553565b92915050565b6000602082840312156200042957600080fd5b60006200043984828501620003ff565b91505092915050565b600062000451601b8362000538565b91507f536166654d6174683a206164646974696f6e206f766572666c6f7700000000006000830152602082019050919050565b600062000493601f8362000538565b91507f45524332303a206d696e7420746f20746865207a65726f2061646472657373006000830152602082019050919050565b620004d18162000549565b82525050565b60006020820190508181036000830152620004f28162000442565b9050919050565b60006020820190508181036000830152620005148162000484565b9050919050565b6000602082019050620005326000830184620004c6565b92915050565b600082825260208201905092915050565b6000819050919050565b6200055e8162000549565b81146200056a57600080fd5b50565b6117fa806200057d6000396000f3fe6080604052600436106100dd5760003560e01c80638da5cb5b1161007f578063a9059cbb11610059578063a9059cbb146102ea578063aa6ca80814610327578063dd62ed3e14610331578063f3fef3a31461036e576100dd565b80638da5cb5b1461025757806395d89b4114610282578063a457c2d7146102ad576100dd565b806323b872dd116100bb57806323b872dd14610175578063313ce567146101b257806339509351146101dd57806370a082311461021a576100dd565b806306fdde03146100e2578063095ea7b31461010d57806318160ddd1461014a575b600080fd5b3480156100ee57600080fd5b506100f7610397565b604051610104919061150d565b60405180910390f35b34801561011957600080fd5b50610134600480360381019061012f91906111a8565b610439565b60405161014191906114f2565b60405180910390f35b34801561015657600080fd5b5061015f610457565b60405161016c919061160f565b60405180910390f35b34801561018157600080fd5b5061019c60048036038101906101979190611159565b610461565b6040516101a991906114f2565b60405180910390f35b3480156101be57600080fd5b506101c761053a565b6040516101d4919061162a565b60405180910390f35b3480156101e957600080fd5b5061020460048036038101906101ff91906111a8565b610551565b60405161021191906114f2565b60405180910390f35b34801561022657600080fd5b50610241600480360381019061023c91906110b8565b610604565b60405161024e919061160f565b60405180910390f35b34801561026357600080fd5b5061026c61064c565b60405161027991906114d7565b60405180910390f35b34801561028e57600080fd5b50610297610672565b6040516102a4919061150d565b60405180910390f35b3480156102b957600080fd5b506102d460048036038101906102cf91906111a8565b610714565b6040516102e191906114f2565b60405180910390f35b3480156102f657600080fd5b50610311600480360381019061030c91906111a8565b6107e1565b60405161031e91906114f2565b60405180910390f35b61032f6107ff565b005b34801561033d57600080fd5b506103586004803603810190610353919061111d565b61082c565b604051610365919061160f565b60405180910390f35b34801561037a57600080fd5b50610395600480360381019061039091906110e1565b6108b3565b005b606060038054600181600116156101000203166002900480601f01602080910402602001604051908101604052809291908181526020018280546001816001161561010002031660029004801561042f5780601f106104045761010080835404028352916020019161042f565b820191906000526020600020905b81548152906001019060200180831161041257829003601f168201915b5050505050905090565b600061044d6104466109ad565b84846109b5565b6001905092915050565b6000600254905090565b600061046e848484610b80565b61052f8461047a6109ad565b61052a8560405180606001604052806028815260200161177860289139600160008b73ffffffffffffffffffffffffffffffffffffffff1673ffffffffffffffffffffffffffffffffffffffff16815260200190815260200160002060006104e06109ad565b73ffffffffffffffffffffffffffffffffffffffff1673ffffffffffffffffffffffffffffffffffffffff16815260200190815260200160002054610e159092919063ffffffff16565b6109b5565b600190509392505050565b6000600560009054906101000a900460ff16905090565b60006105fa61055e6109ad565b846105f5856001600061056f6109ad565b73ffffffffffffffffffffffffffffffffffffffff1673ffffffffffffffffffffffffffffffffffffffff16815260200190815260200160002060008973ffffffffffffffffffffffffffffffffffffffff1673ffffffffffffffffffffffffffffffffffffffff1681526020019081526020016000205461095890919063ffffffff16565b6109b5565b6001905092915050565b60008060008373ffffffffffffffffffffffffffffffffffffffff1673ffffffffffffffffffffffffffffffffffffffff168152602001908152602001600020549050919050565b600560019054906101000a900473ffffffffffffffffffffffffffffffffffffffff1681565b606060048054600181600116156101000203166002900480601f01602080910402602001604051908101604052809291908181526020018280546001816001161561010002031660029004801561070a5780601f106106df5761010080835404028352916020019161070a565b820191906000526020600020905b8154815290600101906020018083116106ed57829003601f168201915b5050505050905090565b60006107d76107216109ad565b846107d2856040518060600160405280602581526020016117a0602591396001600061074b6109ad565b73ffffffffffffffffffffffffffffffffffffffff1673ffffffffffffffffffffffffffffffffffffffff16815260200190815260200160002060008a73ffffffffffffffffffffffffffffffffffffffff1673ffffffffffffffffffffffffffffffffffffffff16815260200190815260200160002054610e159092919063ffffffff16565b6109b5565b6001905092915050565b60006107f56107ee6109ad565b8484610b80565b6001905092915050565b6000620f42409050600061081c8234610e7090919063ffffffff16565b90506108283382610ee0565b5050565b6000600160008473ffffffffffffffffffffffffffffffffffffffff1673ffffffffffffffffffffffffffffffffffffffff16815260200190815260200160002060008373ffffffffffffffffffffffffffffffffffffffff1673ffffffffffffffffffffffffffffffffffffffff16815260200190815260200160002054905092915050565b600560019054906101000a900473ffffffffffffffffffffffffffffffffffffffff1673ffffffffffffffffffffffffffffffffffffffff163373ffffffffffffffffffffffffffffffffffffffff161461090d57600080fd5b8173ffffffffffffffffffffffffffffffffffffffff166108fc829081150290604051600060405180830381858888f19350505050158015610953573d6000803e3d6000fd5b505050565b6000808284019050838110156109a3576040517f08c379a000000000000000000000000000000000000000000000000000000000815260040161099a9061156f565b60405180910390fd5b8091505092915050565b600033905090565b600073ffffffffffffffffffffffffffffffffffffffff168373ffffffffffffffffffffffffffffffffffffffff161415610a25576040517f08c379a0000000000000000000000000000000000000000000000000000000008152600401610a1c906115cf565b60405180910390fd5b600073ffffffffffffffffffffffffffffffffffffffff168273ffffffffffffffffffffffffffffffffffffffff161415610a95576040517f08c379a0000000000000000000000000000000000000000000000000000000008152600401610a8c9061154f565b60405180910390fd5b80600160008573ffffffffffffffffffffffffffffffffffffffff1673ffffffffffffffffffffffffffffffffffffffff16815260200190815260200160002060008473ffffffffffffffffffffffffffffffffffffffff1673ffffffffffffffffffffffffffffffffffffffff168152602001908152602001600020819055508173ffffffffffffffffffffffffffffffffffffffff168373ffffffffffffffffffffffffffffffffffffffff167f8c5be1e5ebec7d5bd14f71427d1e84f3dd0314c0f7b2291e5b200ac8c7c3b92583604051610b73919061160f565b60405180910390a3505050565b600073ffffffffffffffffffffffffffffffffffffffff168373ffffffffffffffffffffffffffffffffffffffff161415610bf0576040517f08c379a0000000000000000000000000000000000000000000000000000000008152600401610be7906115af565b60405180910390fd5b600073ffffffffffffffffffffffffffffffffffffffff168273ffffffffffffffffffffffffffffffffffffffff161415610c60576040517f08c379a0000000000000000000000000000000000000000000000000000000008152600401610c579061152f565b60405180910390fd5b610c6b838383611074565b610cd681604051806060016040528060268152602001611752602691396000808773ffffffffffffffffffffffffffffffffffffffff1673ffffffffffffffffffffffffffffffffffffffff16815260200190815260200160002054610e159092919063ffffffff16565b6000808573ffffffffffffffffffffffffffffffffffffffff1673ffffffffffffffffffffffffffffffffffffffff16815260200190815260200160002081905550610d69816000808573ffffffffffffffffffffffffffffffffffffffff1673ffffffffffffffffffffffffffffffffffffffff1681526020019081526020016000205461095890919063ffffffff16565b6000808473ffffffffffffffffffffffffffffffffffffffff1673ffffffffffffffffffffffffffffffffffffffff168152602001908152602001600020819055508173ffffffffffffffffffffffffffffffffffffffff168373ffffffffffffffffffffffffffffffffffffffff167fddf252ad1be2c89b69c2b068fc378daa952ba7f163c4a11628f55a4df523b3ef83604051610e08919061160f565b60405180910390a3505050565b6000838311158290610e5d576040517f08c379a0000000000000000000000000000000000000000000000000000000008152600401610e54919061150d565b60405180910390fd5b5060008385039050809150509392505050565b600080831415610e835760009050610eda565b6000828402905082848281610e9457fe5b0414610ed5576040517f08c379a0000000000000000000000000000000000000000000000000000000008152600401610ecc9061158f565b60405180910390fd5b809150505b92915050565b600073ffffffffffffffffffffffffffffffffffffffff168273ffffffffffffffffffffffffffffffffffffffff161415610f50576040517f08c379a0000000000000000000000000000000000000000000000000000000008152600401610f47906115ef565b60405180910390fd5b610f5c60008383611074565b610f718160025461095890919063ffffffff16565b600281905550610fc8816000808573ffffffffffffffffffffffffffffffffffffffff1673ffffffffffffffffffffffffffffffffffffffff1681526020019081526020016000205461095890919063ffffffff16565b6000808473ffffffffffffffffffffffffffffffffffffffff1673ffffffffffffffffffffffffffffffffffffffff168152602001908152602001600020819055508173ffffffffffffffffffffffffffffffffffffffff16600073ffffffffffffffffffffffffffffffffffffffff167fddf252ad1be2c89b69c2b068fc378daa952ba7f163c4a11628f55a4df523b3ef83604051611068919061160f565b60405180910390a35050565b505050565b6000813590506110888161170c565b92915050565b60008135905061109d81611723565b92915050565b6000813590506110b28161173a565b92915050565b6000602082840312156110ca57600080fd5b60006110d884828501611079565b91505092915050565b600080604083850312156110f457600080fd5b60006111028582860161108e565b9250506020611113858286016110a3565b9150509250929050565b6000806040838503121561113057600080fd5b600061113e85828601611079565b925050602061114f85828601611079565b9150509250929050565b60008060006060848603121561116e57600080fd5b600061117c86828701611079565b935050602061118d86828701611079565b925050604061119e868287016110a3565b9150509250925092565b600080604083850312156111bb57600080fd5b60006111c985828601611079565b92505060206111da858286016110a3565b9150509250929050565b6111ed81611661565b82525050565b6111fc81611685565b82525050565b600061120d82611645565b6112178185611650565b93506112278185602086016116c8565b611230816116fb565b840191505092915050565b6000611248602383611650565b91507f45524332303a207472616e7366657220746f20746865207a65726f206164647260008301527f65737300000000000000000000000000000000000000000000000000000000006020830152604082019050919050565b60006112ae602283611650565b91507f45524332303a20617070726f766520746f20746865207a65726f20616464726560008301527f73730000000000000000000000000000000000000000000000000000000000006020830152604082019050919050565b6000611314601b83611650565b91507f536166654d6174683a206164646974696f6e206f766572666c6f7700000000006000830152602082019050919050565b6000611354602183611650565b91507f536166654d6174683a206d756c7469706c69636174696f6e206f766572666c6f60008301527f77000000000000000000000000000000000000000000000000000000000000006020830152604082019050919050565b60006113ba602583611650565b91507f45524332303a207472616e736665722066726f6d20746865207a65726f20616460008301527f64726573730000000000000000000000000000000000000000000000000000006020830152604082019050919050565b6000611420602483611650565b91507f45524332303a20617070726f76652066726f6d20746865207a65726f2061646460008301527f72657373000000000000000000000000000000000000000000000000000000006020830152604082019050919050565b6000611486601f83611650565b91507f45524332303a206d696e7420746f20746865207a65726f2061646472657373006000830152602082019050919050565b6114c2816116b1565b82525050565b6114d1816116bb565b82525050565b60006020820190506114ec60008301846111e4565b92915050565b600060208201905061150760008301846111f3565b92915050565b600060208201905081810360008301526115278184611202565b905092915050565b600060208201905081810360008301526115488161123b565b9050919050565b60006020820190508181036000830152611568816112a1565b9050919050565b6000602082019050818103600083015261158881611307565b9050919050565b600060208201905081810360008301526115a881611347565b9050919050565b600060208201905081810360008301526115c8816113ad565b9050919050565b600060208201905081810360008301526115e881611413565b9050919050565b6000602082019050818103600083015261160881611479565b9050919050565b600060208201905061162460008301846114b9565b92915050565b600060208201905061163f60008301846114c8565b92915050565b600081519050919050565b600082825260208201905092915050565b600061166c82611691565b9050919050565b600061167e82611691565b9050919050565b60008115159050919050565b600073ffffffffffffffffffffffffffffffffffffffff82169050919050565b6000819050919050565b600060ff82169050919050565b60005b838110156116e65780820151818401526020810190506116cb565b838111156116f5576000848401525b50505050565b6000601f19601f8301169050919050565b61171581611661565b811461172057600080fd5b50565b61172c81611673565b811461173757600080fd5b50565b611743816116b1565b811461174e57600080fd5b5056fe45524332303a207472616e7366657220616d6f756e7420657863656564732062616c616e636545524332303a207472616e7366657220616d6f756e74206578636565647320616c6c6f77616e636545524332303a2064656372656173656420616c6c6f77616e63652062656c6f77207a65726fa26469706673582212201f8f82c6d067dc4e1476a5dc1fbea90349d782c4ab43ba1657b31f498ec9a8c064736f6c63430007010033",
  "immutableReferences": {},
  "source": "pragma solidity ^0.7.1;\npragma experimental ABIEncoderV2;\n\nimport \"@openzeppelin/contracts/token/ERC20/ERC20.sol\";\nimport \"@openzeppelin/contracts/math/SafeMath.sol\";\n\ncontract Intex is ERC20 {\n    using SafeMath for uint256;\n\n    address public owner;\n\n    constructor(uint256 initialSupply) ERC20(\"IntelligenceExchange\", \"INTX\")\n    {\n        owner = msg.sender;\n        _mint(msg.sender, initialSupply); // By default, ERC20 uses a value of 18 for decimals. Unit is 1 * 10**18.\n    }\n\n    // Get INTX tokens in exchange of ETH\n    function getTokens() public payable\n    {\n        uint256 exchangeRate = uint256(10**6); // 1 ETH -> 1M INTEX tokens\n        uint256 tokens = msg.value.mul(exchangeRate);\n        _mint(msg.sender, tokens);\n    }\n\n    // Owner can widraw ETH and transfer to beneficiary\n    function withdraw(address payable beneficiary, uint256 amount) public\n    {\n        require(msg.sender == owner);\n        beneficiary.transfer(amount);\n    }\n}\n",
  "sourcePath": "/home/irenee/work/dev/blockchain/adchain/contracts/Intex.sol",
  "compiler": {
    "name": "solc",
    "version": "0.7.1+commit.f4a555be.Emscripten.clang"
  },
  "schemaVersion": "3.2.4",
  "updatedAt": "2020-11-19T20:05:34.636Z",
  "networkType": "ethereum",
  "devdoc": {
    "kind": "dev",
    "methods": {
      "allowance(address,address)": {
        "details": "See {IERC20-allowance}."
      },
      "approve(address,uint256)": {
        "details": "See {IERC20-approve}. Requirements: - `spender` cannot be the zero address."
      },
      "balanceOf(address)": {
        "details": "See {IERC20-balanceOf}."
      },
      "decimals()": {
        "details": "Returns the number of decimals used to get its user representation. For example, if `decimals` equals `2`, a balance of `505` tokens should be displayed to a user as `5,05` (`505 / 10 ** 2`). Tokens usually opt for a value of 18, imitating the relationship between Ether and Wei. This is the value {ERC20} uses, unless {_setupDecimals} is called. NOTE: This information is only used for _display_ purposes: it in no way affects any of the arithmetic of the contract, including {IERC20-balanceOf} and {IERC20-transfer}."
      },
      "decreaseAllowance(address,uint256)": {
        "details": "Atomically decreases the allowance granted to `spender` by the caller. This is an alternative to {approve} that can be used as a mitigation for problems described in {IERC20-approve}. Emits an {Approval} event indicating the updated allowance. Requirements: - `spender` cannot be the zero address. - `spender` must have allowance for the caller of at least `subtractedValue`."
      },
      "increaseAllowance(address,uint256)": {
        "details": "Atomically increases the allowance granted to `spender` by the caller. This is an alternative to {approve} that can be used as a mitigation for problems described in {IERC20-approve}. Emits an {Approval} event indicating the updated allowance. Requirements: - `spender` cannot be the zero address."
      },
      "name()": {
        "details": "Returns the name of the token."
      },
      "symbol()": {
        "details": "Returns the symbol of the token, usually a shorter version of the name."
      },
      "totalSupply()": {
        "details": "See {IERC20-totalSupply}."
      },
      "transfer(address,uint256)": {
        "details": "See {IERC20-transfer}. Requirements: - `recipient` cannot be the zero address. - the caller must have a balance of at least `amount`."
      },
      "transferFrom(address,address,uint256)": {
        "details": "See {IERC20-transferFrom}. Emits an {Approval} event indicating the updated allowance. This is not required by the EIP. See the note at the beginning of {ERC20}; Requirements: - `sender` and `recipient` cannot be the zero address. - `sender` must have a balance of at least `amount`. - the caller must have allowance for ``sender``'s tokens of at least `amount`."
      }
    },
    "version": 1
  },
  "userdoc": {
    "kind": "user",
    "methods": {},
    "version": 1
  }
}